:020000040800F2
:10800000A8170120E9FD0008ED010208EF010208B0
:10801000F3010208F7010208FB010208000000005A
:10802000000000000000000000000000C181000806
:10803000FDFD0008000000001D820008E587000823
:1080400003FE000803FE000803FE00080103020807
:1080500003FE000803FE0008C9020208D10202085C
:10806000D9020208E1020208E902020803FE000840
:1080700003FE000803FE000803FE000803FE0008DC
:1080800003FE000803FE000803FE000803FE0008CC
:1080900003FE000803FE000803FE0008F1020208C8
:1080A00003FE000803FE000803FE000803FE0008AC
:1080B00003FE00089D020208B302020861020208E2
:1080C00003FE000803FE00086D0202088502020894
:1080D00091020208010202080D02020819020208B8
:1080E000F902020803FE000803FE000803FE000870
:1080F00003FE000803FE000803FE000803FE00085C
:1081000003FE000803FE000803FE000803FE00084B
:10811000250202083102020803FE000803FE0008DF
:1081200003FE000803FE000803FE000803FE00082B
:1081300003FE000803FE000803FE000803FE00081B
:1081400003FE000803FE000803FE000803FE00080B
:1081500003FE000803FE000803FE00083D020208BB
:1081600003FE00087902020803FE000803FE00086F
:1081700003FE000803FE000803FE000803FE0008DB
:1081800003FE000803FE0008490202085502020827
:1081900003FE000803FE000803FE000803FE0008BB
:1081A00003FE000803FE000803FE0008DFF80CD001
:1081B00024F0BEF80048004749100208A817012023
:1081C0002C4B19680868B0E8F04F80F30988BFF3BA
:1081D0006F8F4FF0000080F311887047000000009F
:1081E00008480068006880F308884FF0000080F3BA
:1081F000148862B661B6BFF34F8FBFF36F8F00DF95
:1082000000BF00BF08ED00E0DFF80C00016841F49A
:1082100070010160704700BF88ED00E0EFF3098056
:10822000BFF36F8F134B1A681EF0100F08BF20EDBD
:10823000108A20E9F04F106009B44FF0500080F32D
:108240001188BFF34F8FBFF36F8F02F053FA4FF0D7
:10825000000080F3118809BC19680868B0E8F04F85
:108260001EF0100F08BFB0EC108A80F30988BFF32E
:108270006F8F704740000020EFF3058070470000CB
:1082800010B50146AF4800E0006803688B42FBD39D
:108290000246436813448B4204D143684C6823442C
:1082A000436001460A464B6813440468A34211D157
:1082B000A54C03682468A34208D04B68046864682E
:1082C00023444B6003681B680B6005E09E4B1B68F2
:1082D0000B6001E003680B60884200D0016010BDB4
:1082E00030B54FF44843994800F007042CB1C01D45
:1082F00020F00700954C041B1B1B0246914C22608A
:108300000024904D6C60D018083820F007008E4C87
:10831000206000248C4D2D686C608B4D2D682C6086
:108320001146441A4C60884C24680C60884D4C6897
:108330002C60884D4C682C604FF00044864D2C60BA
:1083400030BD2DE9F04104464FF0000802F02FF84F
:108350007D48006808B9FFF7C3FF7F4800682040E8
:1083600000287DD13CB304F10800A04223D9083491
:1083700004F0070000B304F00700C0F10800204437
:10838000A04216D904F00700C0F10800044404F02C
:10839000070008B9012000E0002068B900BF5020A4
:1083A00080F31188BFF34F8FBFF36F8F00BF00BF03
:1083B000FEE7002400E00024002C54D0654800684B
:1083C000844250D85F4E3046056801E02E462D6845
:1083D0006868A04202D228680028F7D15A4800688D
:1083E000854240D0306800F108082868306068682D
:1083F000001B102819D92F1907F0070008B9012010
:1084000000E0002050B900BF502080F31188BFF376
:108410004F8FBFF36F8F00BF00BFFEE76868001B80
:1084200078606C603846FFF72BFF4A496868096836
:10843000081A4849086008460068454909688842A2
:1084400003D24448006842490860434968680968A3
:10845000084368600020286040480068401C00E035
:1084600001E03E49086001F0F4FEB8F1000F01D1CF
:1084700000F018FA08F0070008B9012000E0002019
:1084800050B900BF502080F31188BFF34F8FBFF366
:108490006F8F00BF00BFFEE74046BDE8F08170B5BA
:1084A00006463546002E44D0083D2C462A496068D1
:1084B0000968084008B1012000E0002050B900BF61
:1084C000502080F31188BFF34F8FBFF36F8F00BF31
:1084D00000BFFEE7206808B9012000E0002050B985
:1084E00000BF502080F31188BFF34F8FBFF36F8F11
:1084F00000BF00BFFEE71849606809680840C0B1C6
:108500002068B0B91449606809688843606001F068
:108510004EFF10496068096808440E49086020460B
:10852000FFF7AEFE0E480068401C0D49086001F0E0
:1085300090FE70BD074800687047054800687047A6
:10854000704700000000002008000020940900206F
:10855000100000200C0000201C000020140000204F
:1085600018000020C6480068401C08B9012000E03F
:10857000002050B900BF502080F31188BFF34F8F07
:10858000BFF36F8F00BF00BFFEE700BF502080F336
:108590001188BFF34F8FBFF36F8F00BF00BFFEE79F
:1085A000001F4FF080730360001F21F00103036080
:1085B000001FB44B036014380260001F6FF0020309
:1085C00003602038704700204FF0E0210861886187
:1085D000AD4800684FF47A71B0FBF1F0401E4FF0E7
:1085E000E02148610720086170471CB5A748006872
:1085F000A749884201D0012000E0002050B900BF07
:10860000502080F31188BFF34F8FBFF36F8F00BFEF
:1086100000BFFEE79D4800689D49491E884201D081
:10862000012000E0002050B900BF502080F31188E5
:10863000BFF34F8FBFF36F8F00BF00BFFEE79549B9
:10864000084600780190FF200A461070084600781E
:1086500000909DF8000000F0F0009DF8002090428E
:1086600001D1012000E0002050B900BF502080F36C
:108670001188BFF34F8FBFF36F8F00BF00BFFEE7BE
:108680009DF8000000F05000834A10700720834AD4
:10869000106009E081480068401E804A10609DF823
:1086A00000004006000E00909DF8000000F08000E1
:1086B0008028EFD079480068C0F10700042801D174
:1086C000012000E0002050B900BF502080F3118845
:1086D000BFF34F8FBFF36F8F00BF00BFFEE76F4840
:1086E000006800026D4A10601046008800F4E060E7
:1086F0001060684A0198107064482030006840F4A7
:1087000070006249203108600846006840F07040FF
:108710000860FFF758FF002059490860FFF774FD13
:108720005F48006840F040405D490860FFF758FD31
:1087300000201CBD52480068B0F57A7F01D10120AD
:1087400000E0002050B900BF502080F31188BFF333
:108750004F8FBFF36F8F00BF00BFFEE7704700BFB2
:10876000502080F31188BFF34F8FBFF36F8F00BF8E
:1087700043480068401C42490860084600680128D8
:1087800013D14248001D0068C0B208B9012000E0C2
:10879000002050B900BF502080F31188BFF34F8FE5
:1087A000BFF36F8F00BF00BFFEE77047344800681B
:1087B00050B900BF502080F31188BFF34F8FBFF333
:1087C0006F8F00BF00BFFEE72D480068401E2C4998
:1087D00008600846006820B9002080F3118800BFB7
:1087E00000BF704710B500BF502080F31188BFF361
:1087F0004F8FBFF36F8F00BF01F078FC20B14FF0B7
:1088000080502249091D086000BF002080F31188B4
:1088100000BF10BD70B5FFF72FFD0446102C16D316
:1088200004F1E02090F8F0531B480078854201DB0A
:10883000012000E0002050B900BF502080F31188D3
:10884000BFF34F8FBFF36F8F00BF00BFFEE70F482E
:108850000C30006800F4E06010490968884201D8D3
:10886000012000E0002050B900BF502080F31188A3
:10887000BFF34F8FBFF36F8F00BF00BFFEE770BD28
:1088800020000020658500088C00002000ED00E03D
:1088900071C20F4100E400E0240000202800002005
:1088A00034EF00E000BF502080F31188BFF34F8FFA
:1088B000BFF36F8F00BF00BFFEE7704700BF5020BF
:1088C00080F31188BFF34F8FBFF36F8F00BF00BFDE
:1088D000FEE7000070B505460E462C4654B900BFB1
:1088E000502080F31188BFF34F8FBFF36F8F00BF0D
:1088F00000BFFEE7FFF733FFD4E90F12206801FB4A
:108900000200A0600020A06320686060E06B401E51
:10891000226C216800FB0211E160FF2084F8440012
:1089200084F845009EB9206908B9012000E00020C4
:10893000A8B904F1100002F041FA80B14FF0805064
:10894000FA490860BFF34F8FBFF36F8F07E004F160
:10895000100002F003FF04F1240002F0FFFEFFF715
:1089600025FF012070BD2DE9F04106460D46174652
:108970009846069C0DB9246000E02760E6632564F4
:1089800001212046FFF7A6FF84F84C80BDE8F08166
:108990002DE9F84305460E4690460DB1012000E052
:1089A000002050B900BF502080F31188BFF34F8FD3
:1089B000BFF36F8F00BF00BFFEE70EB9002701E0D5
:1089C00005FB06F707F15000FFF7BBFC04464CB16E
:1089D000A14609F1500943464A46314628460094CB
:1089E000FFF7C1FF2046BDE8F88370B50446FFF7E6
:1089F000B6FE94F9455010E0606A08B9012000E025
:108A0000002038B904F1240002F0D8F918B102F0BE
:108A1000E3FA00E003E0681E45B2002DECDC00BF85
:108A2000FF2084F84500FFF7C1FEFFF798FE94F998
:108A3000445010E0206908B9012000E0002048B946
:108A400004F1100002F0BAF908B102F0C5FA681E8C
:108A500045B200E001E0002DECDC00BFFF2084F80F
:108A60004400FFF7A3FE70BD70B50546FFF777FE23
:108A7000A86BE96B884201D1012400E00024FFF7D4
:108A800095FE204670BD2DE9F04104460F4615467F
:108A90004FF00008A66B206C48B9206800282CD144
:108AA000A06802F014FB80460020A06025E07DB99C
:108AB0003946226C606822F069FB216C60680844CA
:108AC0006060D4E90101884217D32068606014E037
:108AD0003946226CE06822F059FB216CE068411AAB
:108AE000E1602168E068884203D2216CA068411AE5
:108AF000E160022D01D106B1761E701CA0634046D4
:108B0000BDE8F0812DE9FF4383B0064688461D4647
:108B10004FF00009344654B900BF502080F311884B
:108B2000BFF34F8FBFF36F8F00BF00BFFEE7B8F1F9
:108B3000000F01D1206C08B9012000E0002050B9DD
:108B400000BF502080F31188BFF34F8FBFF36F8FAA
:108B500000BF00BFFEE7022D02D1E06B012801D16A
:108B6000012000E0002050B900BF502080F31188A0
:108B7000BFF34F8FBFF36F8F00BF00BFFEE702F060
:108B80003DFA08B9059808B9012000E0002050B965
:108B900000BF502080F31188BFF34F8FBFF36F8F5A
:108BA00000BF00BFFEE700BFFFF7D9FDA06BE16B80
:108BB000884201D3022D28D12A4641462046FFF79C
:108BC00062FF0746606A08B9012000E0002068B92A
:108BD00004F1240002F0F2F888B14FF080505349BC
:108BE0000860BFF34F8FBFF36F8F08E03FB14FF0C6
:108BF00080504E490860BFF34F8FBFF36F8FFFF770
:108C0000D5FD012007B0BDE8F083059818B9FFF73E
:108C1000CDFD0020F6E7B9F1000F04D101A802F064
:108C200092F94FF00109FFF7C1FD01F0C0FBFFF71A
:108C300096FD94F94400401C10B9002084F84400CB
:108C400094F94500401C10B9002084F84500FFF756
:108C5000ADFD05A901A802F07DF9F0B92046FFF7A6
:108C600003FFA0B104F11000059902F03DF8204681
:108C7000FFF7BBFE01F0EDFA002895D14FF08050D0
:108C80002A490860BFF34F8FBFF36F8F8CE72046F0
:108C9000FFF7ABFE01F0DDFA86E72046FFF7A5FE01
:108CA00001F0D7FA0020ADE710B5044654B100201A
:108CB000A06020600021E16000231A46194620468A
:108CC000FFF720FF10BD2DE9F041044601260027E3
:108CD000224600210120FFF75BFE05462846FFF7EC
:108CE000E3FF2846BDE8F08170B505462C4654B92F
:108CF00000BF502080F31188BFF34F8FBFF36F8FF9
:108D000000BF00BFFEE702F076F9A16888420FD1EC
:108D1000E068401EE060E06828B900231A46194662
:108D20002046FFF7EFFE012603E0000004ED00E01F
:108D30000026304670BD01464A6A22B10A6B1268AD
:108D4000C2F10F0000E00020704770B50546FFF744
:108D500006FDA86B08B9012400E00024FFF726FDFA
:108D6000204670BD2DE9F34182B005464FF0000862
:108D70002C46002654B900BF502080F31188BFF361
:108D80004F8FBFF36F8F00BF00BFFEE7206C08B9A5
:108D9000012000E0002050B900BF502080F311886E
:108DA000BFF34F8FBFF36F8F00BF00BFFEE702F02E
:108DB00025F908B9039808B9012000E0002050B94E
:108DC00000BF502080F31188BFF34F8FBFF36F8F28
:108DD00000BF00BFFEE700BFFFF7C1FCA76BFFB1FC
:108DE000781EA063206810B902F04EFAA0602069D6
:108DF00008B9012000E0002060B904F1100001F082
:108E0000DDFF38B14FF08050F8490860BFF34F8F55
:108E1000BFF36F8FFFF7CAFC012004B0BDE8F081FB
:108E2000039898B90EB9012000E0002050B900BFA6
:108E3000502080F31188BFF34F8FBFF36F8F00BFB7
:108E400000BFFEE7FFF7B2FC0020E6E7B8F1000F35
:108E500004D1684602F077F84FF00108FFF7A6FC4E
:108E600001F0A5FAFFF77BFC94F94400401C10B90F
:108E7000002084F8440094F94500401C10B90020FB
:108E800084F84500FFF792FC03A9684602F062F8F7
:108E900040BB2046FFF759FFF0B1206838B9FFF713
:108EA0005EFCA06802F0B6F80646FFF77FFC04F10E
:108EB0002400039901F018FF2046FFF796FD01F00A
:108EC000C8F9002888D14FF08050C8490860BFF326
:108ED0004F8FBFF36F8F7FE72046FFF786FD01F0CE
:108EE000B8F979E72046FFF780FD01F0B2F9204696
:108EF000FFF72BFF0028EED05EB1FFF730FC2046D5
:108F0000FFF719FF07463946A06802F03EF9FFF760
:108F10004DFC002081E72DE9F04106460F4634461E
:108F200054B900BF502080F31188BFF34F8FBFF3B7
:108F30006F8F00BF00BFFEE702F05DF8A1688842B6
:108F400004D1E068401CE060012508E03946204675
:108F5000FFF708FF054615B1E068401CE0602846B1
:108F6000BDE8F08170B505460E460DB1012000E068
:108F7000002050B900BF502080F31188BFF34F8FFD
:108F8000BFF36F8F00BF00BFFEE7AE4201D80120E4
:108F900000E0002050B900BF502080F31188BFF3DB
:108FA0004F8FBFF36F8F00BF00BFFEE7022200218B
:108FB0002846FFF7EDFC044604B1A663204670BDC9
:108FC0002DE9F05F07468A4690461E463C4654B956
:108FD00000BF502080F31188BFF34F8FBFF36F8F16
:108FE00000BF00BFFEE7BAF1000F01D1206C08B945
:108FF000012000E0002050B900BF502080F311880C
:10900000BFF34F8FBFF36F8F00BF00BFFEE7022E8D
:1090100002D1E06B012801D1012000E0002050B90D
:1090200000BF502080F31188BFF34F8FBFF36F8FC5
:1090300000BF00BFFEE7FFF7EDFB00BF5021EFF3DD
:10904000118081F31188BFF34F8FBFF36F8F00BF83
:109050000546A06BE16B884201D3022E23D194F91F
:1090600045B0324651462046FFF70DFD0BF1010099
:1090700088B9606A08B9012000E0002080B904F1D5
:10908000240001F09BFE58B1B8F1000F08D0012078
:10909000C8F8000004E00BF1010040B284F845007C
:1090A0004FF0010901E04FF0000900BF85F311887E
:1090B00000BF4846BDE8F09F2DE9F04706460F4641
:1090C000344654B900BF502080F31188BFF34F8F4E
:1090D000BFF36F8F00BF00BFFEE7206C08B901200F
:1090E00000E0002050B900BF502080F31188BFF38A
:1090F0004F8FBFF36F8F00BF00BFFEE7206808B936
:10910000A06808B9012000E0002050B900BF50203D
:1091100080F31188BFF34F8FBFF36F8F00BF00BF85
:10912000FEE7FFF777FB00BF5021EFF3118081F3DB
:109130001188BFF34F8FBFF36F8F00BF0546D4F880
:109140003890E06B48451ED994F945A009F101001B
:10915000A0630AF1010070B9606A08B9012000E05B
:10916000002068B904F1240001F028FE40B13FB1AD
:109170000120386004E00AF1010040B284F84500A3
:109180004FF0010801E04FF0000800BF85F311889F
:1091900000BF4046BDE8F08770B504460D46206C20
:1091A00070B1216CE0680144E160D4E902108842AA
:1091B00001D32168E1602846226CE16821F0E6FFD6
:1091C00070BD2DE9F74183B005460E464FF000080B
:1091D0002C466CB900BF502080F31188BFF34F8F2D
:1091E000BFF36F8F00BF00BFFEE7000004ED00E09B
:1091F0000EB9206C08B9012000E0002050B900BF72
:10920000502080F31188BFF34F8FBFF36F8F00BFE3
:1092100000BFFEE701F0F2FE08B9059808B9012089
:1092200000E0002050B900BF502080F31188BFF348
:109230004F8FBFF36F8F00BF00BFFEE700BFFFF788
:109240008EFAA76BF7B131462046FFF7A5FF781ECF
:10925000A063206908B9012000E0002060B904F192
:10926000100001F0ABFD38B14FF08050FA490860B2
:10927000BFF34F8FBFF36F8FFFF798FA012006B04F
:10928000BDE8F081059818B9FFF790FA0020F6E7DD
:10929000B8F1000F04D101A801F055FE4FF001080C
:1092A000FFF784FA01F083F8FFF759FA94F94400C4
:1092B000401C10B9002084F8440094F94500401C7B
:1092C00010B9002084F84500FFF770FA05A901A83D
:1092D00001F040FEF0B92046FFF737FDA0B104F1E0
:1092E0002400059901F000FD2046FFF77EFB00F009
:1092F000B0FF0028A3D14FF08050D7490860BFF3DA
:109300004F8FBFF36F8F9AE72046FFF76EFB00F099
:10931000A0FF94E72046FFF768FB00F09AFF204685
:10932000FFF713FD00288AD00020A8E72DE9F743B6
:1093300082B005460E464FF000082C4654B900BFD7
:10934000502080F31188BFF34F8FBFF36F8F00BFA2
:1093500000BFFEE70EB9206C08B9012000E0002034
:1093600050B900BF502080F31188BFF34F8FBFF377
:109370006F8F00BF00BFFEE701F040FE08B9049800
:1093800008B9012000E0002050B900BF502080F350
:109390001188BFF34F8FBFF36F8F00BF00BFFEE791
:1093A00000BFFFF7DCF9D4F83890B9F1000F1ED0F8
:1093B000E76831462046FFF7EFFEE760606A08B9CC
:1093C000012000E0002060B904F1240001F0F6FC67
:1093D00038B14FF08050A0490860BFF34F8FBFF302
:1093E0006F8FFFF7E3F9012005B0BDE8F083049823
:1093F00018B9FFF7DBF90020F6E7B8F1000F04D148
:10940000684601F0A0FD4FF00108FFF7CFF900F02A
:10941000CEFFFFF7A4F994F94400401C10B90020D6
:1094200084F8440094F94500401C10B9002084F8E9
:109430004500FFF7BBF904A9684601F08BFDF0B9C0
:109440002046FFF782FCA0B104F12400049901F04A
:109450004BFC2046FFF7C9FA00F0FBFE0028A0D124
:109460004FF080507C490860BFF34F8FBFF36F8F80
:1094700097E72046FFF7B9FA00F0EBFE91E72046A8
:10948000FFF7B3FA00F0E5FE2046FFF75EFC002888
:1094900087D00020A8E72DE9F05F064689461746E9
:1094A000344654B900BF502080F31188BFF34F8F6A
:1094B000BFF36F8F00BF00BFFEE7B9F1000F01D10E
:1094C000206C08B9012000E0002050B900BF5020F6
:1094D00080F31188BFF34F8FBFF36F8F00BF00BFC2
:1094E000FEE7FFF797F900BF5021EFF3118081F3FA
:1094F0001188BFF34F8FBFF36F8F00BF0546D4F8BD
:1095000038A0BAF1000F22D094F944B04946204661
:10951000FFF742FEAAF10100A0630BF1010070B950
:10952000206908B9012000E0002068B904F11000AA
:1095300001F044FC40B13FB10120386004E00BF180
:10954000010040B284F844004FF0010801E04FF000
:10955000000800BF85F3118800BF4046BDE8F09FBA
:109560002DE9F04706468846344654B900BF5020DE
:1095700080F31188BFF34F8FBFF36F8F00BF00BF21
:10958000FEE7B8F1000F01D1206C08B9012000E01E
:10959000002050B900BF502080F31188BFF34F8FD7
:1095A000BFF36F8F00BF00BFFEE7206C08B1012042
:1095B00000E0002050B900BF502080F31188BFF3B5
:1095C0004F8FBFF36F8F00BF00BFFEE7FFF722F999
:1095D00000BF5021EFF3118081F31188BFF34F8F4B
:1095E000BFF36F8F00BF0546A06B48B1D4F80C9055
:1095F00041462046FFF7D0FDC4F80C90012700E05B
:10960000002700BF85F3118800BF3846BDE8F0870A
:1096100070B5044654B900BF502080F31188BFF3E1
:109620004F8FBFF36F8F00BF00BFFEE7FFF797F8C4
:10963000A56BFFF7BBF8284670BD70B504462546FC
:1096400065B900BF502080F31188BFF34F8FBFF37F
:109650006F8F00BF00BFFEE704ED00E0FFF77FF86B
:10966000D5E90E10461AFFF7A1F8304670BD10B5C7
:1096700001460A4652B900BF502383F31188BFF355
:109680004F8FBFF36F8F00BF00BFFEE7906B10BD21
:10969000014600200EE0544A02EBC00252688A42A2
:1096A00007D10022504B43F8302003EBC0035A602F
:1096B00002E0401C0828EED300BF704770B5044696
:1096C000254655B900BF502080F31188BFF34F8F56
:1096D000BFF36F8F00BF00BFFEE72846FFF7D8FF3C
:1096E0002846FEF7DCFE70BD0146886C7047816439
:1096F0007047014691F84C00704710B501460A4684
:1097000052B900BF502383F31188BFF34F8FBFF3CB
:109710006F8F00BF00BFFEE7936B0BB9012000E025
:10972000002010BD10B501460A4652B900BF5023B3
:1097300083F31188BFF34F8FBFF36F8F00BF00BF5C
:10974000FEE7936BD46BA34201D1012000E000201F
:1097500010BD024600200BE0234B53F8303033B9E4
:10976000214B43F8301003EBC0035A6002E0401C69
:109770000828F1D300BF70470246002000210AE00C
:10978000194B03EBC1035B68934203D1164B53F8AB
:10979000310002E0491C0829F2D300BF70472DE9CF
:1097A000F04105460E4617462C46FEF7D8FF94F9C1
:1097B0004400401C10B9002084F8440094F945008E
:1097C000401C10B9002084F84500FEF7EFFFA06BA5
:1097D00028B93A46314604F1240001F0D1FA204676
:1097E000FFF703F9BDE8F08194D100202DE9F041A5
:1097F00004460D4616461F464FF00008656024617A
:10980000B5420CD8F01BA169884202D34FF0010881
:1098100011E0211DF748006801F0BCFF0BE0BE42DB
:1098200004D2BD4202D34FF0010804E0211DF248EA
:10983000006801F0AFFF4046BDE8F0812DE9FE432E
:1098400004460D4616461F46DDF828804FF00009F5
:1098500054B900BF502080F31188BFF34F8FBFF37E
:109860006F8F00BF00BFFEE7E448006810B30095AB
:1098700001960294062D15DA01F0C0FB022808D1EA
:10988000002342466946DD480068FFF73BF9814600
:1098900010E000231A466946D8480068FFF732F9FD
:1098A000814607E000233A466946D4480068FFF73E
:1098B00087FB81464846BDE8FE832DE9F84332E048
:1098C000CD480068C0680568CB480068C068C468B7
:1098D000201D01F079FF2046616A8847E069012870
:1098E00021D1A0694619AE4207D966602461211DC5
:1098F000C148006801F04EFF15E0002003462A46EB
:10990000014600902046FFF799FF074657B900BF70
:10991000502080F31188BFF34F8FBFF36F8F00BFCC
:1099200000BFFEE700BFB4480068006808B9012026
:1099300000E000200028C3D0AF48D0F80080AD4838
:109940000068AD490860AB48C0F80080BDE8F88306
:1099500070B5044601F0D9F80546A948006885426B
:1099600004D2FFF7AAFF0120206001E00020206060
:10997000A3480560284670BD70B586B06AE00398BC
:10998000002867DB059C606908B9012000E0002021
:1099900010B9201D01F018FF02A8FFF7D9FF0546F6
:1099A00003980A2854D2DFE800F009050731334F45
:1099B0000608323400BF00BF00BF00BF0498A26990
:1099C000811803462A462046FFF710FFE8B12046DB
:1099D000616A8847E069012817D100200090049847
:1099E000A1694218002319462046FFF727FF0646C3
:1099F00056B900BF502080F31188BFF34F8FBFF3DB
:109A00006F8F00BF00BFFEE700BF22E000BF20E075
:109A100000BF0498A061A06908B1012000E0002007
:109A200050B900BF502080F31188BFF34F8FBFF3B0
:109A30006F8F00BF00BFFEE7A06941192B462A4681
:109A40002046FFF7D3FE04E02046FEF728FD00E0A5
:109A500000BF00BF002203A968480068FFF7B1FB00
:109A600000288CD106B070BDF8B505460F46624897
:109A70000068C068C468201D01F0A6FEE0690128E6
:109A80001DD1A06941192B463A462046FFF7AEFE8C
:109A9000A8B1002003462A46014600902046FFF761
:109AA000CDFE064656B900BF502080F31188BFF3A3
:109AB0004F8FBFF36F8F00BF00BFFEE700BF204690
:109AC000616A8847F8BDF8B505460C4600F06FFCA2
:109AD0006846FFF73DFF0646009820BB44B9B542F3
:109AE00006D800F0B6FB31462846FFF7BDFF1CE064
:109AF0003CB140480068006808B9012000E000203F
:109B00000446A91B22463D480068FFF748FE00F0C6
:109B1000A0FB50B94FF080503A490860BFF34F8F17
:109B2000BFF36F8F01E000F094FBF8BD0146324AAD
:109B3000126812680AB9012200E000220A600A686D
:109B400022B92D4A1268D268106800E000207047E0
:109B500008B500BF6846FFF7E9FF044620460099B4
:109B6000FFF7B1FFFFF708FFF4E710B5FEF7F7FDC9
:109B700022480068D0B9244801F0F0FD234801F0E4
:109B8000EDFD21481C49086020481A490860002260
:109B90000C210A20FEF7FCFE184908600846006800
:109BA00020B11BA115480068FFF7D3FDFEF7FEFDAD
:109BB00010BD1CB50024FFF7D8FF1048006858B14D
:109BC0001548022100234FF48272CDE9001013A141
:109BD000144800F0D8F9044654B900BF502080F36F
:109BE0001188BFF34F8FBFF36F8F00BF00BFFEE739
:109BF00020461CBD300000202C0000203400002036
:109C00003C00002004ED00E0D4D10020E8D1002089
:109C1000546D72510000000038000020546D722015
:109C200053766300519B00082DE9F04706460D4628
:109C300017469846DDE908940DB1012000E00020A8
:109C400050B900BF502080F31188BFF34F8FBFF38E
:109C50006F8F00BF00BFFEE75CB1FFF786FF266095
:109C6000A561E761C4F82080C4F82490201D01F0AC
:109C700082FDBDE8F0872DE9FC4705460E461746F4
:109C80009846DDF828902C20FEF75BFB04463CB19B
:109C900043463A4631462846CDE90094FFF7C4FFD3
:109CA0002046BDE8FC874B48006808B1012000E071
:109CB000002050B900BF502080F31188BFF34F8FB0
:109CC000BFF36F8F00BF00BFFEE7424800687047D8
:109CD00001460A4651B900BF502080F31188BFF3F6
:109CE0004F8FBFF36F8F00BF00BFFEE790697047D3
:109CF00010B501460A4651B900BF502383F31188BD
:109D0000BFF34F8FBFF36F8F00BF00BFFEE75068F8
:109D100010BD01460A4651B900BF502080F311889A
:109D2000BFF34F8FBFF36F8F00BF00BFFEE7106818
:109D3000704770B50446264654B900BF502080F3E2
:109D40001188BFF34F8FBFF36F8F00BF00BFFEE7D7
:109D5000FEF705FD706908B9012000E00020012828
:109D600001D1002500E00125FEF720FD284670BD49
:109D700070B50446254654B900BF502080F31188C1
:109D8000BFF34F8FBFF36F8F00BF00BFFEE7FEF73B
:109D9000E6FC2E6AFEF70AFD304670BD70B504463B
:109DA0000D46264654B900BF502080F31188BFF3FA
:109DB0004F8FBFF36F8F00BF00BFFEE7FEF7CFFCF2
:109DC0003562FEF7F3FC70BD0146886A7047816218
:109DD000704700003800002010B5002407E004EBB5
:109DE0008401FB4A02EB810001F0B8FC641C0F2CDB
:109DF000F5D3F84801F0B2FCF74801F0AFFCF748A2
:109E000001F0ACFCF64801F0A9FCF64801F0A6FC14
:109E1000F048F5490860F048F449086010BD10B5F5
:109E20000446FEF79CFCF2480068401CF0490860BC
:109E3000F048006840B9EF4804600846006801280F
:109E40000DD1FFF7C9FF0AE0EB48006838B9E948CF
:109E50000068C06AE16A884201D8E6480460E748C1
:109E60000068401CE549086008460068206494F8D2
:109E70002C1001208840E24909680843E049086045
:109E8000E16A01EB8101D24A02EB8100211D01F060
:109E900075FCFEF78BFCD848006868B1D5480068AF
:109EA000C06AE16A884207D24FF08050D549086005
:109EB000BFF34F8FBFF36F8F10BD2DE9F05F824668
:109EC0000E4690469B460A9F0C9C56B900BF5020F8
:109ED00080F31188BFF34F8FBFF36F8F00BF00BFB8
:109EE000FEE74FEA8801A522206B21F061F9A8F175
:109EF0000100216B01EB800929F0070909F0070037
:109F000008B9012000E0002050B900BF502080F3C4
:109F10001188BFF34F8FBFF36F8F00BF00BFFEE705
:109F2000002507E0715D04F134004155705D00B912
:109F300002E06D1C0A2DF5D300BF00213D20015524
:109F40000F2F00D30E27E762A7640020E064201DD6
:109F500001F011FC04F1180001F00DFC2461C7F1BF
:109F60000F00A06164620020206584F854005A4606
:109F700051464846FEF714FB20600B9808B10B9839
:109F80000460BDE8F09F2DE9FF4F85B0804689460B
:109F90001746DDE912ABB800FEF7D3F9064656B115
:109FA0005820FEF7CEF904460CB1266304E0304693
:109FB000FEF775FA00E000247CB10020CDE900AB8B
:109FC000CDE902403A4649464046089BFFF775FFF7
:109FD0002046FFF724FF012501E04FF0FF3528461A
:109FE00009B0BDE8F08F80490968096809B9012105
:109FF00000E0002121B14FF0FF31834A116006E0FB
:10A0000079490968C968C8687F4A41681160704722
:10A0100010B50446206BFEF742FA2046FEF73FFAE1
:10A0200010BD70B50546FEF79AFB15B9714800687A
:10A0300000E028460446201D01F0C6FB78B9E06A1E
:10A0400000EB8000624951F8200040B994F82C10D0
:10A05000012088406A490968814369480160A06A13
:10A0600018B104F1180001F0AFFB64480068401C0F
:10A07000624908605F480068844209D1211D584840
:10A0800001F07CFB61480068401C6049086009E001
:10A0900057480068401E564908602046FFF7B8FF41
:10A0A000FFF7A1FFFEF782FB53480068E8B1514873
:10A0B0000068844219D15648006808B9012000E0C0
:10A0C000002050B900BF502080F31188BFF34F8F9C
:10A0D000BFF36F8F00BF00BFFEE74FF080504949CC
:10A0E0000860BFF34F8FBFF36F8F70BD2DE9F04154
:10A0F0004FF0000846480068002868D145480068CD
:10A10000451C4448056015BB37480068006808B91D
:10A11000012000E0002050B900BF502080F31188DA
:10A12000BFF34F8FBFF36F8F00BF00BFFEE72E4816
:10A1300007682E4800682C4908602C48076036489C
:10A140000068401C34490860FFF74DFF00BF2E48EF
:10A150000068854263D300BF23480068006808B9DF
:10A16000012000E0002020B14FF0FF3026490860B8
:10A1700054E01D480068C068C4686668B54202D2F1
:10A18000214806604AE0201D01F01EFBA06A18B1BC
:10A1900004F1180001F018FB94F82C1001208840FD
:10A1A00017490968084316490860E16A01EB810113
:10A1B000074A02EB8100211D01F0E0FA0D49E06A37
:10A1C0000968C96A8842C7D34FF00108C4E733E081
:10A1D000FCD1002028D300203CD3002050D3002005
:10A1E00064D3002078D300204400002048000020E1
:10A1F00050000020400000205C0000206C00002087
:10A200005800002004ED00E0700000204C00002009
:10A2100078000020540000206800002000BFFE48A5
:10A220000068C06A00EB8000FC4951F8200001285A
:10A2300001D94FF0010804E0F9480068401CF849D2
:10A240000860F848006808B14FF001084046BDE8D2
:10A25000F08170B500240026F348006850B900BFB3
:10A26000502080F31188BFF34F8FBFF36F8F00BF73
:10A2700000BFFEE7FEF773FAEB480068401EEA49AC
:10A2800008600846006800284FD1E84800680028A8
:10A290004BD024E0E648C068C46804F1180001F01F
:10A2A00093FA201D01F090FA94F82C1001208840B8
:10A2B000E04909680843DF490860E16A01EB810170
:10A2C000D64A02EB8100211D01F058FAD249E06A1A
:10A2D0000968C96A884202D30120D2490860D4487B
:10A2E000006808B9012000E000200028D2D00CB19D
:10A2F000FFF779FECA48056865B100BFFFF7F6FEB3
:10A3000010B10120C74908606D1E002DF6D1002054
:10A31000C3490860C348006838B101263007C64900
:10A320000860BFF34F8FBFF36F8FFEF73FFA3046E1
:10A3300070BD2DE9F04105460E46C0480768B64895
:10A340000068001D01F040FA50B9B348006890F869
:10A350002C1001208840B74909688143B548016045
:10A36000681C38B936B1AC480168091DB44801F021
:10A3700005FA1AE07C19A84800684460BC4207D27C
:10A38000A5480168091DAF48006801F003FA0CE018
:10A39000A1480168091DAC48006801F0FBF9AB4811
:10A3A0000068844201D2A9480460BDE8F0819E485B
:10A3B0000068401C9C49086070472DE9F04704463E
:10A3C0000F464FF0000954B900BF502080F31188A8
:10A3D000BFF34F8FBFF36F8F00BF00BFFEE70FB11A
:10A3E000012000E0002050B900BF502080F3118808
:10A3F000BFF34F8FBFF36F8F00BF00BFFEE78A48E8
:10A40000006808B9012000E0002050B900BF5020CA
:10A4100080F31188BFF34F8FBFF36F8F00BF00BF72
:10A42000FEE7FFF7C4FF854806682068C519206865
:10A43000B04207D92068A8420BD9B54209D94FF0DC
:10A44000010906E02068A84201D8B54201D94FF0C1
:10A4500001092560B9F1000F03D0A81B0021FFF707
:10A4600068FFFFF7F6FE8046B8F1000F07D14FF006
:10A47000805071490860BFF34F8FBFF36F8FBDE805
:10A48000F08770B504460025D4B16748006808B964
:10A49000012000E0002050B900BF502080F3118857
:10A4A000BFF34F8FBFF36F8F00BF00BFFEE7FFF713
:10A4B0007EFF00212046FFF73CFFFFF7CAFE05465E
:10A4C0003DB94FF080505C490860BFF34F8FBFF338
:10A4D0006F8F70BD2DE9F04707463E4656B900BF65
:10A4E000502080F31188BFF34F8FBFF36F8F00BFF1
:10A4F00000BFFEE748480068864201D1002426E0FC
:10A50000FEF72DF975695048D0F800804D48D0F815
:10A510000090FEF74BF9454501D04D4501D102248D
:10A5200015E0474885420BD1B06A38B996F8540017
:10A53000012801D102240AE0032408E0022406E0F5
:10A540004348854200D00DB9042400E00124204690
:10A55000BDE8F08770B50446FEF701F914B92E483E
:10A56000006800E020460646F56AFEF71FF9284617
:10A5700070BD2DE9F0410546FEF74CF900BF5021B2
:10A58000EFF3118081F31188BFF34F8FBFF36F8F0B
:10A5900000BF044615B92048006800E02846074679
:10A5A000FE6A00BF84F3118800BF3046BDE8F08129
:10A5B0002DE9F04780460D464FF000090F2D01D2DE
:10A5C000012000E0002050B900BF502080F3118826
:10A5D000BFF34F8FBFF36F8F00BF00BFFEE70F2D9C
:10A5E00000D30E25FEF7BBF8B8F1000F02D10A48E0
:10A5F000006800E040460446A66CAE4276D0B54204
:10A600002BD90548006884422DD003480068C06AF1
:10A61000A84228D81EE0000040000020FCD1002005
:10A62000600000206400002078000020500000201E
:10A6300050D300205800002004ED00E0540000201A
:10A6400078D3002048000020440000207000002043
:10A6500064D300204FF0010905E0FA480068844205
:10A6600001D14FF00109E76AE16AA06C884200D18C
:10A67000E562A564A06900F0004010B9C5F10F00C3
:10A68000A06107EB8701F04A02EB81016069884213
:10A6900001D1012000E00020E0B1201D01F094F87C
:10A6A00030B90120B840E94909688143E7480160B1
:10A6B00094F82C1001208840E44909680843E349D4
:10A6C0000860E16A01EB8101DF4A02EB8100211D94
:10A6D00001F054F8B9F1000F07D04FF08050DC4979
:10A6E0000860BFF34F8FBFF36F8F00BFFEF75EF8B8
:10A6F000BDE8F08770B5D748006818B10120D64989
:10A7000008604DE00020D4490860CE480068046B22
:10A710004FF0A5352068B0F1A53F0BD16068B0F1CE
:10A72000A53F07D1A068B0F1A53F03D1E068B0F123
:10A73000A53F05D0C348016834310068FEF7BEF874
:10A74000C2480068B0FA80F0C0F11F0101EB81003F
:10A75000BD4A52F8200008B1012000E0002050B9A5
:10A7600000BF502080F31188BFF34F8FBFF36F8F6E
:10A7700000BF00BFFEE701EB8102B34B03EB820099
:10A7800042685268426000F108024368934202D175
:10A790004268526842604268D268AA4B1A6000BFA1
:10A7A00070BD70B50546FDF7DAFF15B9A54800681C
:10A7B00000E028460446201D01F006F878B9E06A5A
:10A7C00000EB8000A04951F8200040B994F82C100B
:10A7D000012088409D49096881439C480160A06A26
:10A7E00018B104F1180000F0EFFF211D9B4800F0A4
:10A7F000C5FF94F85400012802D1002084F85400C9
:10A80000FDF7D4FF9648006828B1FDF7A8FFFFF7D1
:10A81000EAFBFDF7CBFF8B480068844229D19048C2
:10A820000068D0B18B48006808B9012000E0002022
:10A8300050B900BF502080F31188BFF34F8FBFF392
:10A840006F8F00BF00BFFEE74FF080508049086067
:10A85000BFF34F8FBFF36F8F0BE0804800688149D3
:10A860000968884203D100207649086001E0FFF7BB
:10A8700041FF70BD10B502460020114652B900BF1D
:10A88000502383F31188BFF34F8FBFF36F8F00BF47
:10A8900000BFFEE7714C4B69A34201D1012300E0E8
:10A8A000002373B1704C8B6AA34201D1012300E0F5
:10A8B000002333B98B6A0BB9012300E0002303B1F5
:10A8C000012010BD70B505462C4655B900BF50207B
:10A8D00080F31188BFF34F8FBFF36F8F00BF00BFAE
:10A8E000FEE75848006884422BD054B3FDF737FF89
:10A8F0002046FFF7BFFF10B3201D00F065FF94F85E
:10A900002C10012088405149096808434F490860CC
:10A91000E16A01EB81014C4A02EB8100211D00F04C
:10A920002DFF4849E06A0968C96A884207D34FF099
:10A93000805047490860BFF34F8FBFF36F8FFDF71B
:10A9400035FF70BD2DE9F04106460027344656B963
:10A9500000BF502080F31188BFF34F8FBFF36F8F7C
:10A9600000BF00BFFEE7FDF755FF00BF5021EFF32A
:10A97000118081F31188BFF34F8FBFF36F8F00BF3A
:10A9800005462046FFF776FF20B332480068E0B95D
:10A990002C49E06A0968C96A884200D30127201D52
:10A9A00000F012FF94F82C10012088402749096814
:10A9B000084326490860E16A01EB8101224A02EB63
:10A9C0008100211D00F0DAFE04E004F118012648A0
:10A9D00000F0D4FE00BF85F3118800BF3846BDE803
:10A9E000F08110B516E0FDF7BAFE2048C068C468D3
:10A9F000201D00F0E9FE1B480068401E1949086050
:10AA00001B480068401E1A490860FDF7CFFE20462B
:10AA1000FFF7FEFA164800680028E4D110BD00BF19
:10AA2000FFF7DFFF08480068012807D94FF0805082
:10AA300007490860BFF34F8FBFF36F8FFDF73DFFEE
:10AA4000EEE7000040000020FCD10020580000206C
:10AA500004ED00E0780000206400002078D300209E
:10AA60005C0000205000002050D3002064D3002060
:10AA70004C0000201CB5FC4800210B468222CDE989
:10AA80000010FAA1FB48FFF77EFA0446012C02D120
:10AA9000FFF78FF80446012C15D100BF502080F33A
:10AAA0001188BFF34F8FBFF36F8F00BF4FF0FF30A0
:10AAB000F14908600120F14908600020F049086070
:10AAC000FDF793FD10E0601C08B1012000E00020BC
:10AAD00050B900BF502080F31188BFF34F8FBFF3F0
:10AAE0006F8F00BF00BFFEE71CBD10B500BF502038
:10AAF00080F31188BFF34F8FBFF36F8F00BF00202B
:10AB0000DE490860FDF716FE10BDDD490868704794
:10AB100070B5FDF77FFE0025D9480468204670BD5A
:10AB2000D84800687047014611B9D748006800E06E
:10AB30000846024652B900BF502080F31188BFF387
:10AB40004F8FBFF36F8F00BF00BFFEE702F13400ED
:10AB500070470246002101E0521C491C1078A528CC
:10AB6000FAD0890888B270472DE9F04107460C46B3
:10AB700090461E4617B9C448006800E038460546AE
:10AB8000256005F134006060E86A2061286BE061AF
:10AB9000286CA060A86C60610020A061052E12D016
:10ABA000B9480068854202D1002020730FE0267367
:10ABB000032E0CD1FFF7FBFBA86A08B1022020731B
:10ABC000FFF747FB03E02846FFF784FC2073B8F14A
:10ABD000000F04D0286BFFF7BCFF208401E00020A9
:10ABE0002084BDE8F0812DE9F04707460C469046E9
:10ABF0000026206848B3204641684968416000F15A
:10AC0000080142688A4202D141684968416041684E
:10AC1000D1F80C9000BF204641684968416000F1BE
:10AC2000080142688A4202D141684968416041682E
:10AC3000CD6806EBC60007EB80014346012228469B
:10AC4000FFF792FF761C4D45E5D13046BDE8F08711
:10AC50002DE9F04105468846164600240F27FFF7E8
:10AC6000A6FB88480068804539D300BF7F1E07EBEC
:10AC70008702864B03EB820104EBC40205EB8200E2
:10AC80000122FFF7B0FF0444002FEFD104EBC40111
:10AC900005EB810002227E490968FFF7A4FF044406
:10ACA00004EBC40105EB810002227A490968FFF731
:10ACB0009AFF044404EBC40105EB810004227649A9
:10ACC000FFF791FF044404EBC40105EB810003226C
:10ACD0007249FFF788FF04440EB100203060FFF78F
:10ACE000B8FA2046BDE8F08170B504460D4654B967
:10ACF00000BF502080F31188BFF34F8FBFF36F8FD9
:10AD000000BF00BFFEE7604801681831204600F030
:10AD100041FD01212846FFF70CFB70BD70B50446CC
:10AD20000D46164654B900BF502080F31188BFF37A
:10AD30004F8FBFF36F8F00BF00BFFEE7584800681A
:10AD400008B1012000E0002050B900BF502080F37E
:10AD50001188BFF34F8FBFF36F8F00BF00BFFEE7B7
:10AD600045F0004048490968886147480168183142
:10AD7000204600F003FD01213046FFF7DAFA70BDEE
:10AD800070B505460E46144655B900BF502080F3F5
:10AD90001188BFF34F8FBFF36F8F00BF00BFFEE777
:10ADA000394801681831284600F0E8FC0CB14FF032
:10ADB000FF3621463046FFF7BCFA70BD70B5064637
:10ADC000F068C46854B900BF502080F31188BFF305
:10ADD0004F8FBFF36F8F00BF00BFFEE704F1180075
:10ADE00000F0F2FC2E480068A8B9201D00F0ECFC31
:10ADF00094F82C10012088402A4909680843294901
:10AE00000860E16A01EB8101204A02EB8100211D0B
:10AE100000F0B4FC04E004F11801234800F0AEFC9B
:10AE20001949E06A0968C96A884204D901250120E4
:10AE30001E49086000E00025284670BD70B5054633
:10AE40000E461748006808B1012000E0002050B904
:10AE500000BF502080F31188BFF34F8FBFF36F8F77
:10AE600000BF00BFFEE723E07400002049444C45CA
:10AE7000000000001FAA0008700000205C000020F5
:10AE8000540000205000002040000020FCD1002091
:10AE9000440000204800002064D3002078D3002024
:10AEA000780000205800002050D3002064000020CB
:10AEB00046F000402860EC6854B900BF502080F391
:10AEC0001188BFF34F8FBFF36F8F00BF00BFFEE746
:10AED000284600F079FC201D00F076FC94F82C1038
:10AEE00001208840FE4909680843FD490860E16A7D
:10AEF00001EB8101FB4A02EB8100211D00F03EFCC9
:10AF0000F949E06A0968C96A884202D90120F7490B
:10AF1000086070BD10B5044654B900BF502080F3DE
:10AF20001188BFF34F8FBFF36F8F00BF00BFFEE7E5
:10AF3000FDF715FCEE4800682060EE480068606090
:10AF4000FDF734FC10BDEA4909680160E949096868
:10AF50004160704770B505460C4655B900BF50209A
:10AF600080F31188BFF34F8FBFF36F8F00BF00BF17
:10AF7000FEE754B900BF502080F31188BFF34F8F14
:10AF8000BFF36F8F00BF00BFFEE7FDF7E8FBD948B6
:10AF900002686868131A2068401C08B9002617E088
:10AFA000D34928680968884204D06868904201D86B
:10AFB00001260DE02068984207D92068C01A206059
:10AFC0002846FFF7C0FF002602E00020206001268F
:10AFD000FDF7ECFB304670BD0120C44908607047A6
:10AFE000014611B10A46506C00E00020704708B1DC
:10AFF000024651647047BC4908687047BE490968F9
:10B0000009B9012005E0BD49096809B9022000E03D
:10B010000020704770B505462C460026002D54D000
:10B02000B149E06A0968C96A884247D2A06900F05C
:10B03000004028B9AC480068C06AC0F10F00A061A8
:10B04000E16A01EB8101A74A02EB81016069884254
:10B0500001D1012000E0002050B3201D00F0B4FB1E
:10B0600078B9E06A00EB80009E4951F8200040B9B1
:10B0700094F82C1001208840994909688143984828
:10B08000016099480068C06AE06294F82C100120C1
:10B09000884093490968084391490860E16A01EBD7
:10B0A0008101904A02EB8100211D00F067FB03E063
:10B0B0008D480068C06AE062012606E08A49A06CFB
:10B0C0000968C96A884200D20126304670BD70B551
:10B0D00005462C460026002D55D083480068844242
:10B0E00001D1012000E0002050B900BF502080F3C2
:10B0F0001188BFF34F8FBFF36F8F00BF00BFFEE714
:10B10000E06C50B900BF502080F31188BFF34F8F1F
:10B11000BFF36F8F00BF00BFFEE7E06C401EE0642E
:10B12000A16CE06A88422ED0E06C60BB201D00F06C
:10B130004BFB78B9E06A00EB80006A4951F82000C7
:10B1400040B994F82C100120884065490968814372
:10B1500063480160A06CE062E06AC0F10F00A0618A
:10B1600094F82C10012088405D49096808435C4927
:10B170000860E16A01EB81015A4A02EB8100211D5E
:10B1800000F0FCFA0126304670BD2DE9F047064676
:10B190000F4634464FF00109002E67D0E06C50B9DD
:10B1A00000BF502080F31188BFF34F8FBFF36F8F24
:10B1B00000BF00BFFEE7A06CB84201D23D4600E0F0
:10B1C000A56CE06AA84251D0E06C01284ED14648F7
:10B1D0000068844201D0012000E0002050B900BF87
:10B1E000502080F31188BFF34F8FBFF36F8F00BFE4
:10B1F00000BFFEE7D4F82C80E562A06900F00040B3
:10B2000010B9C5F10F00A06108EB8801354A02EBC7
:10B2100081016069884201D1012000E0002028B34B
:10B22000201D00F0D1FA78B9E06A00EB80002D49CA
:10B2300051F8200040B994F82C100120884028498A
:10B24000096881432648016094F82C100120884049
:10B2500023490968084322490860E16A01EB81013A
:10B26000204A02EB8100211D00F088FABDE8F0873A
:10B270001D49096888691C490968C96AC1F10F013B
:10B28000194A1268916170471748006830B1164931
:10B29000096801F14C00C96C491C01601248006842
:10B2A000704770B506460D46FDF759FA0E4800681E
:10B2B000006D88B901200C49096881F854005DB11E
:10B2C00001212846FFF735F84FF080500C490860FF
:10B2D000BFF34F8FBFF36F8FFDF768FA12E00000E6
:10B2E00058000020FCD10020400000206400002015
:10B2F00068000020540000205C000020780000203E
:10B3000004ED00E0FDF72BFAFE480068046D4CB137
:10B3100026B10020FB490968086503E0601EF94971
:10B32000096808650020F749096881F85400FDF7AD
:10B330003DFA204670BD2DE9F04107468846144687
:10B340001D46FDF70CFAEF48006890F854000228FB
:10B3500018D0EC49096801F15000096DB94301604A
:10B360000120E849096881F854005DB101212846AF
:10B37000FEF7DFFF4FF08050E3490860BFF34F8FC7
:10B38000BFF36F8FFDF712FAFDF7E9F91CB1DD4845
:10B390000068006D2060DB48006890F854000228C7
:10B3A00001D0002608E0D749096801F15000096D75
:10B3B00021EA0801016001260020D249096881F8CC
:10B3C0005400FDF7F3F93046BDE8F0812DE9F04770
:10B3D00006460D46174698464FF0010A56B900BF7B
:10B3E000502080F31188BFF34F8FBFF36F8F00BFE2
:10B3F00000BFFEE73446FDF7B2F9B8F1000F02D006
:10B40000206DC8F8000094F85490022084F854008D
:10B41000052F17D2DFE807F01503070B0D00206D8D
:10B420002843206521E0206D401C20651DE0256536
:10B430001BE0B9F1020F01D0256501E04FF0000AD1
:10B4400013E012E0206D401C08B9012000E000204C
:10B4500050B900BF502080F31188BFF34F8FBFF366
:10B460006F8F00BF00BFFEE700BF00BFB9F1010F43
:10B4700033D1201D00F0A8F994F82C100120884049
:10B48000A24909680843A1490860E16A01EB81010A
:10B490009F4A02EB8100211D00F070F9A06A08B9F3
:10B4A000012000E0002050B900BF502080F3118837
:10B4B000BFF34F8FBFF36F8F00BF00BFFEE791490F
:10B4C000E06A0968C96A884207D94FF080508E49FE
:10B4D0000860BFF34F8FBFF36F8FFDF767F95046DA
:10B4E000BDE8F0872DE9F84F07460E46904699468D
:10B4F000DDF828B00120009057B900BF502080F33C
:10B500001188BFF34F8FBFF36F8F00BF00BFFEE7FF
:10B51000FDF780F93C4600BF5021EFF3118081F325
:10B520001188BFF34F8FBFF36F8F00BF0546B9F18E
:10B53000000F02D0206DC9F8000094F854A002203A
:10B5400084F85400B8F1050F17D2DFE808F01503AE
:10B55000070B0D00206D3043206521E0206D401C5D
:10B5600020651DE026651BE0BAF1020F01D02665BB
:10B5700001E00020009013E012E0206D401C08B9AB
:10B58000012000E0002050B900BF502080F3118856
:10B59000BFF34F8FBFF36F8F00BF00BFFEE700BF49
:10B5A00000BFBAF1010F3DD1A06A08B9012000E047
:10B5B000002050B900BF502080F31188BFF34F8F97
:10B5C000BFF36F8F00BF00BFFEE752480068A8B905
:10B5D000201D00F0F9F894F82C10012088404B4908
:10B5E0000968084349490860E16A01EB8101484A5A
:10B5F00002EB8100211D00F0C1F804E004F1180104
:10B60000454800F0BBF83F49E06A0968C96A8842CA
:10B6100008D9BBF1000F02D00120CBF800000120B7
:10B620003E49086000BF85F3118800BF0098BDE85F
:10B63000F88F2DE9F04105460F4655B900BF50205F
:10B6400080F31188BFF34F8FBFF36F8F00BF00BF30
:10B65000FEE7FDF7DFF82C4600BF5021EFF3118025
:10B6600081F31188BFF34F8FBFF36F8F00BF064682
:10B6700094F85480022084F85400206D401C20650A
:10B68000B8F1010F3AD1A06A08B9012000E000200A
:10B6900050B900BF502080F31188BFF34F8FBFF324
:10B6A0006F8F00BF00BFFEE71A480068A8B9201DD1
:10B6B00000F08AF894F82C1001208840134909689A
:10B6C000084312490860E16A01EB8101104A02EB6C
:10B6D0008100211D00F052F804E004F118010E4829
:10B6E00000F04CF80749E06A0968C96A884205D940
:10B6F0000FB10120386001200849086000BF86F3BF
:10B7000011880DE04000002004ED00E0580000200A
:10B71000FCD100207800002050D3002064000020DD
:10B7200000BFBDE8F08170B5054615B90A4800684C
:10B7300000E028460646FDF712F896F85400022865
:10B7400004D1002086F85400012400E00024FDF715
:10B750002DF8204670BD00004000002000F10801D7
:10B7600041604FF0FF31816000F10801C16001616B
:10B7700000210160704700210161704742684A6002
:10B7800093688B60936859609160086103685B1CE3
:10B790000360704710B502460B685C1C0CB9106959
:10B7A00007E002F1080000E04068446824689C4219
:10B7B000FAD944684C604C68A160886041600A61B5
:10B7C0001468641C146010BD01460A69D1E9013097
:10B7D0009860D1E9010358605068884201D18868B7
:10B7E0005060002008611068401E106010687047AB
:10B7F000002041490860091D0860091D0860091DF5
:10B8000008603E483C4914310860704700213A49BD
:10B810008279002A3AD00A46126803689A430B4696
:10B820001A600A1D126803689A430B1D1A60027998
:10B8300011440A6803681A430A602F4A08321268E2
:10B8400003689A432C4B08331A601A1D1268036868
:10B850009A43294B0C331A604279102A0ED11A1FD1
:10B86000126803681A43244B08331A601A1D1268C1
:10B8700003681A43204B0C331A600DE01E494279CD
:10B8800011440A6803681A430A6005E0027911440A
:10B890000A6803689A430A607047002101600171D9
:10B8A0000C214171002181717047134910310968E1
:10B8B0000143114A103211607047014600200E4AC0
:10B8C000143212680A400AB1012000E000207047DB
:10B8D000094914310860704701460020064A1432B5
:10B8E00012680A400AB1012000E0002070470249B6
:10B8F0001431086070470000003C0140FFFF7F00EA
:10B90000FE4A1070704730B1FC49096841F48071FB
:10B91000FA4A116005E0F949096821F48071F74A93
:10B920001160704730B1F549096841F40071F34A7C
:10B93000116005E0F149096821F40071EF4A1160D6
:10B94000704730B1ED49096841F48061EB4A1160FC
:10B9500005E0EA49096821F48061E84A116070470E
:10B96000E648006840F40060E44908607047E34836
:10B97000006840F48050E14908607047DF481030AB
:10B98000006800F0004028B1DD48DC49091D08606E
:10B99000DC4808607047D9481030006840F000402B
:10B9A000D6491031086070470920D4490C31096824
:10B9B00001F48031B1F5803F01D1012020E0CF4971
:10B9C0000C31096801F0100109B1062018E0CB49DB
:10B9D0000C31096801F4807109B1022010E0C749F7
:10B9E0000C31096801F0E00109B1072008E0C34902
:10B9F0000C31096801F0020109B1082000E00920BA
:10BA0000704708B509200090FFF7CEFF009002E0D4
:10BA1000FFF7CAFF00909DF800000128F8D09DF8BC
:10BA2000000008BD70B504460A460026092502B983
:10BA300009E0012A01D1160205E0022A01D116020D
:10BA400001E04FF44076FFF7DCFF0546092D2DD1CC
:10BA5000AA481030006820F44070A84910310860EE
:10BA600008460068304308600846006820F0F80087
:10BA700008600846006844F0020108439F491031FD
:10BA800008600846006840F480300860FFF7B9FF9E
:10BA900005469A481030006820F00200974910319E
:10BAA00008600846006820F0F8000860284670BD6D
:10BAB00030B5024600250924FFF7A3FF044602B96A
:10BAC00009E0012A01D1150205E0022A01D115027F
:10BAD00001E04FF44075092C23D1884810300068EC
:10BAE00020F44070854910310860084600682843FA
:10BAF000086008460068C91308438049103108608F
:10BB00000846006840F480300860FFF77AFF04467A
:10BB10007A481030006848F20401884377491031B0
:10BB20000860204630BD30B5024600250924FFF7E5
:10BB300068FF044602B909E0012A01D1150205E0B7
:10BB4000022A01D1150201E04FF44075092C20D1E1
:10BB50006A481030006820F440706849103108606D
:10BB600008460068284308600846006840F0040062
:10BB700008600846006840F480300860FFF741FF25
:10BB800004465E481030006820F004005B49103124
:10BB90000860204630BD30B5024600250924FFF775
:10BBA00030FF044602B909E0012A01D1150205E07F
:10BBB000022A01D1150201E04FF44075092C20D171
:10BBC0004E481030006820F440704C491031086035
:10BBD00008460068284308600846006840F40040B2
:10BBE00008600846006840F480300860FFF709FFED
:10BBF000044642481030006820F400403F491031AC
:10BC00000860204630BD70B5064614461D46092220
:10BC1000FFF7F7FE0246092A1ED1384810300068A7
:10BC200020F440703549103108600846006840F43F
:10BC3000407008600846006840F001000860346009
:10BC40007560FFF7DEFE02462C481030006820F0D9
:10BC500001002A4910310860104670BD30B5024617
:10BC60000C460925FFF7CDFE0546092D1DD12348B9
:10BC70001030006820F440702049103108600846F8
:10BC8000006840F4007008600846006840F0010059
:10BC900008601460FFF7B5FE0546184810300068CC
:10BCA00020F00100154910310860284630BD30B53C
:10BCB00002460C460925FFF7A4FE0546092D24D1AE
:10BCC0000E481030006820F440700C4910310860B4
:10BCD0000846006840F4807008600846006840F03C
:10BCE000010008601480FFF78CFE05460348103001
:10BCF000006820F001000149103105E0003C0240DD
:10BD000023016745AB89EFCD0860284630BD30B5CB
:10BD100002460C460925FFF774FE0546092D17D18A
:10BD20009A48006820F44070984908600846006806
:10BD300008600846006840F0010008601470FFF7D2
:10BD400060FE05469148006820F001008F490860B8
:10BD5000284630BD8D48001D006800F0010028B164
:10BD60008B488A49083908608A48086070478748C4
:10BD7000001D006840F001008449091D08607047FB
:10BD800030B502460C460925FFF73BFE0546092D56
:10BD900010D13CB17D48801D008890437B49891DAE
:10BDA000088007E07948801D008891B208437749F0
:10BDB000891D088030BD30B502460C460925FFF7C5
:10BDC00020FE0546092D10D13CB170480A3000888C
:10BDD00090436E490A31088007E06C480A300088B9
:10BDE00091B2084369490A31088030BDFF21674A92
:10BDF000D21D127802F07F0140EA0102634BDB1D85
:10BE00001A70704730B502460C460925FFF7F9FD58
:10BE10000546092D10D144B15C48801D008891B2BF
:10BE200008435A49891D088006E05848801D00884B
:10BE300090435649891D088030BD30B502460C46F6
:10BE40000925FFF7DEFD0546092D10D144B14F4805
:10BE50000A30008891B208434C490A31088006E054
:10BE60004A480A300088904348490A31088030BD6A
:10BE700010B502460924FFF7C4FD0446092C02D17F
:10BE80004248401D027010BDF0B504460D46FF2625
:10BE90000927FFF7B6FD0746092F0BD13B48001DC8
:10BEA000007800F01F0645EA06001043204337499A
:10BEB000091D0870F0BD3549091D097821F01001F0
:10BEC000324A121D117011460978014311707047F2
:10BED0002E49091D097821F00C012C4A121D117000
:10BEE0001146097801431170704700B509222748AF
:10BEF000001D007840F002002449091D0870FFF77A
:10BF000080FD0246104600BD2048001D0068C0F3B9
:10BF1000471070471D48801D008870471B480A3035
:10BF2000008870471948801D0088704717480A30FC
:10BF30000088704700201549491D0978AA2901D0B9
:10BF4000012000E0002070471048001D007800F03C
:10BF50000C00704729B10D4A126802430B4B1A605E
:10BF600004E00A4A12688243084B1A60704701468F
:10BF70000020064A121F12680A400AB1012000E0A0
:10BF8000002070470149091F08607047103C0240BB
:10BF90003B2A19087F6E5D4C10B5044698488442D0
:10BFA00008D10121084600F03BFE0021012000F0ED
:10BFB00037FE76E09348844208D10121022000F048
:10BFC0002FFE0021022000F02BFE6AE08E48844202
:10BFD00008D10121042000F023FE0021042000F0FC
:10BFE0001FFE5EE08948844208D10121082000F04C
:10BFF00017FE0021082000F013FE52E0844884421E
:10C0000008D10121102000F00BFE0021102000F0CB
:10C0100007FE46E07F48844208D10121202000F03D
:10C02000FFFD0021202000F0FBFD3AE07A48844229
:10C0300008D10121402000F0F3FD0021402000F054
:10C04000EFFD2EE07548844208D10121802000F0E8
:10C05000E7FD0021802000F0E3FD22E070488442EB
:10C0600008D10121801500F0DBFD0021A01500F0B2
:10C07000D7FD16E06B48844208D10121401500F03D
:10C08000CFFD0021601500F0CBFD0AE06648844238
:10C0900007D10121001500F0C3FD0021201500F09B
:10C0A000BFFD10BDF0B50A4600210023002400BFEB
:10C0B0003DE0012505FA01F3156805EA03049C42F9
:10C0C00034D105684F000326BE40B543056015799D
:10C0D0004E00B5400668354305601579012D02D044
:10C0E0001579022D16D185684F000326BE40B54351
:10C0F000856055794E00B540866835438560456852
:10C1000001268E40B5434560456896798E40B6B2AB
:10C1100035434560C5684F000326BE40B543C56042
:10C12000D5794E00B540C6683543C560491C102915
:10C13000BFD3F0BD4FF6FF71016000210171417165
:10C140008171C171704708B54FF480320092009A36
:10C150000A430092009AC261C161009AC261C26939
:10C160000092C269009208BD0246002013690B408C
:10C170000BB1012000E0002070470146086980B241
:10C1800070470246002053690B400BB1012000E0CC
:10C19000002070470146486980B2704701837047AC
:10C1A000418370470AB1018300E0418370474161D8
:10C1B000704742694A4042617047F0B5002300244D
:10C1C0004D07ED0E02FA05F3CE1000F1200555F8EB
:10C1D00026504E07F70E0F26BE40B543CF1000F194
:10C1E000200646F82750CE1000F1200555F82650BD
:10C1F00045EA0304CE1000F1200545F82640F0BDC5
:10C20000000002400004024000080240000C02400E
:10C21000001002400014024000180240001C0240BE
:10C220000020024000240240002802400E4908601D
:10C2300070470D49486070470B49886070474AF65F
:10C24000AA200949086070474CF6CC4006490860AE
:10C25000704701460020044AD2680A400AB1012012
:10C2600000E00020704700000030004010B50121C0
:10C27000080700F008FD00214FF0805000F003FD9A
:10C2800010BD57490862704701460020554A1068A2
:10C2900020F0E00008431060704751490861704782
:10C2A0004F49A031086070474D49A431086070477C
:10C2B000014600204B4A106820F4404008431060BB
:10C2C000704747490864704745494864704730B132
:10C2D0004449096841F44021424A116005E041495E
:10C2E000096821F440213F4A1160704718B10121CB
:10C2F0003B4AD16202E00021394AD162704718B14D
:10C300000121374A916202E00021354A916270476B
:10C3100033494862704710B502460020314B186817
:10C3200040F60343984310432E4B18602E4B1B6876
:10C3300043F004032C4C2360012901D130BF00E0FD
:10C3400020BF294B1B6823F00403274C236010BD3A
:10C3500010B502460020234B186840F6034398436B
:10C360001043204B1860204B1B6843F004031E4C05
:10C370002360012901D130BF00E020BF1A4B1B68A8
:10C3800023F00403184C236010BD1648006840F0E9
:10C390000200144908601448006840F00400124983
:10C3A000086000BF00BF30BF7047014600200D4A43
:10C3B00052680A400AB1012000E000207047B0F541
:10C3C000402F06D00749096841EA8001054A1160FB
:10C3D00005E00449496841F44021024A5160704730
:10C3E00000000E420070004010ED00E0016821F0F6
:10C3F000010101600021016041608160C160016153
:10C4000021214161DB49884204D13D21D94A103ABA
:10C4100091608CE0D7491831884205D14FF474619E
:10C42000D44A103A916082E0D2493031884205D135
:10C430004FF47411CF4A103A916078E0CD494831F9
:10C44000884205D14FF07461CA4A103A91606EE09B
:10C45000C8496031884204D1C749C64A103AD16000
:10C4600065E0C4497831884204D1C449C14A103AD0
:10C47000D1605CE0BF499031884204D1C049BD4AD7
:10C48000103AD16053E0BB49A831884205D14FF042
:10C490003D51B84A103AD16049E0BA49884204D1C6
:10C4A0003D21B84A083A116041E0B6491831884246
:10C4B00005D14FF47461B34A083A116037E0B149CD
:10C4C0003031884205D14FF47411AE4A083A1160F8
:10C4D0002DE0AC494831884205D14FF07461A94A3A
:10C4E000083A116023E0A7496031884204D1A2498B
:10C4F000A44A121F11601AE0A2497831884204D17F
:10C500009E49A04A121F116011E09E499031884255
:10C5100004D19B499B4A121F116008E09949A83138
:10C52000884204D14FF03D51964A121F1160704766
:10C5300010B500220268944B1A40CC680B68234364
:10C540004C6923438C692343CC6923430C6A2343FE
:10C550004C6A23438C6A23434C6B23438C6B2343E9
:10C560001A430260426922F00702D1E90B342343E7
:10C570001A4342610B6943604B6883608B68C360F8
:10C5800010BD0021016041608160C16001614161B5
:10C590008161C161016241628162C1620163416383
:10C5A0008163704721B1026842F00102026003E03A
:10C5B000026822F001020260704721B1026842F471
:10C5C0000042026003E0026822F400420260704709
:10C5D00021B1026842F02002026003E0026822F00A
:10C5E000200202607047416070470146486880B28F
:10C5F000704722B1036843F40023036003E003683B
:10C6000023F4002303600161704721B1026842F402
:10C610008022026003E0026822F4802202607047F8
:10C620000AB1016100E0C1607047014600200A685C
:10C6300002F400220AB1012000E000207047014608
:10C6400000200A6802F001020AB1012000E0002087
:10C650007047014600204A6902F03800704730B543
:10C6600003460A4600200024464DAB4202D241490F
:10C67000103901E04349103902F000550DB14C6802
:10C6800000E00C68414D2C4004EA02050DB1012088
:10C6900000E0002030BD02463A4B9A4202D23548B3
:10C6A000103801E03748103801F000531BB1374B08
:10C6B0000B40C36002E0354B0B408360704710B500
:10C6C00001F080034BB122B1436943F08003436121
:10C6D00003E0436923F08003436180290BD02AB132
:10C6E000036801F01E042343036004E0036801F0C3
:10C6F0001E04A343036010BD70B502460020002451
:10C700000025204EB24202D21A4B103B01E01D4BD5
:10C71000103B1F4E0E4036B11E2606EAD124166885
:10C7200006EA040502E0566906F0800501F00056AD
:10C730000EB15C6800E01C68144E344004EA010647
:10C7400016B10DB1012000E0002070BD02460D4B76
:10C750009A4202D20748103801E00A48103801F026
:10C7600000531BB1094B0B40C36002E0074B0B4069
:10C7700083607047106002403D000020400F0020A1
:10C7800000003D20106402403F801CF07D0F7D0FB3
:10C790003C0F3C0FF648006840F00100F449086087
:10C7A0000020F34908310860F1480068F149084069
:10C7B000EF490860F048091D0860F048EC498431F1
:10C7C0000860ED481038091D0860E948006820F449
:10C7D0008020E74908600020E5490C310860E44901
:10C7E0008C31086070470021E14A921C117011469B
:10C7F0000870704710B501460022002300204A113E
:10C80000012A02D1DA4C236808E0022A03D1D84C6D
:10C810007034236802E0D64C7434236801F01F02A0
:10C82000012494401C400CB1012000E0002010BD08
:10C8300038B5002000900024002500BF3120FFF70C
:10C84000D9FF05460098401C00900098B0F5A04F15
:10C8500001D0002DF2D03120FFF7CCFF08B1012428
:10C8600000E00024204638BD01460020C04A106880
:10C8700020F0F80040EAC10010607047C04908602D
:10C8800070470021BA4A703211701170012802D02D
:10C8900004280AD104E00121B54A7032117005E084
:10C8A0000521B34A7032117000E000BF00BF70472D
:10C8B000B4490860704770B5049C41EA82150126AE
:10C8C000C6EB530645EA0645054345EA0465A84E0E
:10C8D000361D356070BDAA490866704710B58301E2
:10C8E00043EA016343EA0273A14C8434236010BD20
:10C8F000A3498866704710B5830143EA016343EAA0
:10C9000002739B4C8834236010BD9D4908677047B3
:10C910009B49C864704702460020954B083318684D
:10C9200020F0EC6042EA01031843914B0833186091
:10C930007047024600208E4B0833186820F078407C
:10C9400042EA010318438A4B0833186070470146D6
:10C950000020874A0832106820F003000843106066
:10C96000704783480830006800F00C0070470146AB
:10C9700000207F4A0832106820F0F0000843106061
:10C980007047014600207A4A0832106820F4E050CF
:10C9900008431060704701460020754A083210684D
:10C9A00020F4604040EAC10010607047F0B50021FB
:10C9B000002200240225002602236D4F08373F681D
:10C9C00007F00C0121B1042905D0082937D105E071
:10C9D0006D4F076036E06D4F076033E0644F3F1DD9
:10C9E0003F68C7F38056624F3F1D3F6807F03F0323
:10C9F0006EB1664FB7FBF3F7DFF874C10CF1040CAE
:10CA0000DCF800C0CCF3881C07FB0CF40CE05E4F94
:10CA1000B7FBF3F7DFF858C10CF1040CDCF800C0E9
:10CA2000CCF3881C07FB0CF4514F3F1D3F68C7F344
:10CA300001477F1C7D00B4FBF5F7076002E0524F11
:10CA4000076000BF00BF4A4F08373F6807F0F0019A
:10CA500009094F4F7A5C0768D7404760444F083751
:10CA60003F6807F4E051890A494F7A5C4768D7402C
:10CA700087603F4F08373F6807F46041490B444FD8
:10CA80007A5C4768D740C760F0BD002100F440726F
:10CA9000B2F5407F0AD1364A0832116821F4F81104
:10CAA0003C4A02401143324A08321160304A703227
:10CAB0001268C0F30B031A432D4B70331A60704792
:10CAC00030494439086070472E4940390860704742
:10CAD00031490860704701460020254A8C321068B1
:10CAE00020F4401008431060704701460020204A9F
:10CAF0008C32106820F440000843106070470146F3
:10CB000000201B4A8C32106820F01F004A1E104380
:10CB1000174A8C321060704701460020144A8C324C
:10CB2000106820F4F8504A1E40EA0220104A8C3265
:10CB300010607047014600200D4A8C32106820F4C6
:10CB4000403008431060704714490860704739B19D
:10CB5000074A303212680243054B30331A6006E050
:10CB6000034A303212688243014B30331A607047F7
:10CB700000380240FFFFF6EA1030002400300020A9
:10CB800000004742800E47420024F40000127A0061
:10CB90007C000020FFFCFF0F5C014742E011474290
:10CBA00029B1934A12680243914B1A6004E0904AFB
:10CBB000126882438E4B1A60704739B18C4A121D3D
:10CBC000126802438A4B1B1D1A6006E0884A121D38
:10CBD00012688243864B1B1D1A60704739B1844A24
:10CBE0000C3212680243824B0C331A6006E0804A12
:10CBF0000C32126882437E4B0C331A60704739B195
:10CC00007B4A103212680243794B10331A6006E0F7
:10CC1000774A103212688243754B10331A6070479E
:10CC200039B1734A243A12680243714B243B1A60AB
:10CC300006E06F4A243A126882436D4B243B1A6027
:10CC4000704739B16A4A203A12680243684B203B68
:10CC50001A6006E0664A203A12688243644B203B21
:10CC60001A60704739B1624A1C3A12680243604B3D
:10CC70001C3B1A6006E05E4A1C3A126882435C4B19
:10CC80001C3B1A60704739B1594A143A1268024382
:10CC9000574B143B1A6006E0554A143A1268824317
:10CCA000534B143B1A60704739B1514A103A12681D
:10CCB00002434F4B103B1A6006E04D4A103A12688F
:10CCC00082434B4B103B1A60704739B1484A1C32C3
:10CCD00012680243464B1C331A6006E0444A1C3279
:10CCE00012688243424B1C331A60704739B1404A84
:10CCF0002032126802433E4B20331A6006E03C4A61
:10CD00002032126882433A4B20331A60704739B19F
:10CD1000374A243212680243354B24331A6006E046
:10CD2000334A243212688243314B24331A607047ED
:10CD300039B12F4A2C32126802432D4B2C331A6022
:10CD400006E02B4A2C3212688243294B2C331A609E
:10CD5000704739B1264A303212680243244B3033CF
:10CD60001A6006E0224A303212688243204B303388
:10CD70001A607047012808D11D493C31096841F00B
:10CD800008011B4A3C32116007E019493C3109682F
:10CD900021F00801164A3C321160704739B1144A3B
:10CDA000273A12780243124B273B1A7006E0104ACA
:10CDB000273A127882430E4B273B1A7070470C4873
:10CDC0004030006840F08070094940310860704789
:10CDD00001460020064A283A12680A400AB101209A
:10CDE00000E00020704702492639087070470000B3
:10CDF0003438024008B50022009200200021CA22E7
:10CE0000F94B1A6053221A60F74A183A126822F056
:10CE1000A002F54B183B1A6000BFF34A183A12689B
:10CE200002F02001009A521C0092009AB2F5003FD5
:10CE300001D00029F1D0EC4A183A126802F0200221
:10CE40000AB1012000E00020FF22E74B1A6008BD74
:10CE500008B50022009200200021E34A183A126827
:10CE600002F04002E2B9421EDF4B183B1A6000BFDD
:10CE7000DD4A183A126802F04001009A521C0092F2
:10CE8000009AB2F5803F01D00029F1D0D64A183A75
:10CE9000126802F040020AB1012002E0002000E026
:10CEA000012008BD38B50020009000240025CA20CC
:10CEB000CD49086053200860FFF7CAFF00B952E06F
:10CEC0000020C9492439086042F20110091D086098
:10CED000081D006800F00700091D086000BFC24877
:10CEE0001838006800F004040098401C0090009876
:10CEF000B0F5803F01D0002CF1D0BB481838006855
:10CF000000F0040008B900252DE0B7481C3800687F
:10CF10000020B5491C3908604FF6FF70B24910393E
:10CF20000860B248091F08600020AF490C3908604A
:10CF3000091D0860091D0860AB4908310860AA494D
:10CF400018310860A84920310860091D0860A64909
:10CF500018390860A4491C310860FFF74BFF08B975
:10CF6000002500E00125FF209F490860284638BDC4
:10CF70009D481838006820F080009B4918390860E7
:10CF8000704730B504460025CA20974908605320F1
:10CF90000860FFF75DFF00B91DE093481C3800688A
:10CFA00020F0400090491C3908600846006821685C
:10CFB00008438D491C3908608B491439A068086002
:10CFC00008460068A18840EA014087491439086092
:10CFD000FFF7CEFF0125FF2083490860284630BDBA
:10CFE000002101607F214160FF218160704718B1FD
:10CFF000FF217D4A116004E0CA217B4A1160532160
:10D000001160704730B504460025CA207649086093
:10D0100053200860FFF71CFF00B914E044B17248C8
:10D020001C38006840F010006F491C39086007E0A8
:10D030006D481C38006820F010006B491C390860EE
:10D04000FFF796FF0125FF2067490860284630BD9D
:10D05000CA21654A11605321116040B162491C39EF
:10D06000096841F02001604A1C3A116007E05E49FE
:10D070001C39096801F0DF015B4A1C3A1160FF218D
:10D08000594A116070470146002204E0501CC2B2A8
:10D09000A1F10A00C1B20A29F8DA100741EA1060CA
:10D0A0007047014600BF080900EB8000420001F014
:10D0B0000F001044C0B270472DE9F04105460C4600
:10D0C0000026002755B948481C38006800F0400089
:10D0D00000B102E00020E07000BF0EE042481C38C2
:10D0E000006800F0400020B12078FFF7DAFF064624
:10D0F00002E00020E07000BF00BF55B120780004BE
:10D10000617840EA0120A1780843E17840EA0146CD
:10D1100011E02078FFF7B7FF4FEA00486078FFF78B
:10D12000B2FF48EA0028A078FFF7ADFF48EA000800
:10D13000E07848EA0046CA202B490860532008607E
:10D14000FFF786FE08B9002714E029483040264939
:10D1500024390860FFF70CFF23481C38006800F0F2
:10D16000200030B9FFF746FE08B9002702E001278A
:10D1700000E00127FF201C4908603846BDE8F08127
:10D180000021C170017041708170704770B5064612
:10D190000C460025144824380068154900EA0105AA
:10D1A000C5F305402070C5F30620607005F07F00D0
:10D1B000A07005F48000000CE0705EB92078FFF7E5
:10D1C00070FF20706078FFF76CFF6070A078FFF749
:10D1D00068FFA07070BD00200349091D086802495E
:10D1E000203909687047000024280040FF007F00B4
:10D1F0007F7F7F002DE9F04105460C460026002781
:10D200004DB9607800F01000102804D1607820F04B
:10D2100010000A30607005B908E06078FFF741FF40
:10D220000646A078FFF73DFF064600BF55B1E078FF
:10D230000004617840EA0120A1780843217840EA9F
:10D24000413611E0E078FFF71EFF4FEA00486078B2
:10D25000FFF719FF48EA0028A078FFF714FF48EA13
:10D260000008207848EA4036CA20FE49086053206A
:10D270000860FFF7EDFD08B9002714E0FA483040D8
:10D28000F84920390860FFF773FEF6481C3800683B
:10D2900000F0200030B9FFF7ADFD08B9002702E02B
:10D2A000012700E00127FF20EE4908603846BDE86D
:10D2B000F08101210170817041700021C1707047BF
:10D2C00070B506460C460025E64820380068E64959
:10D2D00000EA0105280CE070C5F30420607005F039
:10D2E0003F00A070C5F3423020705EB9E078FFF7D0
:10D2F000D8FEE0706078FFF7D4FE6070A078FFF78A
:10D30000D0FEA07070BD2DE9F04105460E461446D2
:10D3100000276DB9D3481C38006800F0400000B108
:10D3200002E00020E07000BFA06800B91AE019E038
:10D33000CC481C38006800F0400020B12078FFF78E
:10D34000B0FE074602E00020E07000BFA06820B9F0
:10D35000207BFFF7A6FE074604E0207BFFF7A1FE37
:10D36000074600BF95B120780004617840EA0120AB
:10D37000A1780843E17840EA0140217B40EA01605E
:10D38000A1680843616840EA01071BE02078FFF7C5
:10D390007AFE4FEA00486078FFF775FE48EA0028F9
:10D3A000A078FFF770FE48EA0008E07848EA0048F5
:10D3B000207BFFF768FE48EA0060A16808436168C7
:10D3C00040EA0107CA20A749086053200860B6F563
:10D3D000807F03D1A3480838076002E0A148001FFE
:10D3E0000760FF209F490860BDE8F0810021C170FF
:10D3F00001704170817081600121017300214160E1
:10D4000070472DE9F04106460F4614460025B7F552
:10D41000807F03D193480838056802E09148001FD7
:10D420000568C5F305402070C5F30620607005F05F
:10D430007F00A07005F48000000CE070C5F305606B
:10D44000207305F08040A06005F0803060607EB9F8
:10D450002078FFF726FE20706078FFF722FE6070CC
:10D46000A078FFF71EFEA070207BFFF71AFE207346
:10D47000BDE8F08138B50246002400940023002066
:10D48000CA24784D2C6053242C6041B1754C1C3C4F
:10D4900024681443734D1C3D2C6001201EE0714C28
:10D4A0001C3C246894436F4D1C3D2C6000BF6D4CA8
:10D4B000183C246804EA1223009C641C0094009C1D
:10D4C000B4F5803F01D0002BF1D0664C183C2468A5
:10D4D00004EA12240CB9002000E00120FF24614D71
:10D4E0002C6038BD30B50023CA245E4D2C60532417
:10D4F0002C6041EA0203B0F5807F03D1594C2034FF
:10D50000236002E0574C24342360FF24554D2C60E7
:10D5100030BD01460020B1F5807F05D1514A20324F
:10D520001268C2F30E0004E04E4A24321268C2F3BD
:10D530000E007047CA214B4A1160532111604949BE
:10D540001C39096821F00701464A1C3A116011464E
:10D55000096801431160FF21424A11607047CA21E6
:10D56000404A1160532111603E4910390860FF2183
:10D57000116070473B481038006880B2704718B59A
:10D5800001460023009300220020CA23354C23606B
:10D590005323236049B1334B1C3B1B6843F4806326
:10D5A000304C1C3C236001201FE02E4B1C3B1B68B1
:10D5B00023F480632B4C1C3C236000BF294B183B99
:10D5C0001B6803F00402009B5B1C0093009BB3F5F7
:10D5D000803F01D0002AF1D0224B183B1B6803F09A
:10D5E00004030BB9002000E00120FF231D4C236041
:10D5F00018BDCA221B4B1A6053221A60194A1C3AE2
:10D60000126822F48022174B1C3B1A601A461268DB
:10D6100040EA01031A43134B1C3B1A60FF22114BD3
:10D620001A6070470F481C38006800F4802070476B
:10D63000CA220C4B1A6053221A600A4A1C3A12681A
:10D6400022F4E002074B1C3B1A601A46126840EABB
:10D6500001031A43034B1C3B1A60FF22014B1A6063
:10D6600070470000242800403FFFFF0070B50446CB
:10D670000D460026CA20F649086053200860FFF7CF
:10D68000E7FB00B907E044EA0500F1490C390860FE
:10D69000FFF76EFC0126FF20ED490860304670BDA3
:10D6A00030B504460025CA20E949086053200860C7
:10D6B000FFF7CEFB00B914E044B1E5481C38006820
:10D6C00040F08000E2491C39086007E0E0481C385F
:10D6D000006820F08000DE491C390860FFF748FC34
:10D6E0000125FF20DA490860284630BDCA21D84A02
:10D6F00011605321116040B1D5491C39096841F4CA
:10D700000001D34A1C3A116007E0D1491C3909686D
:10D7100021F40001CE4A1C3A1160FF21CC4A11606D
:10D720007047CA21CA4A116053211160C8491C3987
:10D73000096821F40021C64A1C3A116011460968A3
:10D7400001431160FF21C24A1160704770B5034662
:10D7500000200024CA25BE4E356053253560BC4DDF
:10D76000183D2D6805F4803555B100E0641CB84DB6
:10D77000183D2D6805F4803515B1B4F5003FF5D19D
:10D78000B34D183D2D6805F480353DB943EA0105D8
:10D790001543AF4E18363560012000E00020FF250C
:10D7A000AB4E356070BD10B50A460021A84B1C3B3E
:10D7B0001B6840F6080423EA04011AB140F4006330
:10D7C000194300E00143CA23A14C23605323236083
:10D7D0009F4B1C3B1960FF23236010BD2DE9F041D6
:10D7E00080460C4615460026002799480C300068F4
:10D7F000984900EA0106964810300068964900EA08
:10D800000107C6F305402070C6F30620607006F0DD
:10D810007F00A07006F48000000CE0700020E8702B
:10D82000C7F30420687007F03F00A870C7F34230C8
:10D830002870B8F1000F17D12078FFF732FC207064
:10D840006078FFF72EFC6070A078FFF72AFCA070CC
:10D850006878FFF726FC6870A878FFF722FCA870AC
:10D860002878FFF71EFC2870BDE8F0817848143056
:10D870000068704741B9764A1C32126822EA4002B9
:10D88000734B1C331A6007E0714A1C32126842EA7B
:10D8900040026F4B1C331A60704739B16C4A1C321E
:10D8A000126802436A4B1C331A6006E0684A1C3255
:10D8B00012688243664B1C331A60704764491C31FE
:10D8C000096821F4C051624A1C321160114609688E
:10D8D0000143116070475E491C31096821F4E06121
:10D8E0005B4A1C32116011460968014311607047A0
:10D8F00057491C31096821F4C041554A1C32116056
:10D900001146096801431160704740B150491C310C
:10D91000096841F080014E4A1C32116007E04C4911
:10D920001C31096821F08001494A1C32116070479E
:10D9300040B147491C31096821F40041444A1C3276
:10D94000116007E042491C31096841F40041404A36
:10D950001C321160704708B5002200923C4A2C32FC
:10D960000092009A02EB80020092009A116008BDBA
:10D9700008B501460020009035482C3000900098F2
:10D9800000EB810000900098006808BD30491C3110
:10D99000096821F480312E4A1C3211601146096851
:10D9A0000143116070472A491C31096821F4003194
:10D9B000274A1C3211601146096801431160704703
:10D9C00023491C31096821F48021214A1C3211604D
:10D9D00011460968014311607047F0B504460D46D1
:10D9E00000270026CA201A490860532008601848FA
:10D9F0001838006800F0080050B100E0761C1448A8
:10DA00001838006800F0080010B1B6F5805FF5D155
:10DA10000F481838006800F0080098B90C481C3806
:10DA2000006800F0100058B945EA040008490831C0
:10DA30000860FFF7DFF908B9002704E0012702E0DA
:10DA4000002700E00027FF20014908603846F0BDAC
:10DA5000242800407F7F7F003FFFFF00CA223D4B0C
:10DA60001A6053221A6091B13A4A1C3A126820F0A7
:10DA700004031A43374B1C3B1A60364A1C321268A7
:10DA800000F004031A43334B1C331A6011E0314A8F
:10DA90001C3A126820F004039A432E4B1C3B1A6078
:10DAA0002C4A1C32126800F004039A43294B1C33A1
:10DAB0001A60FF22274B1A60704710B501460020FC
:10DAC0000022244B183B1B68234C03EA040202EAA1
:10DAD00001030BB1012000E0002010BD81B241F034
