:020000040800F2
:10000000F017002091010008450F000819090008A9
:10001000410F00088D02000845170008000000008D
:10002000000000000000000000000000DB120008DB
:100030001506000800000000A7010008A90100083B
:10004000AB010008AB010008AB010008AB010008E0
:10005000AB010008AB010008AB010008AB010008D0
:10006000AB010008AB010008AB010008AB010008C0
:10007000AB010008AB010008AB010008AB010008B0
:10008000AB01000805030008AB010008AB01000844
:10009000AB010008AB010008AB010008AB01000890
:1000A000AB010008AB010008AB010008AB01000880
:1000B000AB010008AB010008AB010008AB01000870
:1000C000AB010008AB010008AB010008AB01000860
:1000D000AB0100081514000839140008AB01000832
:1000E000AB010008AB010008AB01000800F002F80A
:1000F00000F03AF80AA090E8000C82448344AAF188
:100100000107DA4501D100F02FF8AFF2090EBAE885
:100110000F0013F0010F18BFFB1A43F0010318473B
:10012000C8190000E8190000103A24BF78C878C147
:10013000FAD8520724BF30C830C144BF04680C60ED
:10014000704700000023002400250026103A28BF35
:1001500078C1FBD8520728BF30C148BF0B60704739
:100160001FB51FBD10B510BD00F05EF81146FFF7BA
:10017000F7FF01F0B1FB00F07CF803B4FFF7F2FFEA
:1001800003BC01F0E1FA000080F30888704700002A
:100190000948804709480047FEE7FEE7FEE7FEE71B
:1001A000FEE7FEE7FEE7FEE7FEE7FEE70448054957
:1001B000054A064B70470000B5130008ED00000823
:1001C000F0110020F0170020F0130020F0130020A1
:1001D00070474FF0000200B513469446964620390A
:1001E00022BFA0E80C50A0E80C50B1F12001BFF4F0
:1001F000F7AF090728BFA0E80C5048BF0CC05DF856
:1002000004EB890028BF40F8042B08BF704748BFA3
:1002100020F8022B11F0804F18BF00F8012B704717
:100220007047704770477047754600F02BF8AE4630
:1002300005006946534620F00700854618B020B5F2
:10024000FFF7B4FFBDE820404FF000064FF0000775
:100250004FF000084FF0000B21F00701AC46ACE86E
:10026000C009ACE8C009ACE8C009ACE8C0098D46DB
:10027000704710B50446AFF300802046BDE810403B
:10028000FFF77BBF004870478C11002000BFFEE7DE
:10029000F0B504460D4614B94FF0FF3600E026686D
:1002A0003046294608E011F8016B4640F6B2064F89
:1002B00057F8266086EA1020161EA2F10107BAB28E
:1002C000F1D103B1C043F0BD44080020002111E08A
:1002D0000846002208E000F001031BB1074B83EA47
:1002E000500000E04008521C082AF4D3044B43F8A5
:1002F0002100491CFF29EBD9704700002083B8ED8D
:100300004408002010B54FF0007000F0D9F868B133
:100310004FF0007000F010F80021054800F01AF8C6
:10032000012240F22661034801F068F910BD000087
:10033000800002400044004000F0805111B10349A8
:10034000086001E002494860704700000404024070
:100350000000024021B1026842F00102026004E0A4
:1003600002684FF6FE731A400260704701684FF64C
:10037000FE72114001600021016041608160C16036
:100380004B49884208D14A490839496841F00F0170
:10039000474A083A51608AE045491431884208D1F9
:1003A00043490839496841F0F001414A083A51602F
:1003B0007DE03F492831884208D13D4908394968E4
:1003C00041F470613A4A083A516070E038493C3172
:1003D000884208D136490839496841F47041344AA5
:1003E000083A516063E032495031884208D13049BF
:1003F0000839496841F470212D4A083A516056E0A5
:100400002B496431884208D129490839496841F4A7
:100410007001274A083A516049E0254978318842FD
:1004200008D123490839496841F07061204A083AE7
:1004300051603CE01F49884206D1011F096841F024
:100440000F01021F116032E01A491431884208D1AD
:100450001849091F096841F0F001164A121F11607E
:1004600025E014492831884208D11249091F09683A
:1004700041F470610F4A121F116018E00D493C31C0
:10048000884208D10B49091F096841F47041094AA3
:10049000121F11600BE007495031884207D105490E
:1004A000091F096841F47021024A121F1160704748
:1004B00008000240080402400146486880B27047C4
:1004C00001460020002201F0805313B1054B1A6849
:1004D00001E0054B1A6802EA01030BB1012000E0BC
:1004E0000020704700040240000002401AB1036877
:1004F0000B43036002E003688B430360704710B551
:100500000022026847F6F0739A430C6A8B68234313
:100510000C6923434C6923438C692343CC692343EF
:100520004C6A23438C6A23431A430260CB684360BE
:100530000B6883604B68C36010BD4160704700006A
:1005400000B58DB00121084600F04CFD2D48FFF7A5
:100550000DFF2D4801902D4802900020039040F29D
:1005600032400490002005908020069000200790E3
:10057000089009904FF440500A9000200B9001A978
:100580002048FFF7BCFF01211E48FFF7E3FE1D488E
:100590001430FFF7EBFE1C4801901D48029010201C
:1005A0000390000104900020059080200690002018
:1005B0000790089009904FF400500A9000200B908B
:1005C00001A910481430FFF79AFF012202210D48BB
:1005D0001430FFF78BFF00210A481430FFF7BAFEF2
:1005E00011208DF8300002208DF8310000208DF8A8
:1005F000320001208DF833000CA800F0B1FC0DB0E2
:1006000000BD00006C00024004440040580C002073
:100610008A1000207047000030B5044604254FF4CE
:10062000302000F06FF80546042D17D10C48006902
:1006300040F002000A49086108464461006940F040
:10064000400008614FF4302000F05CF80546044893
:10065000006941F6FD71084001490861284630BD36
:100660000020024004200B49C96801F0010109B1D2
:1006700001200EE00749C96801F0040109B1022018
:1006800007E00449C96801F0100109B1032000E046
:1006900004207047002002400348006940F08000B9
:1006A00001490861704700000020024070B504460F
:1006B0000D460426F00200F025F80646042E11D15E
:1006C0000948006940F00100074908612580F002EF
:1006D00000F018F806460448006941F6FE7108402B
:1006E00001490861304670BD0020024002480349BC
:1006F0004860034848607047230167450020024076
:10070000AB89EFCD00B502460423FFF7ABFF0346EC
:1007100003E0FFF7A7FF0346521E012B01D1002A79
:10072000F7D102B90523184600BD00002DE9F047B6
:1007300005460C461646A0274FEA252805F0FF0976
:1007400000F070F9384600F011F9404600F00EF95B
:10075000484600F00BF900F065F947F0010000F0A1
:1007600005F90F48006820F070400D490860084600
:10077000006840F00040086007E000F0CFF820700B
:10078000641C00F089FB701E86B2012EF5DC00F0BF
:10079000C5F8207000F0B0FB00F062F9BDE8F0870A
:1007A000000C01402DE9F04704460D461646A027EF
:1007B0004FEA242804F0FF0900F034F9384600F02D
:1007C000D5F8404600F0D2F8484600F0CFF805E0F2
:1007D00015F8010B00F0CAF8701E86B2002EF7DC87
:1007E00000F03EF9BDE8F0872DE9F0410246002512
:1007F0000026002000230024002791F803C00CF0FD
:100800000F0591F803C00CF0100CBCF1000F03D0E1
:1008100091F802C04CEA050591F800C0BCF1000F48
:1008200031D0146800202BE04FF0010C0CFA00F3DB
:10083000B1F800C00CEA03069E4220D183004FF0BD
:100840000F0C0CFA03F7BC4305FA03FC4CEA040452
:1008500091F803C0BCF1280F06D14FF0010C0CFA3F
:1008600000FCC2F814C00AE091F803C0BCF1480FC4
:1008700005D14FF0010C0CFA00FCC2F810C0401C6E
:100880000828D1D31460B1F800C0BCF1FF0F34DDEB
:10089000546800202EE000F1080C4FF0010808FA1F
:1008A0000CF3B1F800C00CEA03069E4221D183008C
:1008B0004FF00F0C0CFA03F7BC4305FA03FC4CEAAB
:1008C000040491F803C0BCF1280F05D100F1080C15
:1008D00008FA0CF8C2F8148091F803C0BCF1480F74
:1008E00007D100F1080C4FF0010808FA0CF8C2F823
:1008F0001080401C0828CED35460BDE8F081024629
:10090000002093680B400BB1012000E000207047ED
:10091000416170470161704700BFFEE770B5002478
:1009200000251CE00A2000F0B1FA40210E48FFF734
:10093000F1FF0A2000F0AAFA6006040E80210A489E
:10094000FFF7DDFF012802D144F0010401E004F0CB
:10095000FE0440210448FFF7DBFF681CC5B2082DE8
:10096000E0DB204670BD0000000C014070B505467C
:100970000026002420E005FA04F000F0800020B1F9
:1009800080212748FFF7C6FF03E080212448FFF7B6
:10099000BFFF0A2000F07AFA40212148FFF7BAFF92
:1009A0000A2000F073FA40211D48FFF7B1FF0A202A
:1009B00000F06CFA601CC4B2082CDCDB8021184803
:1009C000FFF7A8FF0A2000F061FA1548006820F040
:1009D0007040134908600846006840F00040086015
:1009E00040210F48FFF796FF0A2000F04FFA8021C0
:1009F0000B48FFF784FF064640210948FFF788FFB0
:100A00000A2000F043FA0648006820F070400449CC
:100A100008600846006840F040500860304670BDED
:100A2000000C014010B580210C48FFF773FF4021F6
:100A30000A48FFF76FFF0A2000F028FA80210748D4
:100A4000FFF766FF0A2000F021FA40210348FFF774
:100A50005FFF0A2000F01AFA10BD0000000C0140F0
:100A600010B580210748FFF753FF40210548FFF7E5
:100A700051FF0A2000F00AFA80210248FFF74AFFDE
:100A800010BD0000000C014008B50121082000F055
:100A9000D9FAC020ADF8000010208DF80300032023
:100AA0008DF8020069460448FFF79EFEC021024807
:100AB000FFF730FF08BD0000000C014000B5FFF754
:100AC00005FC0020084908724872C8810748C1F82F
:100AD00010040748C1F814040648C1F81804064871
:100AE000C1F81C0400BD000024040020580C0020A4
:100AF0008A100020040000202117000870B500248F
:100B0000DF48D0F810040078F1287CD1DC48D0F818
:100B1000100440780128F8D1D94AD2F81824118855
:100B2000D74AD2F8100400F011FE00286CD0012042
:100B3000D3490872801E48600846D0F810048078B7
:100B40000006D1F81014C97840EA0140CC49D1F828
:100B50001014097940EA0120C949D1F810144979E3
:100B60000843C74908600846D0F81004C079D1F896
:100B70001014897940EA0120C1498881F120D1F817
:100B8000141408708120BE49D1F814144870BC4870
:100B9000D0F810048078BA49D1F814148870B84895
:100BA000D0F81004C078B649D1F81414C870B4480D
:100BB000D0F810040079B249D1F814140871B04883
:100BC000D0F810044079AE49D1F814144871AC48FB
:100BD000D0F810048079AA49D1F814148871A84873
:100BE000D0F81004C079A649D1F81414C871A448EB
:100BF00001230822D0F814140020FFF749FB044613
:100C0000200E9F4901E01EE0F4E0D1F814140872B0
:100C1000200C9B49D1F814144872200A9849D1F845
:100C2000141488729649D1F81414CC72012000F083
:100C3000CBFD9348D0F81C140C2088471421914810
:100C4000FFF7C7FA1AE18E48D0F810040078F128AF
:100C5000F8D18B48D0F8100440780228F2D1884AA5
:100C6000D2F818241188864AD2F8100400F06EFDDC
:100C700000287AD08248D0F81004C0788049D1F892
:100C80001014897840EA01207D4948810B46D3F849
:100C900018341B88A3F108020B46D3F81034191D31
:100CA000774B5B89784D05EB832000F0E5FDF12063
:100CB0007349D1F81414087082207149D1F81414C2
:100CC00048706F48D0F8100480786D49D1F814143A
:100CD00088706B48D0F81004C0786949D1F81414B2
:100CE000C87001206649D1F81414087164480123C2
:100CF0000522D0F814140020FFF7CAFA0446200E8B
:100D00005F49D1F814144871200C5D49D1F81414CE
:100D10008871200A5A49D1F81414C8715849D1F879
:100D200014140C72012000F04FFD5548D0F81C142B
:100D300009208847524841898089401E814215D147
:100D400001204F4948720846D0F818040088083836
:100D500082B20846D0F81004011D01234848001D46
:100D6000FFF796FA4649486088E044E0444A5189D2
:100D7000CA1701EBD2625211424B53F82220404B6A
:100D80005889C31700EBD3635B11A0EB4315012314
:100D9000AB401A40002A71D1394A5089C21700EB82
:100DA000D2625211374B53F82220354B5989CB1759
:100DB00001EBD3635B11A1EB43150123AB401A4355
:100DC0002F4B5889C31700EBD3635B112D4D45F8AA
:100DD00023202B48D0F818040088083882B228480D
:100DE000D0F81004011D00232548001DFFF750FA1C
:100DF0002349486042E0F1202149D1F814140870D9
:100E000082201F49D1F8141448701D48D0F81004EE
:100E100080781B49D1F8141488701948D0F8100450
:100E2000C0781749D1F81414C87002201449D1F8B9
:100E300014140871124801230522D0F8141400205C
:100E4000FFF726FA0446200E0D49D1F81414487114
:100E5000200C0B49D1F814148871200A0849D1F8E4
:100E60001414C8710649D1F814140C72012000F052
:100E7000ABFC0348D0F81C140920884770BD000063
:100E800024040020440C00200040000800E0401E24
:100E90000028FCD17047000010B51648006820F00B
:100EA0007040144908600846006840F040500860EF
:100EB00080211048FFF72CFD0A20FFF7E7FF4021B3
:100EC0000C48FFF727FD0A20FFF7E0FF4021094803
:100ED000FFF71EFD0A20FFF7D9FF0648006820F043
:100EE0007040044908600846006840F0004008600F
:100EF00010BD0000000C014010B51048006820F043
:100F000070400E4908600846006840F04050086094
:100F100080210A48FFF7FEFC0A20FFF7B7FF4021B7
:100F20000648FFF7F7FC0A20FFF7B0FF402103480F
:100F3000FFF7EEFC0A20FFF7A9FF10BD000C0140EF
:100F400000BFFEE77047000000F01F020121914042
:100F5000024A430942F823107047000080E200E093
:100F600070B5002100230F22C47804B3154C246807
:100F700004F4E064C4F5E064210AC1F10403CA404A
:100F8000447804FA03F184781440214309010E4C9B
:100F90000678A155047804F01F050124AC400578BB
:100FA0006D11AD0005F1E025C5F8004109E00478B8
:100FB00004F01F050124AC40044D0678761145F875
:100FC000264070BD0CED00E000E400E080E100E0B0
:100FD00002490143024A1160704700000000FA050F
:100FE0000CED00E029B1064A52690243044B5A61F4
:100FF00004E0034A52698243014B5A617047000082
:101000000010024029B1064AD2690243044BDA615A
:1010100004E0034AD2698243014BDA617047000061
:101020000010024029B1064A12690243044B1A61BA
:1010300004E0034A12698243014B1A6170470000C1
:101040000010024029B1064A92690243044B9A619A
:1010500004E0034A92698243014B9A6170470000A1
:101060000010024029B1064AD2680243044BDA60FC
:1010700004E0034AD2688243014BDA607047000003
:10108000001002400F48006840F001000D49086060
:10109000084640680C4908400A494860084600680C
:1010A0000A490840074908600846006820F4802083
:1010B00008600846406820F4FE0048604FF41F00B6
:1010C00088607047001002400000FFF8FFFFF6FE46
:1010D00030B500210022002400232D4D6D6805F05D
:1010E0000C0121B1042905D0082923D105E0294D9F
:1010F000056022E0274D05601FE0254D6D6805F471
:101100007012234D6D6805F48034022505EB924280
:101110001CB9214D554305600BE01D4D6D6805F46C
:1011200000351DB11C4D5543056002E0194D554376
:10113000056002E0174D056000BF00BF144D6D68EB
:1011400005F0F0010909154D6B5C0568DD4045604F
:101150000F4D6D6805F4E061090A104D6B5C456840
:10116000DD4085600A4D6D6805F46051C90A0B4D7C
:101170006B5C4568DD40C560054D6D6805F4404118
:10118000890B074D6B5CC568B5FBF3F5056130BD98
:101190000010024000127A0000093D0010000020FB
:1011A0002000002030B503460C461546002207E01B
:1011B000184600F008F824F812009B1C501C82B25C
:1011C000AA42F5DB30BD0146088870472DE9F05F83
:1011D00080468A461746B8F1006F02D333488045EF
:1011E00001D3BDE8F09FFFF781FAA8F1006B4FEA49
:1011F0009B25CBF34809C9F50074A74200DC3C46A7
:101200004DE04FF0006101EB85208A142849FFF77B
:10121000C9FF00260BE009EB0600254931F8100054
:101220004FF6FF71884200D003E0701C86B2A642E0
:10123000F1DB00BFA6421BDA4FF0006101EB852015
:10124000FFF7EAF9002608E03AF8160006EB090174
:10125000174A22F81100701C86B2A642F4DB4FF048
:10126000006101EB85208A14114900F023F804E0A5
:1012700022465146404600F01DF8A74200D10FE03B
:101280006D1C4FF000090AEB440AA044381B87B2DA
:10129000B7F5007F02DD4FF4007400E03C46B0E794
:1012A00000BFFFF7F9F900BF9BE70000000002084C
:1012B000240000202DE9F04105460E461746002483
:1012C00007E036F814102846FFF7F0F9AD1C601C53
:1012D00084B2BC42F5DBBDE8F081704710B500F088
:1012E00001F810BD0CB50020019000902548006861
:1012F00040F480302349086000BF2248006800F4B1
:10130000003000900198401C0190009818B9019895
:10131000B0F5A06FF1D11B48006800F4003010B1A7
:101320000120009001E0002000900098012828D1C1
:101330001548006840F0100013490860084600682E
:1013400020F0030008600846006808600D48406807
:101350000C49486008464068486008464068486054
:101360000846406820F0030048600846406840F0A6
:101370000100486000BF0348406800F00C000428EA
:10138000F9D10CBD0010024000200240042808D111
:101390004FF0E021096941F004014FF0E0221161B2
:1013A00007E04FF0E021096921F004014FF0E0224D
:1013B0001161704710B51348006840F001001149F1
:1013C000086008464068104908400E4948600846D1
:1013D00000680E4908400B4908600846006820F480
:1013E000802008600846406820F4FE0048604FF402
:1013F0001F008860FFF772FF4FF00060044908602B
:1014000010BD0000001002400000FFF8FFFFF6FED4
:1014100008ED00E010B540F22551064800F0C4F890
:1014200038B12620FFF790FD40F22551014800F029
:1014300049F810BD0044004010B540F224411D4859
:1014400000F0B2F820B300211B48FEF783FF1948D3
:1014500000881A4908801748001D0088088016482F
:10146000FFF72AF840F23241081A1449088008466A
:10147000008840F23241884201DAFFF73FFB40F238
:1014800032400D496C39086701210B48FEF762FFB5
:1014900040F22661074800F087F850B10020084963
:1014A00008602620FFF750FD40F22661014800F059
:1014B00009F810BD004400406C0002400400002008
:1014C0008401214210B50022002340F66A14A14293
:1014D00000D100BF0A1201249440A3B2DC4304806F
:1014E00010BD21B1828942F40052828104E08289D8
:1014F0004DF6FF731A40828170471AB1838A0B43FD
:10150000838202E0838A8B438382704710B504464E
:101510002048844209D101218803FFF7A3FD00215F
:101520004FF48040FFF79EFD32E01B48844209D112
:1015300001214804FFF776FD00214FF40030FFF74A
:1015400071FD25E01548844209D101218804FFF787
:1015500069FD00214FF48020FFF764FD18E010487A
:10156000844209D10121C804FFF75CFD00214FF43A
:101570000020FFF757FD0BE00A48844208D1012103
:101580000805FFF74FFD00214FF48010FFF74AFDDB
:1015900010BD0000003801400044004000480040F9
:1015A000004C00400050004070B50246002400236B
:1015B0000025002040F66A16B14200D100BFC1F3F9
:1015C000421501F01F03012606FA03F3012D02D193
:1015D0009689334006E0022D02D1168A334001E09D
:1015E000968A33400C12012606FA04F41688344019
:1015F00013B10CB1012000E0002070BDF0B503462E
:10160000002400260025002040F66A17B94200D1C8
:1016100000BF1846C1F3421401F01F06012707FA64
:1016200006F5012C01D10C3004E0022C01D1103060
:1016300000E014301AB107682F43076002E0076822
:10164000AF430760F0BD00002DE9F04786B00546C6
:101650000E460024A24600BFA1460027B08900B173
:1016600000BF2F462C8A4CF6FF700440F0880443DC
:101670002C82AC894EF6F3100440B08831890843BF
:10168000718908430443AC81AC8A4FF6FF400440A3
:10169000B0890443AC8201A8FFF71AFD1F488742B6
:1016A00002D1DDF810A001E0DDF80CA0A88900F45B
:1016B000004040B10AEBCA0000EB0A103168490053
:1016C000B0FBF1F807E00AEBCA0000EB0A10316842
:1016D0008900B0FBF1F86420B8FBF0F004012009A8
:1016E000642101FB1089A88900F4004040B1322038
:1016F00000EBC900B0FBF1F000F00700044308E084
:10170000322000EB09106421B0FBF1F000F00F0073
:1017100004432C8106B0BDE8F0870000003801408A
:1017200010B5044601200549086021460448FEF72B
:1017300004FF01210248FEF70DFE10BD8401214285
:101740008000024000BFFEE700BF70472DE9F04176
:1017500006460D460027B846052D02DA0020BDE8F2
:10176000F0817019041F20780006617840EA01407A
:10177000A17840EA0120E17840EA0108281F82B2FE
:10178000012331460020FEF783FD0746474501D17E
:101790000120E4E70020E2E710B504460420FFF74B
:1017A000F5FD07480470007800EB4001C1EBC01064
:1017B0004FF6FF7101EAC0000249088010BD000029
:1017C0000C0000200E0000200146114A12884A43F6
:1017D0004FF0E0235A6100229A611A46126942F0E2
:1017E00001021A6100BF4FF0E022106900F001020F
:1017F0001AB100F48032002AF5D04FF0E0221269CD
:1018000022F001024FF0E0231A6100229A61704732
:101810000E00002070B50446206813490840B0F15E
:10182000005F20D165682068FEF7AEFC002008E06C
:101830004FF0FF320D4941F820200D4941F820209A
:10184000401C0828F4DBFFF71DFC00204FF0E021CE
:1018500008614861886172B6002240F2255105484E
:10186000FFF7CCFEA84770BD0000FE2F80E100E02E
:1018700080E200E0004400402DE9F05F06460F469C
:1018800090460024B3463D46A14619E02878697881
:1018900040EA012A2046611C8CB20E4921F810A0B2
:1018A000AD1CB4F5007F07D14FF400725846FFF726
:1018B0008DFC0BF5806B002409F102001FFA80F902
:1018C000C845E3D824B1224602495846FFF77EFCBA
:1018D000BDE8F09F34040020FFF76CFD4FF4A060DA
:1018E000FFF776FB0820FFF757FFFFF7E7F82B48D5
:1018F000FFF70CFE4FF4165000F078F8FEF720FECC
:10190000FFF7C2F8012226492A20FEF70FFF2448DC
:10191000007848B92348406800F07F40B0F1006F7C
:1019200002D001201E49087036E01D4800780128C9
:1019300028D147F23050FFF747FF1B48407A00B3E9
:101940001948008882B2012316490020FEF7A0FC46
:10195000044615484068A04211D11248406800F082
:101960007F40B0F1006F0AD100200D4908700122BC
:101970002A20FEF717FF0B48FFF74CFF01E000F0AD
:1019800015F809E00648007818B105480078FF28E6
:1019900002D10448FFF73EFFC7E7000000440040C3
:1019A0000000002000400008240400204FF6FF71D2
:1019B00000E000BF081EA1F10101FAD1012080F36F
:1019C000138800BF00BF0748006800F4E060064AC3
:1019D0001043001D034A1060BFF34F8F00BF00BFCC
:1019E000FEE700000CED00E00000FA0510B586B03F
:1019F000044601214804FFF705FB01210520FFF7FC
:101A000021FB3648FFF782FD0220ADF814000320C9
:101A10008DF8160010208DF8170005A93048FEF744
:101A2000E3FE00202F4908600420ADF814000320D5
:101A30008DF8160018208DF8170005A92848FEF724
:101A4000D3FE0820ADF8140048208DF8170005A932
:101A50002348FEF7C9FE01940020ADF80800ADF858
:101A60000A00ADF80C00ADF810000C20ADF80E0027
:101A700001A91A48FFF7E8FD002240F22661174845
:101A8000FFF7BCFD002240F225511448FFF7B6FDD8
:101A9000012240F224411148FFF7B0FD012240210C
:101AA0000E48FFF72AFD012280210C48FFF725FD93
:101AB00001210A48FFF715FD26208DF800000320BC
:101AC0008DF8010002208DF8020001208DF803003E
:101AD0006846FFF745FA06B010BD0000004400401C
:101AE0000008014084012142081B0008000000207A
:101AF00024000000280100082C1B000824000020FE
:101B0000CC170000440100080000000000000000A5
:101B100000000000000000000000000001020304BB
:0C1B20000102030406070809020406087D
:04000005080000ED02
:00000001FF
