:020000040800F2
:10800000D817012001E70008E1C20108E3C2010816
:10801000E5C20108E7C20108E9C20108000000004A
:10802000000000000000000000000000C581000802
:1080300015E7000800000000218200083F860008C4
:108040001BE700081BE700081BE70008ADC3010899
:108050001BE700081BE7000891C3010895C301084E
:1080600099C301089DC30108A1C301081BE70008CB
:108070001BE700081BE700081BE700081BE70008D8
:108080001BE700081BE700081BE700081BE70008C8
:108090001BE700081BE700081BE70008A5C3010851
:1080A0001BE700081BE700081BE700081BE70008A8
:1080B0001BE7000855C3010873C301082DC301085D
:1080C0001BE700081BE7000835C3010845C301088A
:1080D0004DC30108EDC20108F5C20108FDC2010847
:1080E000A9C301081BE700081BE700081BE70008FD
:1080F0001BE700081BE700081BE700081BE7000858
:108100001BE700081BE700081BE700081BE7000847
:1081100005C301080DC301081BE700081BE70008A1
:108120001BE700081BE700081BE700081BE7000827
:108130001BE700081BE700081BE700081BE7000817
:108140001BE700081BE700081BE700081BE7000807
:108150001BE700081BE700081BE7000815C3010820
:108160001BE700083DC301081BE700081BE70008E8
:108170001BE700081BE700081BE700081BE70008D7
:108180001BE700081BE700081DC3010825C3010801
:108190001BE700081BE700081BE700081BE70008B7
:1081A0001BE700081BE700081BE70008DFF810D0FA
:1081B0001EF040FC0048004711CF0108AFF30080DB
:1081C000D81701202C4B19680868B0E8F04F80F3ED
:1081D0000988BFF36F8F4FF0000080F3118870475C
:1081E0000000000008480068006880F308884FF02D
:1081F000000080F3148862B661B6BFF34F8FBFF3FF
:108200006F8F00DF00BF00BF08ED00E0DFF80C005B
:10821000016841F470010160704700BF88ED00E023
:10822000EFF30980BFF36F8F134B1A681EF0100F26
:1082300008BF20ED108A20E9F04F106009B44FF01C
:10824000500080F31188BFF34F8FBFF36F8F01F0A1
:108250005DFE4FF0000080F3118809BC19680868C2
:10826000B0E8F04F1EF0100F08BFB0EC108A80F39A
:108270000988BFF36F8F704740000020EFF305803F
:108280007047000030B57C4900E011460A68824220
:10829000FBD34B685C18844203D1406818444860A3
:1082A00008460D6844682318AB420DD1724B183B49
:1082B0001B689A4206D05268224442600A681268DB
:1082C000026002E0036000E00260814200D00860CA
:1082D00030BD4FF448416948420706D0C01D20F028
:1082E00007006649411AC1F54841634A10600023FE
:1082F00053600144083921F00701183A11604B60BE
:108300000B600B1A436001604068906050604FF052
:108310000040506170472DE9F0410446002601F00D
:10832000D1FC554F183F386808B9FFF7D2FF78697C
:10833000044255D1CCB104F10805A54215D968070E
:1083400014D005F00700C0F108002844A8420AD95B
:10835000054668070AD0502080F31188BFF34F8F7D
:10836000BFF36F8FFEE7002500E00025C5B37868F6
:10837000854235D840490846046801E02146044654
:108380006068A84202D220680028F7D13868844289
:1083900026D00E680836206808606068411B1029E6
:1083A0000ED96019420707D0502080F31188BFF31F
:1083B0004F8FBFF36F8FFEE741606560FFF762FF8D
:1083C00061687868401A7860BA68904200D2B860F4
:1083D00078690143616000202060F868401CF86003
:1083E00001F0D5FB0EB900F073F9700707D05020EB
:1083F00080F31188BFF34F8FBFF36F8FFEE73046D6
:10840000BDE8F08170B500282BD0083804461A4D1D
:108410006068183D6969084207D1502080F31188CF
:10842000BFF34F8FBFF36F8FFEE722683AB1502042
:1084300080F31188BFF34F8FBFF36F8FFEE7884340
:10844000606001F03FFC606869680844686020462D
:10845000FFF718FF2869401C2861BDE8704001F053
:1084600096BB70BD044818384068704702481838F9
:10847000806870477047000018000020C408002082
:108480008C484068401C07D0502080F31188BFF30F
:108490004F8FBFF36F8FFEE7502080F31188BFF33B
:1084A0004F8FBFF36F8FFEE724384FF08073036266
:1084B00021F00101C1618049816142606FF00201D8
:1084C00040F8201970474FF0E020002101618161E0
:1084D0007A494FF47A720968B1FBF2F1491E4161A1
:1084E0000721016170471CB575480168754A9142C2
:1084F00007D1502080F31188BFF34F8FBFF36F8FE8
:10850000FEE700686F49491E884207D1502080F37A
:108510001188BFF34F8FBFF36F8FFEE76A4908786A
:108520000190FF200870087800909DF800009DF8E9
:10853000002000F0F000904207D0502080F3118816
:10854000BFF34F8FBFF36F8FFEE79DF80000594CCC
:1085500000F0500020700720A06006E0A068401ED8
:10856000A0609DF80000400000909DF8000000060B
:10857000F4D4A068032807D0502080F31188BFF3FB
:108580004F8FBFF36F8FFEE74FF44070A0600198EC
:1085900008704B482030016841F4700101600168A7
:1085A00041F070410160FFF78EFF00206060FFF72F
:1085B0002DFE4648016841F040410160FFF712FE80
:1085C00000201CBD3B484068B0F57A7F07D05020A2
:1085D00080F31188BFF34F8FBFF36F8FFEE77047B3
:1085E000502080F31188BFF34F8FBFF36F8F314955
:1085F0004868401C486001280DD13148001D0068C2
:1086000010F0FF0F07D0502080F31188BFF34F8F79
:10861000BFF36F8FFEE7704726494868002806D0F1
:10862000401E4860002801D180F311887047502017
:1086300080F31188BFF34F8FBFF36F8FFEE710B544
:10864000502080F31188BFF34F8FBFF36F8F01F07D
:108650003CFA20B11A494FF08050091D08600020F3
:1086600080F3118810BD10B5FFF708FE11491028DE
:108670000ED300F1E02090F8F0030A78904207D280
:10868000502080F31188BFF34F8FBFF36F8FFEE749
:108690000B480C300068896800F4E060884207D914
:1086A000502080F31188BFF34F8FBFF36F8FFEE729
:1086B00010BD000020000020818400088C000020F4
:1086C00000ED00E071C20F4100E400E034EF00E093
:1086D000502080F31188BFF34F8FBFF36F8FFEE7F9
:1086E0007047502080F31188BFF34F8FBFF36F8F17
:1086F000FEE7000070B504460D46002C25D0FFF7BC
:108700006FFFD4E90F20216802FB0011A160002156
:10871000A16321686160E06B2268216C401E00FB50
:108720000121E1604FF0FF3084F8440084F84500F7
:1087300004F110008DB102F073FA04F1240002F08C
:108740006FFAFFF769FF012070BD502080F3118898
:10875000BFF34F8FBFF36F8FFEE721690029F0D081
:1087600001F0A7FE0028ECD0FF494FF080500860D0
:10877000BFF34F8FBFF36F8FE3E770B51D46049CC7
:10878000002909D02260E063216401212046FFF71F
:10879000B1FF84F84C5070BD2460F4E7F8B506468C
:1087A0000D461746002E11D0C5B106FB05F050301E
:1087B000FFF7B1FD04463CB1224650323B46294604
:1087C00030460094FFF7D9FF2046F8BD502080F3D3
:1087D0001188BFF34F8FBFF36F8FFEE70020E6E7EE
:1087E0002DE9F0410446FFF7FBFE94F9455004F1F2
:1087F000240609E0606A48B1304601F05AFE08B12B
:1088000001F01AFF6D1E6DB2002DF3DC4FF0FF3644
:1088100084F84560FFF700FFFFF7E2FE94F944504B
:1088200004F1100709E0206948B1384601F041FE23
:1088300008B101F001FF6D1E6DB2002DF3DC84F86C
:108840004460BDE8F041FFF7E7BE10B50446FFF70E
:10885000C7FEA06BE16B884201D1012400E0002437
:10886000FFF7DAFE204610BD2DE9F0410446174619
:108870000026A56B226C002A10D0C7B1E0681DF05D
:1088800007F8E168206C091AE1602268914202D27F
:10889000A168081AE060022F16D017E02068A8B976
:1088A000A06801F02DFF06460020A0600EE0606881
:1088B0001CF0EEFF216C606808446060A16888428B
:1088C00004D32068606001E005B16D1E6D1CA563D6
:1088D0003046BDE8F0812DE9FF4782B004468A4664
:1088E0001E460025002C03D0BAF1000F08D011E07D
:1088F000502080F31188BFF34F8FBFF36F8FFEE7D7
:10890000206C38B1502080F31188BFF34F8FBFF334
:108910006F8FFEE7022E0AD1E06B012807D05020AE
:1089200080F31188BFF34F8FBFF36F8FFEE701F025
:1089300094FE48B9049838B1502080F31188BFF3F1
:108940004F8FBFF36F8FFEE74FF000094FF0805756
:10895000DFF81482FFF744FEA06BE16B884205D379
:10896000022E03D0049808B325B327E032465146BF
:108970002046FFF779FF616A59B104F1240001F044
:1089800098FD68B1C8F80070BFF34F8FBFF36F8FC9
:1089900006E028B1C8F80070BFF34F8FBFF36F8FA8
:1089A000FFF73AFE012006B0BDE8F087FFF734FE7E
:1089B0000020F8E7684601F0FFFD0125FFF72CFED7
:1089C00001F080F9FFF70CFE94F94400401C01D13E
:1089D00084F8449094F94500401C01D184F84590F6
:1089E000FFF71AFE04A9684601F0ECFD30B12046FD
:1089F000FFF7F6FE01F0CBF80020D4E72046FFF7A2
:108A000024FF90B104F11000049901F0EFFC20461E
:108A1000FFF7E6FE01F0BBF800289BD1C8F8007014
:108A2000BFF34F8FBFF36F8F94E72046FFF7D8FE59
:108A300001F0ADF88EE7002807D0002181600160C9
:108A4000C16000231A46194645E7704710B5024633
:108A500000210120FFF7A2FE04462046FFF7EBFFAE
:108A6000204610BD10B50446002C09D001F0F2FDDF
:108A7000A168884214D1E068401EE06040B10DE07A
:108A8000502080F31188BFF34F8FBFF36F8FFEE745
:108A900000231A4619462046FFF71DFF012010BD8E
:108AA000002010BD416A002904D0006B0068C0F1AD
:108AB0000F0070470020704710B50446FFF790FD87
:108AC000A06B20B10024FFF7A7FD204610BD0124B4
:108AD000F9E72DE9F34383B004460025A946002CAD
:108AE00009D0206C78B1502080F31188BFF34F8FEC
:108AF000BFF36F8FFEE7502080F31188BFF34F8FD5
:108B0000BFF36F8FFEE701F0A8FD48B9049838B1B4
:108B1000502080F31188BFF34F8FBFF36F8FFEE7B4
:108B200000264FF08057DFF84080FFF759FDA06B1B
:108B3000E0B1401EA063206810B901F085FEA0607E
:108B4000206950B104F1100001F0B3FC28B1C8F85D
:108B50000070BFF34F8FBFF36F8FFFF75DFD0120F4
:108B600005B0BDE8F083000004ED00E0049808B112
:108B70007DB112E0B9F1000F07D0502080F31188C9
:108B8000BFF34F8FBFF36F8FFEE7FFF745FD002068
:108B9000E6E701A801F010FD0125FFF73DFD01F01A
:108BA00091F8FFF71DFD94F94400401C01D184F8B1
:108BB000446094F94500401C01D184F84560FFF7FA
:108BC0002BFD04A901A801F0FDFCC8B12046FFF768
:108BD00007FE00F0DCFF2046FFF76EFF0028A4D060
:108BE000B9F1000F0AD0FFF7FBFC2046FFF75AFF50
:108BF0000146A06801F0CCFDFFF70EFD0020AFE7B5
:108C00002046FFF759FFE8B1206838B9FFF7E8FCC4
:108C1000A06801F02EFD8146FFF7FEFC04F1240060
:108C2000049901F0E3FB2046FFF7DAFD00F0AFFF07
:108C300000287FF47AAFC8F80070BFF34F8FBFF3FE
:108C40006F8F72E72046FFF7CBFD00F0A0FF6CE7C7
:108C500070B504460D46002C09D001F0FBFCA2685B
:108C600090420CD1E068401CE060012070BD5020B3
:108C700080F31188BFF34F8FBFF36F8FFEE7294654
:108C80002046FFF726FF0028F0D0E168491CE1608C
:108C900070BD10B50C46002809D084420FD9502071
:108CA00080F31188BFF34F8FBFF36F8FFEE7502023
:108CB00080F31188BFF34F8FBFF36F8FFEE702225F
:108CC0000021FFF76BFD002800D0846310BD2DE963
:108CD000F0470446894690461F46002C03D0B9F160
:108CE000000F08D011E0502080F31188BFF34F8FA0
:108CF000BFF36F8FFEE7206C38B1502080F31188EE
:108D0000BFF34F8FBFF36F8FFEE7022F0AD1E06BE7
:108D1000012807D0502080F31188BFF34F8FBFF395
:108D20006F8FFEE7FFF79FFC5020EFF3118680F373
:108D30001188BFF34F8FBFF36F8FA06BE16B884239
:108D400005D3022F03D0002086F311882CE694F976
:108D500045503A4649462046FFF786FD681C04D038
:108D60006D1C84F845500120EEE7606A0028FAD0B7
:108D700004F1240001F09DFB0028F4D0B8F1000FAD
:108D8000F1D00120C8F80000EDE770B504460E46AA
:108D9000002C09D0206C78B1502080F31188BFF3EB
:108DA0004F8FBFF36F8FFEE7502080F31188BFF322
:108DB0004F8FBFF36F8FFEE7206848B9A06838B1C6
:108DC000502080F31188BFF34F8FBFF36F8FFEE702
:108DD000FFF749FC5020EFF3118580F31188BFF3B2
:108DE0004F8FBFF36F8FA26BE06B904218D994F94D
:108DF0004500521CA263411C04D0401C84F845006D
:108E000001200EE0606A0028FAD004F1240001F08D
:108E100050FB0028F4D0002EF2D001203060EFE7A4
:108E2000002085F3118870BD30B40B46026C002A17
:108E30000CD0C1681144C1608468A14201D30168AB
:108E4000C160C16830BC18461CF022BD30BC704700
:108E50002DE9F74783B004468A460026002C03D04C
:108E6000BAF1000F08D011E0502080F31188BFF351
:108E70004F8FBFF36F8FFEE7206C38B1502080F327
:108E80001188BFF34F8FBFF36F8FFEE701F0E5FB53
:108E900048B9059838B1502080F31188BFF34F8F3F
:108EA000BFF36F8FFEE700274FF08058DFF8A894DC
:108EB000FFF796FBA56BB5B151462046FFF7B4FF0F
:108EC0006D1EA563206950B104F1100001F0F1FAA4
:108ED00028B1C9F80080BFF34F8FBFF36F8FFFF742
:108EE0009BFB01205FE5059808B126B107E0FFF77D
:108EF00093FB002057E501A801F05EFB0126FFF778
:108F00008BFB00F0DFFEFFF76BFB94F94400401C85
:108F100001D184F8447094F94500401C01D184F8D3
:108F20004570FFF779FB05A901A801F04BFB58B18B
:108F30002046FFF755FC00F02AFE2046FFF7BCFD57
:108F40000028B5D000202EE52046FFF7B5FD90B1F2
:108F500004F12400059901F049FA2046FFF740FC8E
:108F600000F015FE0028A3D1C9F80080BFF34F8F91
:108F7000BFF36F8F9CE72046FFF732FC00F007FE3F
:108F800096E72DE9F74382B0044689460025002C78
:108F900003D0B9F1000F08D011E0502080F3118800
:108FA000BFF34F8FBFF36F8FFEE7206C38B15020B7
:108FB00080F31188BFF34F8FBFF36F8FFEE701F08F
:108FC0004CFB48B9049838B1502080F31188BFF3A6
:108FD0004F8FBFF36F8FFEE700264FF08057DFF80B
:108FE0007883FFF7FDFAA06BB0B1E56849462046EB
:108FF000FFF71AFFE560606A50B104F1240001F048
:1090000058FA28B1C8F80070BFF34F8FBFF36F8FC5
:10901000FFF702FB0120A3E5049808B125B107E0A2
:10902000FFF7FAFA00209BE5684601F0C5FA012532
:10903000FFF7F2FA00F046FEFFF7D2FA94F9440087
:10904000401C01D184F8446094F94500401C01D1D2
:1090500084F84560FFF7E0FA04A9684601F0B2FA27
:1090600058B12046FFF7BCFB00F091FD2046FFF70A
:1090700023FD0028B5D0002072E52046FFF71CFD37
:1090800090B104F12400049901F0B0F92046FFF7F3
:10909000A7FB00F07CFD0028A3D1C8F80070BFF347
:1090A0004F8FBFF36F8F9CE72046FFF799FB00F0CF
:1090B0006EFD96E72DE9F047044689469046002C60
:1090C00003D0B9F1000F08D011E0502080F31188CF
:1090D000BFF34F8FBFF36F8FFEE7206C38B1502086
:1090E00080F31188BFF34F8FBFF36F8FFEE7FFF759
:1090F000BAFA5020EFF3118780F31188BFF34F8F36
:10910000BFF36F8FA66BF6B194F9445049462046E1
:10911000FFF78AFE761EA663681C04D06D1C84F8D7
:109120004450012010E020690028FAD004F110001A
:1091300001F0BFF90028F4D0B8F1000FF1D0012000
:10914000C8F80000EDE7002087F311882CE42DE932
:10915000F04104460F46002C01D047B111E05020E9
:1091600080F31188BFF34F8FBFF36F8FFEE7206C42
:1091700038B1502080F31188BFF34F8FBFF36F8F4A
:10918000FEE7206CA0B1FFF76EFA5020EFF31185D7
:1091900080F31188BFF34F8FBFF36F8FA06B78B14F
:1091A000E66839462046FFF73FFEE660012008E00A
:1091B000502080F31188BFF34F8FBFF36F8FFEE70E
:1091C000002085F31188BDE8F08110B50446002C1D
:1091D00006D0FFF705FAA46BFFF71EFA204610BD74
:1091E000502080F31188BFF34F8FBFF36F8FFEE7DE
:1091F00010B50446002C08D0FFF7F2F9D4E90E10A0
:10920000441AFFF709FA204610BD502080F3118858
:10921000BFF34F8FBFF36F8FFEE7002801D0806B45
:109220007047502080F31188BFF34F8FBFF36F8FCB
:10923000FEE70021494A02EBC1035B68834206D185
:10924000002042F8310002EBC10148607047491C20
:109250000829F0D3704710B50446002C07D02046EB
:10926000FFF7E7FF2046BDE81040FFF7CBB85020DE
:1092700080F31188BFF34F8FBFF36F8FFEE7806CD1
:1092800070478164704790F84C007047002803D005
:10929000806B48B100207047502080F31188BFF3E5
:1092A0004F8FBFF36F8FFEE701207047002805D076
:1092B000816BC06B814209D101207047502080F33F
:1092C0001188BFF34F8FBFF36F8FFEE70020704709
:1092D00010B50022214B53F832401CB1521C082A11
:1092E000F9D310BD43F8321003EBC201486010BD42
:1092F00010B500240021194A02EBC1035B688342C8
:1093000002D152F8314002E0491C0829F4D320462A
:1093100010BD70B504460D461646FFF761F994F985
:1093200044304FF000005B1C01D184F8440094F9F4
:109330004510491C01D184F84500FFF76DF9A06B79
:1093400028B93246294604F1240001F097F8204656
:10935000BDE87040FFF744BA04ED00E0C4D000203F
:1093600070B5002441600061F94D91420AD8D11ACC
:109370008269914201D301240EE0011D286901F0A8
:1093800069FC09E09A4203D2994201D3012403E027
:10939000011DE86801F05EFC204670BDFEB5064682
:1093A000089F9C460020002E13D0E94D2C68002C0D
:1093B0000ED0009101920296062919DA01F04DF9BA
:1093C00002280ED000231A4669462868FFF783FA60
:1093D000FEBD502080F31188BFF34F8FBFF36F8F16
:1093E000FEE700233A4669462868FFF774FAFEBD97
:1093F0000023624669462046FFF769FCFEBDF8B5CA
:10940000D34E1FE0C0680568C468201D01F03AFC17
:10941000616A20468847E069012813D1A069284481
:10942000A84206D960602461211DF06801F012FC99
:1094300008E000200346014600902A462046FFF738
:10944000ADFF40B1F06801680029DBD1F0683169F7
:10945000F1603061F8BD502080F31188BFF34F8F69
:10946000BFF36F8FFEE770B5054600F0E7FE0446D8
:10947000B74EB068844204D2FFF7C1FF01202860D4
:1094800001E000202860B460204670BD30B585B092
:10949000AF4D4BE00298002848DB049C606910B196
:1094A000201D01F0EFFB01A8FFF7DDFF0246029847
:1094B0000A283BD2DFE800F00505053A2637050506
:1094C0003A260398A169034601442046FFF748FF66
:1094D00000B3616A20468847E069012826D1002050
:1094E00000900398A1690023421819462046FFF70F
:1094F00055FF78B9502080F31188BFF34F8FBFF329
:109500006F8FFEE70398A06128B1811813462046AB
:10951000FFF726FF0AE0502080F31188BFF34F8F3A
:10952000BFF36F8FFEE72046FEF76CFF002202A913
:109530002868FFF78DFC0028ACD105B030BDF8B528
:1095400005460E468248C068C068C468201D01F008
:1095500099FBE069012810D1A0692B4641193246D8
:109560002046FFF7FDFE40B1002003460146009073
:109570002A462046FFF712FF28B1616A01B0204653
:10958000BDE8F0400847502080F31188BFF34F8FAB
:10959000BFF36F8FFEE7F8B506460D4600F092FB6D
:1095A0006846FFF760FF0446009810B100F0EFFA3C
:1095B000F8BD45B9A64206D800F0E9FA2146304682
:1095C000FFF7BDFFF8BD62481DB10169096891B19F
:1095D0000025311B2A460068FFF79BFE00F0D7FAF2
:1095E0000028EFD15B494FF080500860BFF34F8FE8
:1095F000BFF36F8FF8BD0125EBE75549CA681168C5
:10960000002904D00021016019B100207047012118
:10961000F9E7D0680068704708B56846FFF7EDFFC6
:109620000099FFF7B8FFFFF731FFF6E710B5FEF737
:10963000D7FF474C2068A0B9474801F0F1FA4648E7
:10964000143001F0EDFA4448E0601430206100224B
:109650000C210A20FFF7A2F8206010B13FA1FFF70C
:1096600037FEBDE81040FEF7D7BF1CB50024FFF75A
:10967000DDFF3748006860B135480221001DCDE9A3
:10968000001000234FF4827236A1384800F085F9AB
:1096900004460CB120461CBD502080F31188BFF356
:1096A0004F8FBFF36F8FFEE72DE9F0470646DDE9E8
:1096B00008940D4617469846002D0FD0002C15D063
:1096C000FFF7B4FF2660A561E761C4F82080C4F805
:1096D0002490201DBDE8F04701F0ADBA502080F382
:1096E0001188BFF34F8FBFF36F8FFEE7BDE8F087A0
:1096F0002DE9FC4706460A9D0F46904699462C20C8
:10970000FEF709FE04463CB1CDE900544B46424603
:1097100039463046FFF7C8FF2046BDE8FC870C48B5
:109720004068002807D1502080F31188BFF34F8F85
:10973000BFF36F8FFEE77047002801D08069704744
:10974000502080F31188BFF34F8FBFF36F8FFEE778
:109750002C00002004ED00E004D10020546D725173
:1097600000000000546D72205376630019960008C3
:10977000002801D040687047502080F31188BFF363
:109780004F8FBFF36F8FFEE7002801D0006870474E
:10979000502080F31188BFF34F8FBFF36F8FFEE728
:1097A00010B50446002808D0FEF71AFF606960B1C2
:1097B0000124FEF731FF204610BD502080F31188B0
:1097C000BFF34F8FBFF36F8FFEE70024F1E710B5B3
:1097D0000446002806D0FEF703FF246AFEF71CFFAC
:1097E000204610BD502080F31188BFF34F8FBFF388
:1097F0006F8FFEE770B50D460446002806D0FEF7D1
:10980000EFFE2562BDE87040FEF706BF502080F3F2
:109810001188BFF34F8FBFF36F8FFEE7806A7047E9
:109820008162704770B50024FE4D04EB840005EBA7
:10983000800001F0F5F9641C0F2CF6D3FA4801F012
:10984000EFF9F948143001F0EBF9F748283001F04E
:10985000E7F9F5483C3001F0E3F9F348503001F006
:10986000DFF9F248F04941631431816370BD70B58E
:109870000446FEF7B5FEED4DA868401CA8602868B8
:1098800010B1686938B10CE02C60A868012808D1D3
:10989000FFF7C8FF05E02868E16AC06A884200D87F
:1098A0002C60686A401C68622064E06A01212A69B1
:1098B000814011432961DB4900EB800001EB80000E
:1098C000211D01F0BBF9FEF7A7FE686900280CD046
:1098D0002868E16AC06A884207D2D5494FF08050B3
:1098E0000860BFF34F8FBFF36F8F70BD2DE9F04756
:1098F0008146DDE908580A9C0E4617469A46002E16
:1099000014D0B900A522206B1BF0D4FF206B7F1E62
:1099100000EB870020F0070778070FD0502080F376
:109920001188BFF34F8FBFF36F8FFEE7502080F396
:109930001188BFF34F8FBFF36F8FFEE7002022180F
:10994000315C82F83410315C11B1401C0A28F6D326
:10995000002684F83D600F2D00D30E25E562A56436
:10996000E664201D01F067F904F1180001F063F9C5
:109970002461C5F10F00A0616462266584F854601B
:10998000524649463846FEF78FFD2060B8F1000F79
:1099900001D0C8F80040BDE8F0872DE9FF5F81469F
:1099A000DDE90E788A4616469B46B000FEF7B3FC0A
:1099B000054628000AD05820FEF7ADFC04460CB13D
:1099C000256304E02846FEF71DFD00E000248CB16D
:1099D0000020CDE90240CDE900785B463246514691
:1099E0004846FFF783FF2046FFF741FF012004B000
:1099F000BDE8F09F4FF0FF30F9E78C48416B0968F4
:109A0000002905D0416BC968C968496881627047FF
:109A10004FF0FF318162704710B50446206BFEF7AE
:109A2000F1FC2046BDE81040FEF7ECBC70B50446E2
:109A3000FEF7D6FD7D4D04B92C68201D01F022F9FA
:109A400058B9E06A774A00EB800152F8211021B939
:109A500001218140286988432861A06A18B104F176
:109A6000180001F00FF9686A401C68622868844297
:109A700008D16D48211D3C3001F0E0F86868401CB9
:109A8000686007E0A868401EA8602046FFF7C4FF92
:109A9000FFF7B3FFFEF7C0FD6869002814D02868FF
:109AA000844211D1286B38B1502080F31188BFF364
:109AB0004F8FBFF36F8FFEE75D494FF08050086016
:109AC000BFF34F8FBFF36F8F70BD2DE9F0410026BC
:109AD000564F386B002808D0B869401CB861F86947
:109AE00000B101263046BDE8F081FD686D1CFD60C7
:109AF0009DB9786B006838B1502080F31188BFF3AE
:109B00004F8FBFF36F8FFEE7786BB96B7963B863E4
:109B1000386A401C3862FFF770FFB86ADFF80481CA
:109B200085420DD3786B006838B1786BC068C46823
:109B3000606885420ED2B86202E04FF0FF30B86232
:109B40003868C06A00EB800058F820000128C6D9A8
:109B50000126C4E7201D01F095F8A06A18B104F1B0
:109B6000180001F08FF8E06A01213A698140114341
:109B7000396100EB800008EB8000211D01F05EF8E8
:109B8000E06A3968C96A8842CCD30126CAE72DE960
:109B9000F04100240027254D286B002807D0FEF750
:109BA0001FFD286B401E2863286B40B153E05020F6
:109BB00080F31188BFF34F8FBFF36F8FFEE7A86864
:109BC000C0B3DFF86480012608F128081DE0D8F84A
:109BD0000C00C46804F1180001F054F8201D01F0D5
:109BE00051F8E06A2A6906FA00F1114329610D492A
:109BF00000EB800001EB8000211D01F01FF8E06AFE
:109C00002968C96A884200D3EE61D8F800000028AC
:109C1000DDD10CB1FFF7F1FEAC6994B1FFF755FF50
:109C200050B108E02CD1002058D200204000002084
:109C300004ED00E00FE0EE61641E002CEED1002088
:109C4000A861E86938B10127F94938070860BFF30E
:109C50004F8FBFF36F8FFEF7DFFC384643E72DE9E8
:109C6000F04104460F46F34EF5683068001D01F0E0
:109C700009F838B9306890F82C1001208840316913
:109C800081433161601C07D137B13168BDE8F041D3
:109C9000091DE94800F0D2BF2C4430684460AC4252
:109CA00006D23168B06B091DBDE8F04100F0D2BFAB
:109CB0003168706B091D00F0CDFFB06A844200D29C
:109CC000B46210E7DB48016B491C0163704770B553
:109CD00005460E460023002D0BD096B1D54A106BD9
:109CE000B8B1502080F31188BFF34F8FBFF36F8F4F
:109CF000FEE7502080F31188BFF34F8FBFF36F8FC3
:109D0000FEE7502080F31188BFF34F8FBFF36F8FB2
:109D1000FEE7FFF7D7FFD2682C68A119944205D956
:109D20008C4208D9914206D9012304E08C4201D823
:109D3000914200D9012329601BB1881A0021FFF745
:109D40008EFFFFF724FF002807D1B9494FF080505C
:109D50000860BFF34F8FBFF36F8F70BD10B5024621
:109D60000020002A12D0B348006B38B1502080F395
:109D70001188BFF34F8FBFF36F8FFEE7FFF7A2FF8E
:109D800000211046FFF76BFFFFF701FF002807D106
:109D9000A7494FF080500860BFF34F8FBFF36F8F1C
:109DA00010BD2DE9F0410446002C05D0A14F3868C4
:109DB000844209D1002096E6502080F31188BFF339
:109DC0004F8FBFF36F8FFEE7FEF70AFC65697E6B6E
:109DD000BF6BFEF721FCB54201D0BD4201D102208C
:109DE00081E6954885420BD1A06A08B102207AE647
:109DF00094F85400012801D0032074E6022072E692
:109E00008D481438854202D00DB101206BE6042044
:109E100069E610B50446FEF7E3FB0CB98548046813
:109E2000E46AFEF7F9FB204610BD10B50446FEF7C4
:109E30001AFC5020EFF3118180F31188BFF34F8F8C
:109E4000BFF36F8F0CB97B480468E06A81F3118817
:109E500010BD2DE9F04104460D4600260F2D07D315
:109E6000502080F31188BFF34F8FBFF36F8FFEE751
:109E7000FEF7B6FB6F4F04B93C68A06CA84241D016
:109E8000854208D939688C4209D03968C96AA94223
:109E900005D8012603E039688C4200D10126D4F8A8
:109EA0002C80404500D1E562A564A069002802DB52
:109EB000C5F10F00A061614D08EB8801606905EBF9
:109EC0008101884215D1201D00F0DCFE012120B95E
:109ED0003A6901FA08F082433A61E06A3A698140DE
:109EE0001143396100EB800005EB8000211D00F07B
:109EF000A5FE3EB14E494FF080500860BFF34F8F32
:109F0000BFF36F8FBDE8F041FEF786BB10B5494C3B
:109F1000206B002802D00120E06110BD0020E0612C
:109F20002068006B4FF0A5320168914208D141686A
:109F3000914205D18168914202D1C068904204D01B
:109F4000216820683431FEF7CCFB2069B0FA80F03C
:109F5000C0F11F00394900EB800051F8202072B198
:109F600001EB800041684968416000F108029142BC
:109F700001D1496841604068C068206010BD502030
:109F800080F31188BFF34F8FBFF36F8FFEE770B57B
:109F90000446FEF725FB274D04B92C68201D00F070
:109FA00071FE58B9E06A254A00EB800152F8211091
:109FB00021B901218140286988432861A06A18B12C
:109FC00004F1180000F05EFE211D1B4800F036FE73
:109FD00094F854000026012801D184F85460FEF75B
:109FE0001BFB686928B1FEF7FBFAFFF706FDFEF7D9
:109FF00013FB2868844213D1686990B1286B38B18B
:10A00000502080F31188BFF34F8FBFF36F8FFEE7AF
:10A0100007494FF080500860BFF34F8FBFF36F8F39
:10A0200070BD05480068A968884209D12E6070BDDE
:10A0300004ED00E040000020A8D200202CD1002038
:10A04000BDE8704062E7002100280AD0FC4B42695D
:10A050009A420FD1806AA3F1280290420AD040B1FF
:10A0600008E0502080F31188BFF34F8FBFF36F8F4C
:10A07000FEE701210846704770B5044600282BD042
:10A08000F04D28688442D2D0FEF7AAFA2046FFF7A6
:10A09000DAFFE8B1201D00F0F5FDE06A01212A6930
:10A0A000814011432961E84900EB800001EB800009
:10A0B000211D00F0C3FDE06A2968C96A884207D300
:10A0C000E2494FF080500860BFF34F8FBFF36F8FAE
:10A0D000BDE87040FEF7A0BA502080F31188BFF3AE
:10A0E0004F8FBFF36F8FFEE7A1E72DE9F041002608
:10A0F000044600281BD0FEF7B6FA5020EFF3118576
:10A1000080F31188BFF34F8FBFF36F8F2046FFF7A7
:10A110009AFF40B1CB4F386B88B1C94804F11801A0
:10A12000283800F08BFD85F311883046DBE45020A1
:10A1300080F31188BFF34F8FBFF36F8FFEE7E06AA4
:10A140003968C96A884200D30126201D00F09AFDB3
:10A15000E06A01213A69814011433961BA4900EB53
:10A16000800001EB8000211D00F068FDDBE770B589
:10A17000B34EB44D143E11E0FEF732FAF068C468F5
:10A18000201D00F07FFDA868401EA8606868401E82
:10A190006860FEF741FA2046FFF73EFC6868002839
:10A1A000EAD144E7A84E4FF08054A84DFFF7DFFFF7
:10A1B0003068012804D92C60BFF34F8FBFF36F8F35
:10A1C000FEF78EFAF2E71CB59E4800242C30CDE94C
:10A1D0000040234682229EA19F48FFF7DEFB012814
:10A1E00001D1FFF742FA012809D0401C19D15020B3
:10A1F00080F31188BFF34F8FBFF36F8FFEE75020BE
:10A2000080F31188BFF34F8FBFF36F8F8D484FF0EE
:10A21000FF31816201214161C460BDE81C40FEF74D
:10A2200062B91CBD502080F31188BFF34F8FBFF37C
:10A230006F8F844900204861FEF7C4B98148C06827
:10A24000704710B5FEF70FFA7E48C06810BD7D4814
:10A2500080687047002801D17A48006808B134301E
:10A260007047502080F31188BFF34F8FBFF36F8F7B
:10A27000FEE7002101E0401C491C0278A52AFAD023
:10A28000880880B270472DE9F0410C4617466D49A9
:10A29000002815D00546256005F134006060E86AA5
:10A2A0002061286BE061286CA060A86C60610026CA
:10A2B000A661052B12D00868854203D1267311E0F0
:10A2C0000D68E8E72373032B0CD1FFF7FBFCA86AAA
:10A2D00008B102202073FFF75AFC03E02846FFF77D
:10A2E00060FD207327B1286BFFF7C3FF2084B5E41E
:10A2F0002684B3E42DE9F04780460C4691460026BB
:10A300002068002821D0214648684068486001F153
:10A310000807B84201D1406848604868D0F80CA0EE
:10A32000606845686560BD4201D1696861606068C8
:10A33000C56806EBC60008EB80014B4601222846A3
:10A34000FFF7A1FF761C5545EAD13046BDE8F087FE
:10A350002DE9F04706460B46174600240F25FFF768
:10A36000B1FCDFF8E080D8F8080083423AD3DFF888
:10A37000D8906D1E05EB850009EB800104EBC4004D
:10A3800006EB80000122FFF7B5FF0444002DF0D159
:10A3900004EBC40006EB80000222D8F83410FFF76B
:10A3A000A9FF044404EBC40006EB80000222D8F8A5
:10A3B0003810FFF79FFF0444214904EBC40006EB6B
:10A3C000800004221439FFF795FF044404EBC40015
:10A3D00006EB800003221A49FFF78CFF04440FB1FB
:10A3E00000203860FFF7D3FB2046AFE710B50C46DE
:10A3F000002809D013490968183100F02BFC2046C9
:10A40000BDE8104001212AE4502080F31188BFF3F9
:10A410004F8FBFF36F8FFEE710B5144600281DD095
:10A42000084B1A6B12B31A6841F000419161196828
:10A43000183100F003FC2046BDE8104001210EE475
:10A44000A8D20020400000202CD1002004ED00E024
:10A4500049444C4500000000A5A10008502080F3AD
:10A460001188BFF34F8FBFF36F8FFEE7502080F34B
:10A470001188BFF34F8FBFF36F8FFEE770B50D46A6
:10A48000144600280DD0FE490968183100F0D6FBAB
:10A490000CB14FF0FF3521462846BDE87040FFF76C
:10A4A000DEBB502080F31188BFF34F8FBFF36F8F57
:10A4B000FEE72DE9F041C068C468002C14D004F117
:10A4C0001800074600F0DEFBED4D2A6B01269AB11D
:10A4D0003946EC4800F0B2FBE06A2968C96A884254
:10A4E0001CD90120EE6166E4502080F31188BFF38F
:10A4F0004F8FBFF36F8FFEE7201D00F0C3FBE06AB4
:10A500002A6906FA00F111432961DF4900EB800056
:10A5100001EB8000211D00F091FBDDE700204AE403
:10A5200070B5D74D2A6B002A1FD041F00041016061
:10A53000C46814B300F0A6FB201D00F0A3FBE06A82
:10A5400001262A6906FA00F111432961CE4900EB80
:10A55000800001EB8000211D00F070FBE06A29689B
:10A56000C96A884200D9EE6161E5502080F3118804
:10A57000BFF34F8FBFF36F8FFEE7502080F311883A
:10A58000BFF34F8FBFF36F8FFEE710B50446002C6B
:10A590000AD0FEF725F8BA48016A2160C0686060F9
:10A5A000BDE81040FEF738B8502080F31188BFF3A3
:10A5B0004F8FBFF36F8FFEE7B1490A6A0260C96827
:10A5C000416070472DE9F04105460C46002D11D041
:10A5D000C4B1FEF705F8AA4EF0686B68C11A22688C
:10A5E000571C17D02F68366AB74215D0834213D84C
:10A5F00001241DE0502080F31188BFF34F8FBFF37B
:10A600006F8FFEE7502080F31188BFF34F8FBFF3A9
:10A610006F8FFEE700240BE08A4206D9501A2060B3
:10A620002846FFF7C9FF002402E000202060012433
:10A63000FDF7F2FF204679E591490120C861704796
:10A64000002801D0406C704700207047002800D0DF
:10A65000416470478A480068704789484169002909
:10A6600003D0006B18B10020704701207047022012
:10A67000704770B504460020002C39D0804DE16A47
:10A680002A68D26A914234D2A069002804DB286883
:10A69000C06AC0F10F00A061E06A7B4E00EB800051
:10A6A000616906EB800081421ED1201D00F0EAFAAC
:10A6B000012150B9E06A00EB800256F8222022B94D
:10A6C0002A6901FA00F082432A612868C06AE062C0
:10A6D0002A6981401143296100EB800006EB80006C
:10A6E000211D00F0ABFA02E02868C06AE062012098
:10A6F0009DE4A16C2A68D26A9142F9D2012096E4C5
:10A7000070B504460020002C41D05D4D29688C4274
:10A7100007D0502080F31188BFF34F8FBFF36F8FA6
:10A72000FEE7E16C71B1491EE164A36CE26A9A42F2
:10A730002DD000292BD1201D00F0A4FA524A01216E
:10A7400040B112E0502080F31188BFF34F8FBFF368
:10A750006F8FFEE7E06A00EB800352F8233023B9E5
:10A7600001FA00F3286998432861A06CE062C0F107
:10A770000F00A061E06A2B6981401943296100EB59
:10A78000800002EB8000211D00F058FA01204EE409
:10A7900070B50B46044600284BD0E26CA2B1A16C08
:10A7A000994200D21946E06A884242D0012A40D13B
:10A7B000334D2A6894420FD1502080F31188BFF3A3
:10A7C0004F8FBFF36F8FFEE7502080F31188BFF3E8
:10A7D0004F8FBFF36F8FFEE7E162A269002A02DBB1
:10A7E000C1F10F01A161284E00EB8000616906EB09
:10A7F000800081421DD1201D00F044FA012150B992
:10A80000E06A00EB800256F8222022B901FA00F239
:10A81000286990432861E06A2A69814011432961CF
:10A8200000EB800006EB8000211DBDE8704000F0C9
:10A8300005BA59E41249086880690A680968D26A49
:10A84000C2F10F028A6170470D490868002803D0E1
:10A850000868C26C521CC2640868704770B506462E
:10A860000C46FDF7BDFE064D2868006DC0B92A688C
:10A87000012082F854009CB10121204606E000002E
:10A880004000002080D200202CD10020FFF7E7F903
:10A89000DF494FF080500860BFF34F8FBFF36F8FD9
:10A8A000FDF7BAFEFDF79CFE2868046D002034B168
:10A8B00016B12968086502E02A68611E11652968D9
:10A8C00081F85400FDF7A8FE20460DE42DE9F0477D
:10A8D00081460F4616469846FDF782FECD4D286804
:10A8E00090F85400022817D02C68206D20EA090047
:10A8F00020652968012081F85400B8F1000F0BD0C1
:10A9000001214046FFF7ABF9C1494FF08050086084
:10A91000BFF34F8FBFF36F8FFDF77EFEFDF760FE35
:10A9200016B12868006D3060286890F8540002283D
:10A9300001D0002404E02868016DB94301650124B9
:10A940002968002081F85400FDF766FE2046FDE4EA
:10A950002DE9F0410D4690461F460126002812D0F1
:10A960000446FDF73DFE0FB1206D386094F85400A9
:10A97000022184F85410B8F1050F1CD2DFE808F06A
:10A98000260B0F131500502080F31188BFF34F8F53
:10A99000BFF36F8FFEE7216D2943216516E0216D1E
:10A9A000491C216512E0256510E0022801D02565CB
:10A9B0000CE000260AE0216D491C07D0502080F3EE
:10A9C0001188BFF34F8FBFF36F8FFEE7012828D1A7
:10A9D000201D00F057F98F4DE06A01212A6981405E
:10A9E000114329618C4900EB800001EB8000211D9F
:10A9F00000F024F9A06A38B1502080F31188BFF329
:10AA00004F8FBFF36F8FFEE7E06A2968C96A8842FB
:10AA100007D97F494FF080500860BFF34F8FBFF3D5
:10AA20006F8FFDF7F9FD304661E42DE9F0470446EC
:10AA3000DDF820800D4691469A460127002C1DD056
:10AA4000FDF711FE5020EFF3118680F31188BFF35C
:10AA50004F8FBFF36F8FBAF1000F02D0206DCAF88D
:10AA6000000094F85400022184F85410B9F1050F45
:10AA70001CD2DFE809F0260B0F131500502080F3DD
:10AA80001188BFF34F8FBFF36F8FFEE7216D29430E
:10AA9000216516E0216D491C216512E0256510E055
:10AAA000022801D025650CE000270AE0216D491C31
:10AAB00007D0502080F31188BFF34F8FBFF36F8F03
:10AAC000FEE701281FD1A06A38B1502080F3118819
:10AAD000BFF34F8FBFF36F8FFEE74E4D286B4FF0E4
:10AAE0000109A0B104F118014C4800F0A7F8E06A90
:10AAF0002968C96A884206D9B8F1000F01D0C8F8A0
:10AB00000090C5F81C9086F3118838461EE4201D7D
:10AB100000F0B8F8E06A2A6909FA00F111432961E6
:10AB20003D4900EB800001EB8000211D00F086F81C
:10AB3000DDE72DE9F04104468846002C15D0FDF7ED
:10AB400092FD5020EFF3118780F31188BFF34F8FF0
:10AB5000BFF36F8F94F85400022184F85410216DD4
:10AB6000491C2165012808D025E0502080F3118878
:10AB7000BFF34F8FBFF36F8FFEE7A06A38B150204D
:10AB800080F31188BFF34F8FBFF36F8FFEE7214D26
:10AB9000286B012690B104F11801204800F04EF80E
:10ABA000E06A2968C96A884205D9B8F1000F01D066
:10ABB000C8F80060EE6187F3118894E4201D00F06E
:10ABC00061F8E06A2A6906FA00F111432961124925
:10ABD00000EB800001EB8000211D00F02FF8DFE783
:10ABE00010B500280BD00446FDF7FAFC94F8540089
:10ABF000022807D00024FDF70FFD204610BD0548B0
:10AC00000468F1E7002084F854000124F3E7000011
:10AC100004ED00E0400000202CD1002080D2002074
:10AC200000F1080141604FF0FF328260C1600161B4
:10AC300000210160704700210161704742684A604D
:10AC400093688B6093685960916008610168491C42
:10AC50000160704730B50C68621C02D000F1080238
:10AC600002E0026904E01A4653681D68A542FAD959
:10AC700053684B6099608A60516008610168491CA3
:10AC8000016030BD0169D0E901329A60D0E9012349
:10AC90005A604A68824201D182684A600022026199
:10ACA0000868401E086008687047000035490020A9
:10ACB0000860091D0860091D0860091D0860314908
:10ACC000314814310860704730B52E4A83790168E5
:10ACD000002B2AD013688B431360111D0B68046886
:10ACE000A3430B60017911440B68046823430B6094
:10ACF000244C08342168036899432160231D196896
:10AD00000568A94319604179102905D011440A68E2
:10AD1000006802430A6030BD216802681143216067
:10AD2000196800680143196030BD00791044026859
:10AD30008A43026030BD0021016001710C22427122
:10AD4000817170470F4910310A6802430A607047E9
:10AD5000014600200B4A143212680A4200D001203A
:10AD60007047084914310860704701460020054AC1
:10AD7000143212680A4200D0012070470149143190
:10AD800008607047003C0140FFFF7F00F8490870F1
:10AD90007047F749002804D0086840F480700860C4
:10ADA0007047086820F4807008607047F0490028F8
:10ADB00004D0086840F4007008607047086820F408
:10ADC000007008607047EA49002804D0086840F421
:10ADD000806008607047086820F4806008607047F1
:10ADE000E348016841F4006101607047E048016890
:10ADF00041F4805101607047DD4810300068002840
:10AE000005DADB48DB49001D0160DB490160704762
:10AE1000D7481030016841F00041016070470920B7
:10AE2000D3490C310A68D20301D5012070470A6862
:10AE3000D20601D5062070470A68D20501D5022046
:10AE400070470A6812F0E00F01D0072070470968C8
:10AE50008907FBD50820704708B509200090FFF747
:10AE6000DEFF009002E0FFF7DAFF00909DF800009F
:10AE70000128F8D09DF8000008BD70B506460025F1
:10AE8000002905D0012928D0022929D04FF4407586
:10AE9000FFF7E2FF09281FD1B54C1034206820F4D9
:10AEA00040702060206828432060206820F0F8006F
:10AEB0002060206846F0020108432060206840F4CA
:10AEC00080302060FFF7C8FF216821F00201216077
:10AED000216821F0F801216070BD4FF48075D7E73B
:10AEE0004FF40075D4E730B504460025FFF7B4FFF2
:10AEF0002CB1012C1CD0022C1DD04FF44075092818
:10AF000015D19B4C1034206820F4407020602068DC
:10AF1000284320602068E51328432060206840F41F
:10AF200080302060FFF798FF2168A943216030BD81
:10AF30004FF48075E3E74FF40075E0E730B5044661
:10AF40000025FFF789FF2CB1012C1DD0022C1ED04B
:10AF50004FF44075092816D1854C1034206820F430
:10AF600040702060206828432060206840F0040082
:10AF70002060206840F480302060FFF76DFF21687A
:10AF800021F00401216030BD4FF48075E2E74FF4F9
:10AF90000075DFE730B504460025FFF75DFF2CB1F3
:10AFA000012C1DD0022C1ED04FF44075092816D15B
:10AFB0006F4C1034206820F44070206020682843D3
:10AFC0002060206840F400402060206840F4803019
:10AFD0002060FFF741FF216821F40041216030BD6E
:10AFE0004FF48075E2E74FF40075DFE7F0B50746F0
:10AFF00015461E46FFF730FF092815D15C4C10346A
:10B00000206820F440702060206840F44070206088
:10B01000206840F0010020603D607E60FFF71CFF6B
:10B02000216821F001012160F0BD70B505460E4692
:10B03000FFF712FF092814D14D4C1034206820F47A
:10B0400040702060206840F400702060206840F06C
:10B05000010020602E60FFF7FFFE216821F0010152
:10B06000216070BD70B505460E46FFF7F5FE092854
:10B0700014D13F4C1034206820F4407020602068C8
:10B0800040F480702060206840F0010020602E8035
:10B09000FFF7E2FE216821F00101216070BD70B56B
:10B0A00006460D46FFF7D8FE092812D1304C103461
:10B0B000206820F44070206020682060206840F004
:10B0C000010020603570FFF7C7FE216821F0010103
:10B0D000216070BD264814300068C00705D02448A0
:10B0E0002649083001602649016070472048143025
:10B0F000016841F001010160704730B504460D461A
:10B10000FFF7AAFE092805D1194816301DB101889C
:10B11000A143018030BD01882143018030BD30B59D
:10B1200004460D46FFF798FE092805D110481A304D
:10B130001DB10188A143018030BD018821430180F8
:10B1400030BD0B4A1732117801F07F0108431070AF
:10B15000704730B504460D46FFF77EFE092805D13D
:10B160000348163075B101882143018030BD0000CD
:10B17000003C024023016745AB89EFCD3B2A19080B
:10B180007F6E5D4C0188A1430180EFE730B5044636
:10B190000D46FFF761FE0928E8D13E481DB1018840
:10B1A00021430180E2E70188A1430180DEE710B579
:10B1B0000446FFF751FE092802D13648401F0470AB
:10B1C00010BD70B505460C461646FFF745FE09282A
:10B1D00008D1304A921F107800F01F000443344316
:10B1E0002C43147070BD2B49891F0A7822F010027D
:10B1F0000A700A7802430A7070472649891F0A7844
:10B2000022F00C020A700A7802430A707047214843
:10B21000801F017841F0020101701DE61D48801F6A
:10B220000068C0F3471070471A48001F0088704735
:10B230001848008870471748001F00887047154855
:10B240000088704700201349491F0978AA2900D0B7
:10B25000012070470F48801F007800F00C007047F5
:10B260000C4A0A3A002903D0116801431160704763
:10B27000116881431160704701460020054A0E3A6B
:10B2800012680A4200D00120704702490E39086056
:10B29000704700001A3C024010B58D49884209D120
:10B2A0000121084600F043FD0021BDE810400120C7
:10B2B00000F03DBD8749884209D10121022000F0FC
:10B2C00036FD0021BDE81040022000F030BD82496B
:10B2D000884209D10121042000F029FD0021BDE8A8
:10B2E0001040042000F023BD7C49884209D101218F
:10B2F000082000F01CFD0021BDE81040082000F0EF
:10B3000016BD7749884209D10121102000F00FFDB8
:10B310000021BDE81040102000F009BD71498842AD
:10B3200009D10121202000F002FD0021BDE81040DC
:10B33000202000F0FCBC6C49884209D1012140204A
:10B3400000F0F5FC0021BDE81040402000F0EFBC0B
:10B350006649884209D10121802000F0E8FC0021E3
:10B36000BDE81040802000F0E2BC614988420AD16B
:10B3700084150121204600F0DAFC2046BDE810408B
:10B38000002100F0D4BC5B4988420AD14415012158
:10B39000204600F0CCFC2046BDE81040002100F023
:10B3A000C6BC554988420AD104150121204600F047
:10B3B000BEFC2046BDE81040002100F0B8BC10BD26
:10B3C0002DE9F041002201274FF0030C07FA02F5A6
:10B3D0000B682B40AB422CD1066853000CFA03F4E7
:10B3E000A64306600E79D0F800809E4046EA080623
:10B3F00006600E79012E01D0022E12D18668A64376
:10B4000086604E79D0F808809E4046EA080686603D
:10B410004668AE43466045688E799640B6B235437D
:10B420004560C568A543C560CC799C40C3681C4392
:10B43000C460521C102AC9D3BDE8F0814FF6FF71D9
:10B4400001600021017141718171C171704708B5BE
:10B4500041F480320092009AC261C1610099C161D9
:10B46000C169C069009008BD0246002012690A4205
:10B4700000D001207047006980B27047024600206A
:10B4800052690A4200D001207047406980B270477B
:10B490000183704741837047002A01D001837047C0
:10B4A000418370474161704742694A404261704739
:10B4B00010B54B07DB0E9A40C90800EB8100016A0A
:10B4C0000F249C40A1430162016A1143016210BD37
:10B4D000000002400004024000080240000C02404C
:10B4E000001002400014024000180240001C0240FC
:10B4F0000020024000240240002802400D4908605C
:10B5000070470C49486070470A498860704709498C
:10B510004AF6AA200860704706494CF6CC400860FD
:10B52000704701460020034AD2680A4200D0012039
:10B53000704700000030004010B501210C07204684
:10B5400000F019FC2046BDE81040002100F013BCBB
:10B55000494908627047494A116821F0E0010143F6
:10B56000116070474449086170474349A031086041
:10B5700070474149A43108607047404A116821F47E
:10B5800040410143116070473B49086470473A49A4
:10B59000486470473949002804D0086840F44020C6
:10B5A00008607047086820F44020086070473249FE
:10B5B000002802D00120C86270470020C86270478E
:10B5C0002D49002802D0012088627047002088623F
:10B5D000704729494862704710B5284B1A6840F6F1
:10B5E0000344A24302431A602548026842F0040261
:10B5F0000260012905D020BF016821F0040101602B
:10B6000010BD30BFF8E710B51C4B1A6840F6034474
:10B61000A24302431A601A48026842F00402026020
:10B62000012905D020BF016821F00401016010BD8F
:10B6300030BFF8E71148016841F00201016010488D
:10B64000016841F00401016030BF704701460020ED
:10B650000A4A52680A4200D0012070470749B0F5F3
:10B66000402F04D00A6842EA8000086070474868AA
:10B6700040F440204860704700000E4200700040D7
:10B6800010ED00E02DE9F043016821F001010160B7
:10B690000021016041608160C1600161212141613F
:10B6A000C149C14A10394FF03D08904203D1C1F859
:10B6B0000880BDE8F083BC4A4FF4746518329042AC
:10B6C00001D18D60F5E7B84A4FF4741630329042DC
:10B6D00001D18E60EDE7B44A4FF074674832904272
:10B6E00001D18F60E5E7B04BB04A6033984201D199
:10B6F000CA60DEE7AC4CAE4B7834A04201D1CB60DF
:10B70000D7E7DFF8A4C2AB4C0CF1900C604501D137
:10B71000CC60CEE7DFF890924FF03D5C09F1A809CC
:10B72000484502D1C1F80CC0C3E7A349DFF88892AD
:10B730000839484502D1C1F80080BAE7DFF87882BD
:10B7400008F11808404501D10D60B2E79A4D303537
:10B75000A84201D10E60ACE7974D4835A84201D10F
:10B760000F60A6E7944D94496035091FA84201D1A6
:10B770000A609EE7904A7832904201D10B6098E7C8
:10B780008D4A9032904201D10C6092E78A4AA832E9
:10B7900090428ED1C1F800C08BE730B50368874A6C
:10B7A0001340CC680A682243D1E905452C43224363
:10B7B000CC6922430C6A22434C6A22438C6A22439E
:10B7C0004C6B22438C6B22431A430260426922F085
:10B7D0000703D1E90B2422431A4342610A694260FC
:10B7E0004A6882608968C16030BD002101604160A3
:10B7F0008160C160016141618161C1610162416239
:10B800008162C1620163416381637047002904D092
:10B81000016841F0010101607047016821F00101F8
:10B8200001607047002904D0016841F400410160C3
:10B830007047016821F4004101607047002904D07D
:10B84000016841F0200101607047016821F020018A
:10B850000160704741607047406880B27047002ABD
:10B8600004D0026842F40022026003E0026822F47D
:10B870000022026001617047002904D0016841F490
:10B88000802101607047016821F4802101607047C8
:10B89000002A01D001617047C16070470146002055
:10B8A0000968090300D50120704701460020096896
:10B8B000C90700D001207047406900F03800704788
:10B8C000024600203C4B9A4202D2374A103A01E02D
:10B8D000394A103A8B0001D5526800E01268384BA3
:10B8E0001A400A4200D001207047334A904202D2E7
:10B8F0002D48103801E030481038314A8B0001EAF9
:10B90000020101D5C1607047816070470B0609D5FF
:10B9100022B1436943F08003436103E0436923F0AC
:10B9200080034361802905D001F01E011AB102682D
:10B930000A430260704702688A430260704730B56C
:10B9400000241D4A904202D2174A103A01E01A4AD6
:10B95000103A1C4B194205D01E2303EAD125036877
:10B960002B4002E0406900F08003880001D5506858
:10B9700000E01068124A1040084201D003B10124CF
:10B98000204630BD0C4A904202D20748103801E0F0
:10B99000094810380A4A8B0001EA020101D5C1604A
:10B9A0007047816070470000106002403D00002039
:10B9B000400F002000003D20106402403F801CF03A
:10B9C0007D0F7D0F3C0F3C0FF748016841F00101EE
:10B9D0000160F54A0021083211600268F34B1A40F9
:10B9E0000260031DF24A1A60EF4BF24A84331A6078
:10B9F000EF4A103A1B1D1A60026822F4802202608E
:10BA0000E9480C300160181D01607047E6490022CA
:10BA1000891C0A70087070470246002051090129EC
:10BA20000CD002290DD0E0497431096802F01F02E0
:10BA3000012393400B4200D001207047DA49096886
:10BA4000F4E7D94970310968F0E718B50020009093
:10BA50004FF4A0443120FFF7DFFF0099491C00910B
:10BA60000099A14201D00028F4D03120FFF7D4FF83
:10BA700008B1012018BD002018BDCB4A116821F083
:10BA8000F80141EAC00010607047CB490860704778
:10BA9000C549002270310A700A70012804D00428B8
:10BAA00001D1052008707047012008707047C34914
:10BAB0000860704710B5029C41EA82114FF0FF32D6
:10BAC00002EB530241EA0241014341EA0460B649F4
:10BAD000091D086010BDB84908667047800140EA3A
:10BAE0000160B14940EA0270843108607047B24990
:10BAF00088667047800140EA0160AB4940EA027005
:10BB0000883108607047AC4908677047AA49C86423
:10BB10007047A54B08331A6822F0EC6208431043C3
:10BB200018607047A04B08331A6822F07842084327
:10BB30001043186070479C4A0832116821F00301D5
:10BB400001431160704798480830006800F00C000D
:10BB50007047954A0832116821F0F00101431160E5
:10BB60007047914A0832116821F4E0510143116095
:10BB700070478D4A0832116821F4604141EAC000E3
:10BB80001060704770B5884B0833196801F00C01DC
:10BB90008B4C00291ED0661004291DD008291DD009
:10BBA0000460196801F0F0010909864A545C0168D3
:10BBB000E14041601C6804F4E054A40A145D21FAD9
:10BBC00004F484601B6803F460435B0BD25CD140D7
:10BBD000C16070BD0460E4E70660E2E7724A121DCE
:10BBE0001168C1F38055116801F03F0135B1B6FB12
:10BBF000F1F11468C4F38814614305E0B4FBF1F17A
:10BC00001468C4F3881461431268C2F30142521CE1
:10BC10005200B1FBF2F10160C3E7C0F30121032937
:10BC200008D1614B0833196821F4F81266490140C4
:10BC3000114319605C4A70321168C0F30B00014374
:10BC4000116070475D494439086070475B4940396D
:10BC5000086070475D4908607047534A8C3211682C
:10BC600021F440110143116070474F4A8C32116832
:10BC700021F440010143116070474B4A8C32116836
:10BC800021F01F01401E014311607047464A8C326B
:10BC9000116821F4F851401E41EA002010607047FD
:10BCA000414A8C32116821F44031014311607047E0
:10BCB0004749086070473C4A3032002903D0116878
:10BCC0000143116070471168814311607047364A23
:10BCD0003432002903D011680143116070471168A4
:10BCE000814311607047304A3832002903D011680F
:10BCF00001431160704711688143116070472A4AFF
:10BD00004032002903D01168014311607047116867
:10BD1000814311607047244A4432002903D01168DE
:10BD200001431160704711688143116070471E4ADA
:10BD30001032002903D01168014311607047116867
:10BD4000814311607047184A1432002903D01168EA
:10BD50000143116070471168814311607047124AB6
:10BD60001832002903D0116801431160704711682F
:10BD70008143116070470C4A2032002903D01168BA
:10BD80000143116070471168814311607047064A92
:10BD90002432002903D011680143116070471168F3
:10BDA000814311607047000000380240FFFFF6EA4F
:10BDB000103000240030002000004742800E47422F
:10BDC0000024F4007C000020FFFCFF0F5C014742D0
:10BDD000E0114742344A002903D011680143116041
:10BDE000704711688143116070472F4A121D002966
:10BDF00003D01168014311607047116881431160DD
:10BE00007047294A0832002903D0116801431160A4
:10BE100070471168814311607047234A103200292E
:10BE200003D01168014311607047116881431160AC
:10BE300070471D4A1432002903D011680143116074
:10BE400070471168814311607047174920310128FC
:10BE500004D0086820F0080008607047086840F0C7
:10BE6000080008607047104A433A002903D011784F
:10BE700001431170704711788143117070470A486F
:10BE80002430016841F08071016070470146002054
:10BE9000054A443A12680A4200D00120704702491C
:10BEA00042390870704700005038024018B5002031
:10BEB0000090F94BCA20186053201860F6491839D1
:10BEC000086820F0A00008604FF40034086800F013
:10BED0002000009A521C0092009AA24201D0002831
:10BEE000F4D00868800601D5012000E00020FF2181
:10BEF000196018BD08B500200090E7491839086896
:10BF0000400615D44FF0FF3008608B13086800F02E
:10BF10004000009A521C0092009A9A4201D00028D8
:10BF2000F4D00868400601D5012008BD002008BDF6
:10BF3000012008BD78B5002400940025D64ECA2003
:10BF4000306053203060FFF7D5FFE8B3D248243883
:10BF50000460D14942F20110203908600B1D1868B5
:10BF600000F0070018608D13191D086800F0040028
:10BF7000009A521C0092009AAA4201D00028F4D0E4
:10BF80000868400701D4002525E018681C60C24AF3
:10BF90004FF6FF70103A1060121FC0481060BE4884
:10BFA0000C380460001D0460001D0460BA480830AD
:10BFB0000460B94818300460B74820300460001DA0
:10BFC00004600C60B44800E005E01C300460FFF73A
:10BFD0006DFF20B10125FF203060284678BD002587
:10BFE000F9E7AD481838016821F080010160704719
:10BFF00070B504460025A84ECA203060532030603A
:10C00000FFF778FFA8B1A4481C38016821F040016F
:10C01000016001682268114301609F48A1681438DB
:10C0200001600168A28841EA02410160FFF7D9FF7F
:10C030000125FF203060284670BD002101607F216E
:10C040004160FF21816070479349002802D0FF20A2
:10C0500008607047CA20086053200860704770B5B8
:10C06000064600248C4DCA20286053202860FFF724
:10C0700041FF70B188481C3826B1016841F01001B9
:10C08000016003E0016821F010010160FFF7A9FFE2
:10C090000124FF202860204670BD7F4ACA2111601C
:10C0A000532111607C491C39002804D0086840F0F5
:10C0B0002000086003E0086800F0DF000860FF204F
:10C0C00010607047002103E0491CC9B20A38C0B2B1
:10C0D0000A28F9D2090740EA11607047010901EB0B
:10C0E0008101490000F00F000844C0B270472DE9FB
:10C0F000F04105460C460026674F00201C3F002DEE
:10C1000006D03968490608D52078FFF7E7FF05E033
:10C110003968490602D4E07000E0E07055B1A078BB
:10C12000217840EA01456078E178000240EA014068
:10C1300005430FE02078FFF7C5FF05046078FFF79F
:10C14000C1FF45EA0025A078FFF7BCFF0543E07872
:10C1500045EA0045504CCA20206053202060FFF77C
:10C16000C9FE78B14E4805404B4824380560FFF7BA
:10C1700038FF3868800604D4FFF798FE10B1012616
:10C1800000E00126FF2020603046BDE8F08100215C
:10C19000C170017041708170704710B502460C4645
:10C1A0003D48243801683E480140C1F305402070F5
:10C1B000C1F30623637001F07F03A37001F48001D3
:10C1C000090CE170002A0AD1FFF788FF207060781F
:10C1D000FFF784FF6070A078FFF780FFA07010BDAC
:10C1E0002D48001D00682C4920390968704770B53A
:10C1F00005460C460026002D06D16078C10603D501
:10C2000020F010000A3060702DB16078FFF766FFF3
:10C21000A078FFF763FF55B1A078E17840EA0145C7
:10C2200060782178000240EA413005430FE0E07871
:10C23000FFF748FF05046078FFF744FF45EA002553
:10C24000A078FFF73FFF0543207845EA4035124CC0
:10C25000CA20206053202060FFF74CFE88B11148AF
:10C2600005400D4820380560FFF7BBFE0A481C3822
:10C270000068800604D4FFF719FE10B1012600E023
:10C280000126FF202060304670BD012101708170C1
:10C2900041700021C170704724280040FF007F00DA
:10C2A0007F7F7F003FFFFF0010B502460C46FC4831
:10C2B0000168FC480140080CE070C1F3042363707E
:10C2C00001F03F03A370C1F342312170002A0AD16B
:10C2D000FFF704FFE0706078FFF700FF6070A07860
:10C2E000FFF7FCFEA07010BD70B505460E46144663
:10C2F000EB490020091D002D06D00968490608D524
:10C300002078FFF7EBFE05E00968490607D4E070E6
:10C3100005E0E070A068A8B1207BFFF7DFFEADB1BB
:10C32000A0782178E27840EA01406178090241EA88
:10C3300002410843217B40EA0160A168084361682B
:10C3400008431CE0207BFFF7C9FEE8E72078FFF7F1
:10C35000B9FE05046078FFF7B5FE45EA0025A07830
:10C36000FFF7B0FE0543E07845EA0045207BFFF784
:10C37000A9FEA16845EA0060084361680843C8490E
:10C38000CA2220310A6053220A60B6F5807F04D0A9
:10C390000A1F1060FF20086070BDC14A183210608B
:10C3A000F8E70021C1700170417081708160012245
:10C3B000027341606FE710B503461446B1F5807F04
:10C3C0002AD0B7481C300168C1F305402070C1F382
:10C3D0000622627001F07F02A27001F48002120C4A
:10C3E000E270C1F30562227301F08042A26001F0A5
:10C3F00080316160002B0ED1FFF770FE20706078F5
:10C40000FFF76CFE6070A078FFF768FEA070207BDD
:10C41000FFF764FE207310BDA14818300168D3E710
:10C4200038B5002200929E4CCA222034226053224A
:10C4300022609B4A121D002904D01168014311603B
:10C44000012015E0116881431160954A0832951367
:10C45000116801EA1021009B5B1C0093009BAB421A
:10C4600001D00029F4D0116811EA102F03D0012067
:10C47000FF21216038BD0020FAE710B5884BCA249F
:10C4800020331C6053241C601143B0F5807F05D01D
:10C49000834844300160FF20186010BD8048403060
:10C4A0000160F8E7B0F5807F05D07D484430006832
:10C4B000C0F30E00EFE67A4840300068C0F30E008B
:10C4C000E9E6774ACA21203211605321116074498C
:10C4D000091D0B6823F007030B600B6803430B6017
:10C4E000FF201060D7E66E49CA2220310A6053222D
:10C4F0000A606B4A10321060FF200860CBE6684883
:10C500001030006880B2C6E618B500210091644B77
:10C51000CA2120331960532119606149091D00287F
:10C5200005D0086840F480600860012017E00868C2
:10C5300020F4806008605A4A08329413106800F0B2
:10C5400004000099491C00910099A14201D00028E3
:10C55000F4D01068400701D4002000E00120FF2142
:10C56000196018BD10B54E4BCA2220331A605322F1
:10C570001A604B4A121D146824F480241460146855
:10C58000084304431460FF20186010BD4448001D98
:10C59000006800F480207EE610B5414BCA222033AB
:10C5A0001A6053221A603E4A121D146824F4E004F3
:10C5B00014601468084304431460FF20186010BD21
:10C5C000F0B506460F460024354DCA2020352860B8
:10C5D00053202860FFF78EFC30B131483E431430C1
:10C5E0000660FFF7FEFC0124FF2028602046F0BD16
:10C5F00070B5064600242A4DCA20203528605320F5
:10C600002860FFF777FC70B12548001D26B101684E
:10C6100041F08001016003E0016821F080010160C8
:10C62000FFF7DFFC0124FF202860204670BD1C4A74
:10C63000CA2120321160532111601949091D0028B7
:10C6400004D0086840F40000086003E0086820F4A3
:10C6500000000860FF2010601DE6114ACA21203248
:10C660001160532111600E49091D0B6823F400234A
:10C670000B600B6803430B60FF2010600BE6F0B506
:10C680000023074ECA242036346053243460044CFF
:10C6900008342568ED030DD54FF4003705E00000A0
:10C6A000042800403FFFFF005B1C2568ED0301D517
:10C6B000BB42F9D12368DB0305D40843BB491043CF
:10C6C0000860012000E00020FF213160F0BD10B5BE
:10C6D000B64B343B1A6840F60804A243002903D045
:10C6E000024342F4006200E00243B048CA21183815
:10C6F0000160532101601A60FF21016010BD70B517
:10C700000C461546A9490C390968A94A1140A74A9F
:10C71000083A12684FF63F731A40C1F3054323707D
:10C72000C1F30623637001F07F03A37001F480015D
:10C73000090CE1700021E970C2F30421697002F074
:10C740003F01A970C2F342312970002817D1207827
:10C75000FFF7C4FC20706078FFF7C0FC6070A07821
:10C76000FFF7BCFCA0706878FFF7B8FC6870A87889
:10C77000FFF7B4FCA8702878FFF7B0FC287070BDF4
:10C780008A48001F006886E5884A121D002904D0E7
:10C79000116841EA400010607DE5116821EA40001F
:10C7A000106078E5814A121D002903D01168014309
:10C7B000116070E51168814311606CE57B49091DCA
:10C7C0000A6822F4C0520A600A6802430A6062E5FD
:10C7D0007649091D0A6822F4E0620A600A68024389
:10C7E0000A6058E57149091D0A6822F4C0420A60CE
:10C7F0000A6802430A604EE56C49091D002804D00E
:10C80000086840F08000086045E5086820F0800076
:10C81000086040E56549091D002804D0086820F437
:10C820000040086037E5086840F40040086032E5E1
:10C8300008B55E4A143202EB800000900098016057
:10C8400008BD08B55949143101EB800000900098EB
:10C85000006808BD5549091D0A6822F480320A6043
:10C860000A6802430A6016E55049091D0A6822F465
:10C8700000320A600A6802430A600CE54B49091D50
:10C880000A6822F480220A600A6802430A6002E50C
:10C8900070B50022454DCA23183D2B6053232B60F1
:10C8A000424B303B1C68240707D59E1400E0521C05
:10C8B0001C68240701D5B242F9D11A68120711D4B5
:10C8C0003A4A343A1268D2060AD40143374810383B
:10C8D0000160FFF7EBFA08B1012004E0002002E05C
:10C8E000002000E00020FF21296070BD30B52F4DF1
:10C8F000CA22183D2A6053222A602C4C2B4B343C10
:10C9000020F004021B1D00F00400002906D021685D
:10C910001143216019680143196005E021689143C2
:10C920002160196881431960FF20286030BD0246EC
:10C9300000201E49303909681E4B1940114200D0B1
:10C940000120A8E480B240F08000C143174830388D
:10C95000026802F08002114301609CE40021134A46
:10C96000121D126802F00403104A343A126803EAF6
:10C97000D03302401A430D4B303B1B6803EA1010C2
:10C98000002A03D00004000C00D00121084682E4F4
:10C99000000980B240F08000C1430448303802688A
:10C9A00002F080021143016075E400003C28004061
:10C9B0007F7F7F007F3F010010B5E14988420AD1A7
:10C9C000841401212046FFF7E2F92046BDE810401B
:10C9D0000021FFF7DCB9DB4988420AD104140121A8
:10C9E0002046FFF7C8F92046BDE810400021FFF7B8
:10C9F000C2B9D54988420AD1C41301212046FFF7A4
:10CA0000BAF92046BDE810400021FFF7B4B9CF497C
:10CA100088420AD1441401212046FFF7B8F9204684
:10CA2000BDE810400021FFF7B2B9C94988420AD1D8
:10CA300001210C052046FFF7AAF92046BDE8104069
:10CA40000021FFF7A4B9C34988420AD101214C054E
:10CA50002046FFF79CF92046BDE810400021FFF773
:10CA600096B910BD30B5028802F441530A884C884B
:10CA7000CD8822438C882C4322430C8922434C8945
:10CA800022438C892243CC8922431A430280828B21
:10CA900022F400628283098A018230BDF0B502224D
:10CAA00000230124858B4FF2400635408583022503
:10CAB0000584868B8D68022D42D08A8802B10224BB
:10CAC000A54A13681B0203D5136823F400031360FF
:10CAD000A14A7C321368C3F388131268C2F302754B
:10CAE0009D4F3F1F3A6802F03F023F687F0206D524
:10CAF0009A4FB7FBF2F25A43B2FBF5F205E0984FBA
:10CB0000B7FBF2F25A43B2FBF5F2CB88B3F5007FE4
:10CB10002BD06301B2FBF3F202EB82028B6852006E
:10CB2000B2FBF3F2521D92B20A23B2FBF3F202F00F
:10CB30000103D21AC2F34F024FF6FF7404EA032333
:10CB4000941EFE2C01D302220023CC881A431443E6
:10CB500004840A884B881A438B8889890B431A43BB
:10CB6000324342F400618183F0BD120A02EB82027B
:10CB70008B685200B2FBF3F2521D92B2D4E700214F
:10CB8000018041808180C180018141818181C18199
:10CB90000721018270470021018041808180C1808E
:10CBA0000222826081817047002904D0018841F00F
:10CBB000400101807047018821F0400101807047E9
:10CBC000002904D0818B41F4806181837047818B7F
:10CBD00021F4806181837047028822F40062028020
:10CBE00002880A4302807047B1F5804F04D0018863
:10CBF00021F4804101807047018841F48041018027
:10CC00007047A1F57E42FF3A04D0018841F480715B
:10CC100001807047018821F48071018070470029EC
:10CC200004D0818841F0040181807047818821F01F
:10CC3000040181807047002904D0818841F01001EF
:10CC400081807047818821F010018180704730B564
:10CC50000023828B4FF2400422408283022202840E
:10CC6000848B0A884FF48075B2F5007F00D002B93A
:10CC70002B464A888D8889892A4319430A432243CF
:10CC800042F40061818330BD8089704781817047A3
:10CC9000002904D0018841F40051018070470188C7
:10CCA00021F4005101807047018841F480510180D6
:10CCB0007047012901D0008B7047808A7047008A35
:10CCC0007047002A03D082880A4382807047828896
:10CCD0008A4382807047090901238B4099B2002A58
:10CCE00003D082880A438280704782888A43828088
:10CCF00070470246002012890A4200D00120704786
:10CD0000C9430181704730B50246002001F00F038E
:10CD1000012505FA03F4A3B2090905FA01F4A4B246
:10CD20009188214012891A4202D0002900D00120A6
:10CD300030BD01F00F0201219140C94301817047CC
:10CD40000030014000380040003C00400034014009
:10CD500000500140005401400838024000127A009F
:10CD60000024F40010B501218C032046FFF70FF8D2
:10CD70002046BDE810400021FFF709B813490860BC
:10CD8000704713490862704710B58A07120F0F23C6
:10CD9000934021F003040F49214401F608010C6877
:10CDA0009C430C600B68904003430B6010BD084926
:10CDB000DC3108607047084908607047002003496B
:10CDC00020310968C90500D50120704700380140AD
:10CDD00000002742003001400004274210B5F94905
:10CDE000884209D101210846FEF7D1FF0021BDE8A4
:10CDF00010400120FEF7CBBFB0F1804F0CD0F249BC
:10CE0000884213D101210220FEF7B5FF0021BDE8C1
:10CE100010400220FEF7AFBF01210846FEF7ABFF2E
:10CE20000021BDE810400120FEF7A5BFE749884278
:10CE300009D101210420FEF79EFF0021BDE810402A
:10CE40000420FEF798BFE249884209D10121082059
:10CE5000FEF791FF0021BDE810400820FEF78BBFD0
:10CE6000DC49884209D101211020FEF784FF00210E
:10CE7000BDE810401020FEF77EBFD749884209D197
:10CE800001212020FEF777FF0021BDE8104020207F
:10CE9000FEF771BFD149884209D101210220FEF776
:10CEA00076FF0021BDE810400220FEF770BFCC499C
:10CEB00088420AD101210C042046FEF768FF204673
:10CEC000BDE810400021FEF762BFC64988420AD182
:10CED00001214C042046FEF75AFF2046BDE81040D1
:10CEE0000021FEF754BFC04988420AD101218C04B9
:10CEF0002046FEF74CFF2046BDE810400021FEF71B
:10CF000046BFBA49884209D101214020FEF733FFCC
:10CF10000021BDE810404020FEF72DBFB4498842F3
:10CF200009D101218020FEF726FF0021BDE8104035
:10CF30008020FEF720BFAF4988420AD18415012125
:10CF40002046FEF718FF2046BDE810400021FEF7FE
:10CF500012BF10BD30B502889A4CA04DA0420DD032
:10CF6000A8420BD0B0F1804F08D0974B984205D023
:10CF7000964B984202D0964B984203D122F0700310
:10CF80004A881A43934B984206D0934B984203D059
:10CF900022F440730A891A4302804A68C2620A88EE
:10CFA0000285A04201D0A84201D1897A01860121DF
:10CFB000818230BD4FF0FF3141600021018001814D
:10CFC000418081727047018582827047028822F019
:10CFD00070020A430280704741627047C162704725
:10CFE000406A7047008D7047002904D0018841F0E5
:10CFF000020101807047018821F002010180704721
:10D00000002904D0018841F00401018070470188A3
:10D0100021F0040101807047002904D0018841F00B
:10D02000800101807047018821F0800101807047F4
:10D03000028822F00802028002880A4302807047B8
:10D04000028822F44072028002880A4302807047FC
:10D05000002904D0018841F0010101807047018856
:10D0600021F001010180704730B5028C22F00102ED
:10D070000284058C8388028B22F0700222F0030266
:10D080000C88144325F002028D8915434A882A43EF
:10D090004C4DA84202D0514DA8420FD122F00805B4
:10D0A000CA892A4322F004058A882A4323F480731C
:10D0B00023F400730D8A1D434B8A2B438380048322
:10D0C00089684163028430BD70B5028C22F0100281
:10D0D0000284028C8388048B24F4E04424F4407698
:10D0E0000D884FF6FF7404EA0525354322F020022F
:10D0F0008E8904EA061616434A8804EA021232436D
:10D10000304EB04202D0354EB04217D122F08002EC
:10D11000CE8904EA0616164326F040068A8804EAF9
:10D120000212324323F4806323F400630E8A04EA7C
:10D1300086061E434B8A04EA8303334383800583B8
:10D1400089688163028470BD70B5028C22F480729C
:10D150000284028C8388848B24F0700424F00304FE
:10D160000D88254322F400728E894FF6FF7404EA7D
:10D17000062616434A8804EA02223243114EB04280
:10D1800002D0164EB04217D122F40066CA8904EAD2
:10D190000222324322F480668A8804EA0222324361
:10D1A00023F4805323F400530E8A04EA06161E4328
:10D1B0004B8A04EA03133343838085838968C16300
:10D1C000028470BD000001400004004000080040DF
:10D1D000000C00400010004000140040000401401A
:10D1E0000040014000440140004801400018004058
:10D1F000001C00400020004070B5028C22F48052D8
:10D200000284058C8288838B23F4E04323F44076E8
:10D210000C884FF6FF7303EA0424344325F40055C9
:10D220008E8903EA06362E434D8803EA05353543D9
:10D23000FE4EB04202D0FE4EB04205D122F48046EE
:10D240000A8A03EA821232438280848389680164F5
:10D250000584B6E700210180418081808160818161
:10D26000C18101824182704730B500F11803012469
:10D270008C40058CA5430584002912D0082910D0C4
:10D28000091FC1F34E001844016848F6FF731940A6
:10D29000016001684FF6FF7303EA02221143016047
:10D2A00030BD03EB510001684FF68F7319400160E8
:10D2B00001681143016030BD41637047816370476D
:10D2C000C163704701647047028B22F070020A4309
:10D2D00002837047028B22F4E0424FF6FF7303EAA9
:10D2E0000121114301837047828B22F070020A43AF
:10D2F00082837047828B22F4E0424FF6FF7303EA89
:10D300000121114381837047028B22F008020A43F6
:10D3100002837047028B22F400624FF6FF7303EA28
:10D320000121114301837047828B22F008020A43D6
:10D3300082837047828B22F400624FF6FF7303EA08
:10D340000121114381837047028B22F004020A43BA
:10D3500002837047028B22F480624FF6FF7303EA68
:10D360000121114301837047828B22F004020A439A
:10D3700082837047828B22F480624FF6FF7303EA48
:10D380000121114381837047028B22F080020A43FE
:10D3900002837047028BC2F30E024FF6FF7303EA5B
:10D3A0000121114301837047828B22F080020A43DE
:10D3B00082837047828BC2F30E024FF6FF7303EA3B
:10D3C0000121114381837047028C22F002020A433B
:10D3D00002847047028C22F008020A4302847047DC
:10D3E000028C22F020024FF6FF7303EA0111114371
:10D3F00001847047028C22F080024FF6FF7303EA2B
:10D400000111114301847047028C22F400724FF61F
:10D41000FF7303EA0121114301847047028C22F457
:10D4200000624FF6FF7303EA012111430184704744
:10D43000028C22F400524FF6FF7303EA01311143CC
:10D440000184704710B501238B40048C9C430484F5
:10D45000038C8A401343038410BD10B504238B4012
:10D46000048C9C430484038C8A401343038410BDC2
:10D47000828B22F440628283828B4FF6FF7303EA31
:10D4800001210A438283704770B5048C24F48054D0
:10D490000484858B068C4FF6FF7404EA013125F471
:10D4A000734504EA02222A4304EA0333134326F4B1
:10D4B00020420A4342F480518383018481E6828BB7
:10D4C00022F00C028283828B0A4382837047F0B57C
:10D4D000048C24F480740484868B058C4FF6FF77CB
:10D4E00007EA012426F0F30607EA0311114331434A
:10D4F00025F42062224342F4807281830284F0BDCD
:10D50000028B22F440620283028B4FF6FF7303EA20
:10D5100001210A430283704770B5048C24F0100483
:10D520000484058B068C4FF6FF7404EA011125F480
:10D53000734504EA03332B4304EA02221A4326F01C
:10D54000A0030B4343F010010283018439E6028BF0
:10D5500022F00C020283028B0A430283704770B5EB
:10D56000048C24F001040484058B048C25F0F3055D
:10D570004FF6FF7606EA031313432B4324F00A0207
:10D580000A4342F00101038301841AE670B506469E
:10D590000C4625886188A2882389002D0BD0042D94
:10D5A00011D0082D17D03046FFF76EFFE1883046C6
:10D5B000BDE870405CE73046FFF7D1FFE1883046B8
:10D5C000BDE87040C3E73046FFF7A6FFE18830466C
:10D5D000BDE8704094E73046FFF779FFE1883046B8
:10D5E000BDE870406BE7002101804180012282800C
:10D5F000C180018170472DE9F04107460C460025A6
:10D6000001266188002900D10225A288012A00D1C3
:10D61000022620882389B0B13846FFF77DFFE188D4
:10D620003846FFF76DFF2389324603E000000140D2
:10D630000004014029463846FFF791FFE18838464B
:10D64000BDE8F04183E73846FFF789FFE1883846B7
:10D65000FFF77DFF2389324629463846FFF75CFFF6
:10D66000E1883846BDE8F0414AE7406B7047806B7F
:10D670007047C06B7047006C704710B50A884B88C4
:10D68000CC881A438B8823431A430B891A434B894E
:10D6900089891A430A43A0F8442010BD0021018063
:10D6A00041808180C1800181418181817047002951
:10D6B00005D030F8441F41F400410180704730F834
:10D6C000441FC1F30E0101807047002904D08188F6
:10D6D00041F0040181807047818821F0040181803C
:10D6E0007047002904D0818841F001018180704792
:10D6F000818821F0010181807047002A03D082894E
:10D700000A438281704782898A438281704781827D
:10D71000704702460020128A0A4200D0012070475A
:10D72000C9430182704702460020138A0B40928948
:10D730000A40002B02D0002A00D001207047C943C4
:10D74000018270471143A0F848107047002A03D0A7
:10D7500082890A438281704782898A438281704725
:10D76000002904D0818841F00801818070478188B8
:10D7700021F0080181807047018921F007010181B2
:10D780007047028922F070020A430281704700B597
:10D7900003461846FFF7F5FF188940F00700188187
:10D7A00000BD70B50D4604461146602D0CD0012217
:10D7B0002046FFF7D4FE29462046FFF7E2FF2089E6
:10D7C00040F007002081FCE401222046FFF7A4FE80
:10D7D000F1E730B50489E4B24FF6FF7505EA03239B
:10D7E00013430B432343038130BD10B50446204649
:10D7F000FFF7EFFF208920F0070040F0070020F03E
:10D80000700040F07000208110BD10B50446204625
:10D81000FFF7DFFF208940F48040208110BD82881F
:10D8200022F07002828082880A43828070470289D7
:10D8300022F00702028102890A43028170470289AD
:10D8400022F08002028102890A430281704770B58A
:10D850000589048B068C25F007050D434FF6FC4126
:10D860000C4040F201110C4326F022064FF6FF71E6
:10D8700001EA031111433143058104830184A0E4CB
:10D88000002904D0818841F080018180704781881F
:10D8900021F0800181807047A0F85010704700008F
:10D8A00010B5FB49884209D101211020FEF76FFA1B
:10D8B0000021BDE810401020FEF769BAF549884202
:10D8C0000AD101214C042046FEF755FA2046BDE856
:10D8D00010400021FEF74FBAEF4988420AD10121DA
:10D8E0008C042046FEF747FA2046BDE81040002190
:10D8F000FEF741BAE94988420AD10121CC04204609
:10D90000FEF739FA2046BDE810400021FEF733BA91
:10D91000E34988420AD101210C052046FEF72BFA83
:10D920002046BDE810400021FEF725BADD498842B7
:10D9300009D101212020FEF72AFA0021BDE810407C
:10D940002020FEF724BAD84988420AD101218C0749
:10D950002046FEF710FA2046BDE810400021FEF7F1
:10D960000ABAD24988420AD1440501212046FEF76D
:10D9700002FA2046BDE810400021FEF7FCB910BDB8
:10D980007FB504460D46208A20F44051E8880843BC
:10D990002082A08941F20C618843A9882A89114319
:10D9A0006A8902431143A181A08A20F44071A889A9
:10D9B0000843A0826846FEF7E5F8B548844202D0E5
:10D9C000B848844201D1039800E00298A189090473
:10D9D00008D500EBC00101EB001029684900B0FB3D
:10D9E000F1F007E000EBC00101EB001029688900AD
:10D9F000B0FBF1F06422B0FBF2F109010B096FF00A
:10DA000018056B4300EB8300A3891D044FF032031C
:10DA100007D503EBC000B0FBF2F000F007000843AD
:10DA200006E003EB0010B0FBF2F000F00F0008433B
:10DA300020817FBD4FF41651016000218180C1809B
:10DA400001810C2242818181704710B5028A22F443
:10DA500070630A884C8822438C88C9880C4322430F
:10DA60001A43028210BD0021018041808180C18063
:10DA70007047002904D0818941F4005181817047A9
:10DA8000818921F4005181817047028B02F47F4229
:10DA90000283028B0A4302837047002904D08189E4
:10DAA00041F40041818170478189C1F30E01818178
:10DAB0007047002904D0818A41F400618182704757
:10DAC000818A21F4006181827047C1F3080181805D
:10DAD00070478088C0F308007047028A22F00F0266
