:020000040800F2
:1000000000080020C1010008EB050008C905000830
:10001000E90500082D02000845070008000000005F
:100020000000000000000000000000000D060008B5
:100030008902000800000000ED050008E506000840
:10004000DB010008DB010008DB010008DB01000820
:10005000DB010008DB010008DB010008DB01000810
:10006000DB010008DB010008DB010008DB01000800
:10007000DB010008DB010008DB010008DB010008F0
:10008000DB010008DB010008DB010008DB010008E0
:10009000DB010008DB010008DB010008DB010008D0
:1000A000DB010008DB010008DB010008DB010008C0
:1000B000DB010008DB010008DB010008DB010008B0
:1000C000DB010008DB010008DB010008DB010008A0
:1000D000DB010008DB010008DB010008DB01000890
:1000E000DB010008DB010008DB010008DB01000880
:1000F000DB010008DB010008DB010008DB01000870
:10010000DB010008DB010008DB010008DB0100085F
:10011000DB010008DB010008DB010008DB0100084F
:10012000DB010008DB010008DB010008DB0100083F
:10013000DB010008DB010008DB010008DB0100082F
:10014000DB010008DB010008DB010008DB0100081F
:10015000DB010008DB010008DB010008DB0100080F
:10016000DB010008DB010008DB010008DB010008FF
:10017000DB010008DB010008DB010008DB010008EF
:10018000DB010008DB010008DB010008DB010008DF
:10019000DB010008DB010008DB010008DB010008CF
:1001A000DB010008DB010008DB010008DFF80CD0F0
:1001B00000F02AF800480047650700080008002002
:1001C0000648804706480047FEE7FEE7FEE7FEE7F1
:1001D000FEE7FEE7FEE7FEE7FEE7FEE7E9060008CA
:1001E000AD01000840EA01039B0703D009E008C9FC
:1001F000121F08C0042AFAD203E011F8013B00F8EC
:10020000013B521EF9D27047064C074D06E0E068EC
:1002100040F0010394E8070098471034AC42F6D34D
:10022000FFF7C8FFE8070008F8070008FEE700002E
:100230002DE9F0414FF00166104F114C00F026F807
:10024000092818D14FF4806812E04546AC4200D826
:1002500025462A4631460B48FFF7C4FFAA0809493C
:10026000384600F0D4F8092805D12E442F44641BE9
:10027000002CEAD10920BDE8F081000000800008D0
:10028000FF7F0F00000000207047000070B50E488F
:1002900000F0D8F884B20D4800F0D4F885B200F030
:1002A00093F8E40809E0E000022100F011F80928C1
:1002B00001D0042070BD641CA4B2B4EBD50FF2D9F8
:1002C00000F05CF8092070BD00800008FFFF0F08F7
:1002D00070B506460025002905D0012927D002293E
:1002E00028D04FF4407500F081F809281ED1134C36
:1002F000206820F440702060206828432060206837
:1003000020F0F8002060206846F0020108432060D9
:10031000206840F48030206000F068F8216821F007
:1003200002012160216821F0F801216070BD4FF4C5
:100330008075D8E74FF40075D5E70000103C024007
:1003400009200D490A68D20301D5012070470A68C7
:10035000D20601D5062070470A68D20501D50220D1
:1003600070470A6812F0E00F01D007207047096853
:100370008907FBD5082070470C3C02400248016801
:1003800041F0004101607047103C024070B50546E5
:100390000E4600F02BF8092813D10A4C206820F4EF
:1003A00040702060206840F400702060206840F0B9
:1003B000010020602E6000F019F8216821F0010191
:1003C000216070BD103C024005480068002805DA35
:1003D000034804490C38016003490160704700007C
:1003E000103C024023016745AB89EFCD08B50920D9
:1003F0000090FFF7A5FF009002E0FFF7A1FF00903B
:100400009DF800000128F8D09DF8000008BD2DE9F6
:10041000F04105460E461746FFF7D6FF00240BE0D5
:1004200056F8241005EB8400FFF7B0FF092802D02E
:100430000420BDE8F081641CBC42F1D3FFF79EFFAD
:100440000920F6E701460020A1F100624FF4804345
:100450009A4204D347480844984201D20820704782
:1004600045480844984201D2102070474348084448
:10047000984201D21820704741480844B0F5803FA7
:1004800001D2202070473F484FF400320844904288
:1004900001D2282070473C480844904201D23020C5
:1004A00070473A480844904201D238207047384893
:1004B0000844904201D24020704736480844904298
:1004C00001D24820704734480844904201D250205D
:1004D000704732480844904201D258207047A1F139
:1004E0000160904201D2802070472D48084490421C
:1004F00001D2882070472B480844904201D29020B6
:10050000704729480844904201D2982070472748F4
:100510000844904201D2A0207047254808449042E8
:1005200001D2A820704723480844904201D2B0204D
:10053000704721480844904201D2B8207047A1F189
:100540000260904201D2C02070471C48084490428B
:1005500001D2C82070471A480844904201D2D020E6
:10056000704718480844904201D2D82070474FF095
:10057000FF30704700C0FFF70080FFF70040FFF733
:100580000000FFF70000FEF70000FCF70000FAF79C
:100590000000F8F70000F6F70000F4F70000F2F7AB
:1005A0000000EEF70000ECF70000EAF70000E8F7C3
:1005B0000000E6F70000E4F70000E2F70000DEF7D5
:1005C0000000DCF70000DAF7FEE7000072B6002159
:1005D0004FF0E022116103490860016881F3088847
:1005E0004068004708ED00E0FEE7704770470000F4
:1005F000054A002903D01168014311607047116852
:10060000814311607047000030380240704700009D
:100610001CB50021019100912E4A106840F48030F1
:1006200010604FF4A043106800F40030009001986F
:10063000401C0190009810B901989842F3D11068BD
:10064000800302D50120009000E00091009801286D
:100650003FD120484030016841F0805101601E497F
:10066000086840F4404008601A4808300368036096
:10067000036843F400430360036843F4A05303603A
:10068000041F164B2360136843F0807313601368D4
:100690009B01FCD50A6842F480320A604A68D203A2
:1006A000FCD50A6842F400320A604A689203FCD51D
:1006B0000B4A40F205711160016821F003010160ED
:1006C000016841F0020101600168C1F38101022962
:1006D000FAD11CBD0038024000700040195A400792
:1006E000003C02407047000010B51248016841F418
:1006F000700101601048016841F0010101600E4A7B
:1007000000210832116002680C4B1A400260031D80
:100710000B4A1A60026822F48022026006480C30FC
:100720000160FFF775FF03494FF0006080390860F2
:1007300010BD000088ED00E000380240FFFFF6FE2B
:1007400010300024FEE702E008C8121F08C1002A8A
:10075000FAD170477047002001E001C1121F002A42
:10076000FBD17047FFF7C0FF01214020FFF740FF9A
:100770001A4C20681A49202688421ED14FF0016089
:100780000068B6EB106F10D1FFF752FD092814D1A5
:10079000FFF71AFE02210820FFF79AFD00212046EC
:1007A000FFF7F4FDFFF7EAFD07E0FFF70DFE02217A
:1007B0000820FFF78DFDFFF7E1FD0A4D42F21074AE
:1007C00006E0FFF703FF002100BF491CA142FBD355
:1007D00029682846B6EB116FF5D1F2E70040000812
:1007E000AAAA555500800008F8070008000000205C
:0807F000000800005607000894
:04000005080001AD41
:00000001FF
